Archive member included to satisfy reference by file (symbol)

d:/programmer/gcc-arm-none-eabi/bin/../lib/gcc/arm-none-eabi/10.2.1/thumb/v7-m/nofp\libgcc.a(_arm_muldf3.o)
                              CMakeFiles/ban.elf.dir/lib/carcontrol/control.c.obj (__aeabi_dmul)
d:/programmer/gcc-arm-none-eabi/bin/../lib/gcc/arm-none-eabi/10.2.1/thumb/v7-m/nofp\libgcc.a(_arm_mulsf3.o)
                              CMakeFiles/ban.elf.dir/lib/carcontrol/control.c.obj (__aeabi_fmul)
d:/programmer/gcc-arm-none-eabi/bin/../lib/gcc/arm-none-eabi/10.2.1/thumb/v7-m/nofp\libgcc.a(_arm_addsubdf3.o)
                              CMakeFiles/ban.elf.dir/lib/carcontrol/control.c.obj (__aeabi_dsub)
d:/programmer/gcc-arm-none-eabi/bin/../lib/gcc/arm-none-eabi/10.2.1/thumb/v7-m/nofp\libgcc.a(_arm_muldivdf3.o)
                              CMakeFiles/ban.elf.dir/lib/carcontrol/control.c.obj (__aeabi_ddiv)
d:/programmer/gcc-arm-none-eabi/bin/../lib/gcc/arm-none-eabi/10.2.1/thumb/v7-m/nofp\libgcc.a(_arm_cmpdf2.o)
                              CMakeFiles/ban.elf.dir/lib/carcontrol/control.c.obj (__aeabi_dcmpeq)
d:/programmer/gcc-arm-none-eabi/bin/../lib/gcc/arm-none-eabi/10.2.1/thumb/v7-m/nofp\libgcc.a(_arm_fixdfsi.o)
                              CMakeFiles/ban.elf.dir/lib/carcontrol/control.c.obj (__aeabi_d2iz)
d:/programmer/gcc-arm-none-eabi/bin/../lib/gcc/arm-none-eabi/10.2.1/thumb/v7-m/nofp\libgcc.a(_arm_truncdfsf2.o)
                              CMakeFiles/ban.elf.dir/Core/Src/main.c.obj (__aeabi_d2f)
d:/programmer/gcc-arm-none-eabi/bin/../lib/gcc/arm-none-eabi/10.2.1/thumb/v7-m/nofp\libgcc.a(_arm_addsubsf3.o)
                              CMakeFiles/ban.elf.dir/lib/carcontrol/control.c.obj (__aeabi_fadd)
d:/programmer/gcc-arm-none-eabi/bin/../lib/gcc/arm-none-eabi/10.2.1/thumb/v7-m/nofp\libgcc.a(_arm_muldivsf3.o)
                              CMakeFiles/ban.elf.dir/lib/mpu6050/mpu6050.c.obj (__aeabi_fdiv)
d:/programmer/gcc-arm-none-eabi/bin/../lib/gcc/arm-none-eabi/10.2.1/thumb/v7-m/nofp\libgcc.a(_arm_cmpsf2.o)
                              CMakeFiles/ban.elf.dir/lib/carcontrol/control.c.obj (__aeabi_fcmplt)
d:/programmer/gcc-arm-none-eabi/bin/../lib/gcc/arm-none-eabi/10.2.1/thumb/v7-m/nofp\libgcc.a(_arm_fixsfsi.o)
                              CMakeFiles/ban.elf.dir/lib/carcontrol/control.c.obj (__aeabi_f2iz)
d:/programmer/gcc-arm-none-eabi/bin/../lib/gcc/arm-none-eabi/10.2.1/../../../../arm-none-eabi/lib/thumb/v7-m/nofp\libg.a(lib_a-errno.o)
                              CMakeFiles/ban.elf.dir/Core/Src/syscalls.c.obj (__errno)
d:/programmer/gcc-arm-none-eabi/bin/../lib/gcc/arm-none-eabi/10.2.1/../../../../arm-none-eabi/lib/thumb/v7-m/nofp\libg.a(lib_a-exit.o)
                              d:/programmer/gcc-arm-none-eabi/bin/../lib/gcc/arm-none-eabi/10.2.1/../../../../arm-none-eabi/lib/thumb/v7-m/nofp/crt0.o (exit)
d:/programmer/gcc-arm-none-eabi/bin/../lib/gcc/arm-none-eabi/10.2.1/../../../../arm-none-eabi/lib/thumb/v7-m/nofp\libg.a(lib_a-impure.o)
                              d:/programmer/gcc-arm-none-eabi/bin/../lib/gcc/arm-none-eabi/10.2.1/../../../../arm-none-eabi/lib/thumb/v7-m/nofp\libg.a(lib_a-exit.o) (_global_impure_ptr)
d:/programmer/gcc-arm-none-eabi/bin/../lib/gcc/arm-none-eabi/10.2.1/../../../../arm-none-eabi/lib/thumb/v7-m/nofp\libg.a(lib_a-init.o)
                              d:/programmer/gcc-arm-none-eabi/bin/../lib/gcc/arm-none-eabi/10.2.1/../../../../arm-none-eabi/lib/thumb/v7-m/nofp/crt0.o (__libc_init_array)
d:/programmer/gcc-arm-none-eabi/bin/../lib/gcc/arm-none-eabi/10.2.1/../../../../arm-none-eabi/lib/thumb/v7-m/nofp\libg.a(lib_a-memset.o)
                              d:/programmer/gcc-arm-none-eabi/bin/../lib/gcc/arm-none-eabi/10.2.1/../../../../arm-none-eabi/lib/thumb/v7-m/nofp/crt0.o (memset)
d:/programmer/gcc-arm-none-eabi/bin/../lib/gcc/arm-none-eabi/10.2.1/../../../../arm-none-eabi/lib/thumb/v7-m/nofp\libg.a(lib_a-setvbuf.o)
                              CMakeFiles/ban.elf.dir/lib/print/retarget.c.obj (setvbuf)
d:/programmer/gcc-arm-none-eabi/bin/../lib/gcc/arm-none-eabi/10.2.1/../../../../arm-none-eabi/lib/thumb/v7-m/nofp\libg.a(lib_a-snprintf.o)
                              CMakeFiles/ban.elf.dir/Core/Src/main.c.obj (snprintf)
d:/programmer/gcc-arm-none-eabi/bin/../lib/gcc/arm-none-eabi/10.2.1/../../../../arm-none-eabi/lib/thumb/v7-m/nofp\libg.a(lib_a-strlen-stub.o)
                              CMakeFiles/ban.elf.dir/lib/oled/fonts.c.obj (strlen)
d:/programmer/gcc-arm-none-eabi/bin/../lib/gcc/arm-none-eabi/10.2.1/../../../../arm-none-eabi/lib/thumb/v7-m/nofp\libg.a(lib_a-svfprintf.o)
                              d:/programmer/gcc-arm-none-eabi/bin/../lib/gcc/arm-none-eabi/10.2.1/../../../../arm-none-eabi/lib/thumb/v7-m/nofp\libg.a(lib_a-snprintf.o) (_svfprintf_r)
d:/programmer/gcc-arm-none-eabi/bin/../lib/gcc/arm-none-eabi/10.2.1/../../../../arm-none-eabi/lib/thumb/v7-m/nofp\libg.a(lib_a-__call_atexit.o)
                              d:/programmer/gcc-arm-none-eabi/bin/../lib/gcc/arm-none-eabi/10.2.1/../../../../arm-none-eabi/lib/thumb/v7-m/nofp\libg.a(lib_a-exit.o) (__call_exitprocs)
d:/programmer/gcc-arm-none-eabi/bin/../lib/gcc/arm-none-eabi/10.2.1/../../../../arm-none-eabi/lib/thumb/v7-m/nofp\libg.a(lib_a-atexit.o)
                              d:/programmer/gcc-arm-none-eabi/bin/../lib/gcc/arm-none-eabi/10.2.1/../../../../arm-none-eabi/lib/thumb/v7-m/nofp\libg.a(lib_a-__call_atexit.o) (atexit)
d:/programmer/gcc-arm-none-eabi/bin/../lib/gcc/arm-none-eabi/10.2.1/../../../../arm-none-eabi/lib/thumb/v7-m/nofp\libg.a(lib_a-dtoa.o)
                              d:/programmer/gcc-arm-none-eabi/bin/../lib/gcc/arm-none-eabi/10.2.1/../../../../arm-none-eabi/lib/thumb/v7-m/nofp\libg.a(lib_a-svfprintf.o) (_dtoa_r)
d:/programmer/gcc-arm-none-eabi/bin/../lib/gcc/arm-none-eabi/10.2.1/../../../../arm-none-eabi/lib/thumb/v7-m/nofp\libg.a(lib_a-fflush.o)
                              d:/programmer/gcc-arm-none-eabi/bin/../lib/gcc/arm-none-eabi/10.2.1/../../../../arm-none-eabi/lib/thumb/v7-m/nofp\libg.a(lib_a-setvbuf.o) (_fflush_r)
d:/programmer/gcc-arm-none-eabi/bin/../lib/gcc/arm-none-eabi/10.2.1/../../../../arm-none-eabi/lib/thumb/v7-m/nofp\libg.a(lib_a-findfp.o)
                              d:/programmer/gcc-arm-none-eabi/bin/../lib/gcc/arm-none-eabi/10.2.1/../../../../arm-none-eabi/lib/thumb/v7-m/nofp\libg.a(lib_a-setvbuf.o) (__sinit)
d:/programmer/gcc-arm-none-eabi/bin/../lib/gcc/arm-none-eabi/10.2.1/../../../../arm-none-eabi/lib/thumb/v7-m/nofp\libg.a(lib_a-fini.o)
                              d:/programmer/gcc-arm-none-eabi/bin/../lib/gcc/arm-none-eabi/10.2.1/../../../../arm-none-eabi/lib/thumb/v7-m/nofp\libg.a(lib_a-__call_atexit.o) (__libc_fini_array)
d:/programmer/gcc-arm-none-eabi/bin/../lib/gcc/arm-none-eabi/10.2.1/../../../../arm-none-eabi/lib/thumb/v7-m/nofp\libg.a(lib_a-freer.o)
                              d:/programmer/gcc-arm-none-eabi/bin/../lib/gcc/arm-none-eabi/10.2.1/../../../../arm-none-eabi/lib/thumb/v7-m/nofp\libg.a(lib_a-setvbuf.o) (_free_r)
d:/programmer/gcc-arm-none-eabi/bin/../lib/gcc/arm-none-eabi/10.2.1/../../../../arm-none-eabi/lib/thumb/v7-m/nofp\libg.a(lib_a-fwalk.o)
                              d:/programmer/gcc-arm-none-eabi/bin/../lib/gcc/arm-none-eabi/10.2.1/../../../../arm-none-eabi/lib/thumb/v7-m/nofp\libg.a(lib_a-findfp.o) (_fwalk)
d:/programmer/gcc-arm-none-eabi/bin/../lib/gcc/arm-none-eabi/10.2.1/../../../../arm-none-eabi/lib/thumb/v7-m/nofp\libg.a(lib_a-localeconv.o)
                              d:/programmer/gcc-arm-none-eabi/bin/../lib/gcc/arm-none-eabi/10.2.1/../../../../arm-none-eabi/lib/thumb/v7-m/nofp\libg.a(lib_a-svfprintf.o) (_localeconv_r)
d:/programmer/gcc-arm-none-eabi/bin/../lib/gcc/arm-none-eabi/10.2.1/../../../../arm-none-eabi/lib/thumb/v7-m/nofp\libg.a(lib_a-lock.o)
                              d:/programmer/gcc-arm-none-eabi/bin/../lib/gcc/arm-none-eabi/10.2.1/../../../../arm-none-eabi/lib/thumb/v7-m/nofp\libg.a(lib_a-findfp.o) (__retarget_lock_init_recursive)
d:/programmer/gcc-arm-none-eabi/bin/../lib/gcc/arm-none-eabi/10.2.1/../../../../arm-none-eabi/lib/thumb/v7-m/nofp\libg.a(lib_a-makebuf.o)
                              d:/programmer/gcc-arm-none-eabi/bin/../lib/gcc/arm-none-eabi/10.2.1/../../../../arm-none-eabi/lib/thumb/v7-m/nofp\libg.a(lib_a-setvbuf.o) (__swhatbuf_r)
d:/programmer/gcc-arm-none-eabi/bin/../lib/gcc/arm-none-eabi/10.2.1/../../../../arm-none-eabi/lib/thumb/v7-m/nofp\libg.a(lib_a-malloc.o)
                              d:/programmer/gcc-arm-none-eabi/bin/../lib/gcc/arm-none-eabi/10.2.1/../../../../arm-none-eabi/lib/thumb/v7-m/nofp\libg.a(lib_a-setvbuf.o) (malloc)
d:/programmer/gcc-arm-none-eabi/bin/../lib/gcc/arm-none-eabi/10.2.1/../../../../arm-none-eabi/lib/thumb/v7-m/nofp\libg.a(lib_a-mallocr.o)
                              d:/programmer/gcc-arm-none-eabi/bin/../lib/gcc/arm-none-eabi/10.2.1/../../../../arm-none-eabi/lib/thumb/v7-m/nofp\libg.a(lib_a-svfprintf.o) (_malloc_r)
d:/programmer/gcc-arm-none-eabi/bin/../lib/gcc/arm-none-eabi/10.2.1/../../../../arm-none-eabi/lib/thumb/v7-m/nofp\libg.a(lib_a-memchr-stub.o)
                              d:/programmer/gcc-arm-none-eabi/bin/../lib/gcc/arm-none-eabi/10.2.1/../../../../arm-none-eabi/lib/thumb/v7-m/nofp\libg.a(lib_a-svfprintf.o) (memchr)
d:/programmer/gcc-arm-none-eabi/bin/../lib/gcc/arm-none-eabi/10.2.1/../../../../arm-none-eabi/lib/thumb/v7-m/nofp\libg.a(lib_a-memcpy.o)
                              d:/programmer/gcc-arm-none-eabi/bin/../lib/gcc/arm-none-eabi/10.2.1/../../../../arm-none-eabi/lib/thumb/v7-m/nofp\libg.a(lib_a-dtoa.o) (memcpy)
d:/programmer/gcc-arm-none-eabi/bin/../lib/gcc/arm-none-eabi/10.2.1/../../../../arm-none-eabi/lib/thumb/v7-m/nofp\libg.a(lib_a-mlock.o)
                              d:/programmer/gcc-arm-none-eabi/bin/../lib/gcc/arm-none-eabi/10.2.1/../../../../arm-none-eabi/lib/thumb/v7-m/nofp\libg.a(lib_a-freer.o) (__malloc_lock)
d:/programmer/gcc-arm-none-eabi/bin/../lib/gcc/arm-none-eabi/10.2.1/../../../../arm-none-eabi/lib/thumb/v7-m/nofp\libg.a(lib_a-mprec.o)
                              d:/programmer/gcc-arm-none-eabi/bin/../lib/gcc/arm-none-eabi/10.2.1/../../../../arm-none-eabi/lib/thumb/v7-m/nofp\libg.a(lib_a-dtoa.o) (_Balloc)
d:/programmer/gcc-arm-none-eabi/bin/../lib/gcc/arm-none-eabi/10.2.1/../../../../arm-none-eabi/lib/thumb/v7-m/nofp\libg.a(lib_a-s_frexp.o)
                              d:/programmer/gcc-arm-none-eabi/bin/../lib/gcc/arm-none-eabi/10.2.1/../../../../arm-none-eabi/lib/thumb/v7-m/nofp\libg.a(lib_a-svfprintf.o) (frexp)
d:/programmer/gcc-arm-none-eabi/bin/../lib/gcc/arm-none-eabi/10.2.1/../../../../arm-none-eabi/lib/thumb/v7-m/nofp\libg.a(lib_a-sbrkr.o)
                              d:/programmer/gcc-arm-none-eabi/bin/../lib/gcc/arm-none-eabi/10.2.1/../../../../arm-none-eabi/lib/thumb/v7-m/nofp\libg.a(lib_a-freer.o) (_sbrk_r)
d:/programmer/gcc-arm-none-eabi/bin/../lib/gcc/arm-none-eabi/10.2.1/../../../../arm-none-eabi/lib/thumb/v7-m/nofp\libg.a(lib_a-stdio.o)
                              d:/programmer/gcc-arm-none-eabi/bin/../lib/gcc/arm-none-eabi/10.2.1/../../../../arm-none-eabi/lib/thumb/v7-m/nofp\libg.a(lib_a-findfp.o) (__sread)
d:/programmer/gcc-arm-none-eabi/bin/../lib/gcc/arm-none-eabi/10.2.1/../../../../arm-none-eabi/lib/thumb/v7-m/nofp\libg.a(lib_a-strncpy.o)
                              d:/programmer/gcc-arm-none-eabi/bin/../lib/gcc/arm-none-eabi/10.2.1/../../../../arm-none-eabi/lib/thumb/v7-m/nofp\libg.a(lib_a-svfprintf.o) (strncpy)
d:/programmer/gcc-arm-none-eabi/bin/../lib/gcc/arm-none-eabi/10.2.1/../../../../arm-none-eabi/lib/thumb/v7-m/nofp\libg.a(lib_a-svfiprintf.o)
                              d:/programmer/gcc-arm-none-eabi/bin/../lib/gcc/arm-none-eabi/10.2.1/../../../../arm-none-eabi/lib/thumb/v7-m/nofp\libg.a(lib_a-svfprintf.o) (__ssprint_r)
d:/programmer/gcc-arm-none-eabi/bin/../lib/gcc/arm-none-eabi/10.2.1/../../../../arm-none-eabi/lib/thumb/v7-m/nofp\libg.a(lib_a-writer.o)
                              d:/programmer/gcc-arm-none-eabi/bin/../lib/gcc/arm-none-eabi/10.2.1/../../../../arm-none-eabi/lib/thumb/v7-m/nofp\libg.a(lib_a-stdio.o) (_write_r)
d:/programmer/gcc-arm-none-eabi/bin/../lib/gcc/arm-none-eabi/10.2.1/../../../../arm-none-eabi/lib/thumb/v7-m/nofp\libg.a(lib_a-__atexit.o)
                              d:/programmer/gcc-arm-none-eabi/bin/../lib/gcc/arm-none-eabi/10.2.1/../../../../arm-none-eabi/lib/thumb/v7-m/nofp\libg.a(lib_a-atexit.o) (__register_exitproc)
d:/programmer/gcc-arm-none-eabi/bin/../lib/gcc/arm-none-eabi/10.2.1/../../../../arm-none-eabi/lib/thumb/v7-m/nofp\libg.a(lib_a-assert.o)
                              d:/programmer/gcc-arm-none-eabi/bin/../lib/gcc/arm-none-eabi/10.2.1/../../../../arm-none-eabi/lib/thumb/v7-m/nofp\libg.a(lib_a-dtoa.o) (__assert_func)
d:/programmer/gcc-arm-none-eabi/bin/../lib/gcc/arm-none-eabi/10.2.1/../../../../arm-none-eabi/lib/thumb/v7-m/nofp\libg.a(lib_a-callocr.o)
                              d:/programmer/gcc-arm-none-eabi/bin/../lib/gcc/arm-none-eabi/10.2.1/../../../../arm-none-eabi/lib/thumb/v7-m/nofp\libg.a(lib_a-mprec.o) (_calloc_r)
d:/programmer/gcc-arm-none-eabi/bin/../lib/gcc/arm-none-eabi/10.2.1/../../../../arm-none-eabi/lib/thumb/v7-m/nofp\libg.a(lib_a-closer.o)
                              d:/programmer/gcc-arm-none-eabi/bin/../lib/gcc/arm-none-eabi/10.2.1/../../../../arm-none-eabi/lib/thumb/v7-m/nofp\libg.a(lib_a-stdio.o) (_close_r)
d:/programmer/gcc-arm-none-eabi/bin/../lib/gcc/arm-none-eabi/10.2.1/../../../../arm-none-eabi/lib/thumb/v7-m/nofp\libg.a(lib_a-fclose.o)
                              d:/programmer/gcc-arm-none-eabi/bin/../lib/gcc/arm-none-eabi/10.2.1/../../../../arm-none-eabi/lib/thumb/v7-m/nofp\libg.a(lib_a-findfp.o) (_fclose_r)
d:/programmer/gcc-arm-none-eabi/bin/../lib/gcc/arm-none-eabi/10.2.1/../../../../arm-none-eabi/lib/thumb/v7-m/nofp\libg.a(lib_a-fiprintf.o)
                              d:/programmer/gcc-arm-none-eabi/bin/../lib/gcc/arm-none-eabi/10.2.1/../../../../arm-none-eabi/lib/thumb/v7-m/nofp\libg.a(lib_a-assert.o) (fiprintf)
d:/programmer/gcc-arm-none-eabi/bin/../lib/gcc/arm-none-eabi/10.2.1/../../../../arm-none-eabi/lib/thumb/v7-m/nofp\libg.a(lib_a-fstatr.o)
                              d:/programmer/gcc-arm-none-eabi/bin/../lib/gcc/arm-none-eabi/10.2.1/../../../../arm-none-eabi/lib/thumb/v7-m/nofp\libg.a(lib_a-makebuf.o) (_fstat_r)
d:/programmer/gcc-arm-none-eabi/bin/../lib/gcc/arm-none-eabi/10.2.1/../../../../arm-none-eabi/lib/thumb/v7-m/nofp\libg.a(lib_a-isattyr.o)
                              d:/programmer/gcc-arm-none-eabi/bin/../lib/gcc/arm-none-eabi/10.2.1/../../../../arm-none-eabi/lib/thumb/v7-m/nofp\libg.a(lib_a-makebuf.o) (_isatty_r)
d:/programmer/gcc-arm-none-eabi/bin/../lib/gcc/arm-none-eabi/10.2.1/../../../../arm-none-eabi/lib/thumb/v7-m/nofp\libg.a(lib_a-locale.o)
                              d:/programmer/gcc-arm-none-eabi/bin/../lib/gcc/arm-none-eabi/10.2.1/../../../../arm-none-eabi/lib/thumb/v7-m/nofp\libg.a(lib_a-localeconv.o) (__global_locale)
d:/programmer/gcc-arm-none-eabi/bin/../lib/gcc/arm-none-eabi/10.2.1/../../../../arm-none-eabi/lib/thumb/v7-m/nofp\libg.a(lib_a-lseekr.o)
                              d:/programmer/gcc-arm-none-eabi/bin/../lib/gcc/arm-none-eabi/10.2.1/../../../../arm-none-eabi/lib/thumb/v7-m/nofp\libg.a(lib_a-stdio.o) (_lseek_r)
d:/programmer/gcc-arm-none-eabi/bin/../lib/gcc/arm-none-eabi/10.2.1/../../../../arm-none-eabi/lib/thumb/v7-m/nofp\libg.a(lib_a-mbtowc_r.o)
                              d:/programmer/gcc-arm-none-eabi/bin/../lib/gcc/arm-none-eabi/10.2.1/../../../../arm-none-eabi/lib/thumb/v7-m/nofp\libg.a(lib_a-locale.o) (__ascii_mbtowc)
d:/programmer/gcc-arm-none-eabi/bin/../lib/gcc/arm-none-eabi/10.2.1/../../../../arm-none-eabi/lib/thumb/v7-m/nofp\libg.a(lib_a-memmove.o)
                              d:/programmer/gcc-arm-none-eabi/bin/../lib/gcc/arm-none-eabi/10.2.1/../../../../arm-none-eabi/lib/thumb/v7-m/nofp\libg.a(lib_a-svfiprintf.o) (memmove)
d:/programmer/gcc-arm-none-eabi/bin/../lib/gcc/arm-none-eabi/10.2.1/../../../../arm-none-eabi/lib/thumb/v7-m/nofp\libg.a(lib_a-readr.o)
                              d:/programmer/gcc-arm-none-eabi/bin/../lib/gcc/arm-none-eabi/10.2.1/../../../../arm-none-eabi/lib/thumb/v7-m/nofp\libg.a(lib_a-stdio.o) (_read_r)
d:/programmer/gcc-arm-none-eabi/bin/../lib/gcc/arm-none-eabi/10.2.1/../../../../arm-none-eabi/lib/thumb/v7-m/nofp\libg.a(lib_a-reallocr.o)
                              d:/programmer/gcc-arm-none-eabi/bin/../lib/gcc/arm-none-eabi/10.2.1/../../../../arm-none-eabi/lib/thumb/v7-m/nofp\libg.a(lib_a-svfiprintf.o) (_realloc_r)
d:/programmer/gcc-arm-none-eabi/bin/../lib/gcc/arm-none-eabi/10.2.1/../../../../arm-none-eabi/lib/thumb/v7-m/nofp\libg.a(lib_a-reent.o)
                              d:/programmer/gcc-arm-none-eabi/bin/../lib/gcc/arm-none-eabi/10.2.1/../../../../arm-none-eabi/lib/thumb/v7-m/nofp\libg.a(lib_a-sbrkr.o) (errno)
d:/programmer/gcc-arm-none-eabi/bin/../lib/gcc/arm-none-eabi/10.2.1/../../../../arm-none-eabi/lib/thumb/v7-m/nofp\libg.a(lib_a-strcmp.o)
                              d:/programmer/gcc-arm-none-eabi/bin/../lib/gcc/arm-none-eabi/10.2.1/../../../../arm-none-eabi/lib/thumb/v7-m/nofp\libg.a(lib_a-locale.o) (strcmp)
d:/programmer/gcc-arm-none-eabi/bin/../lib/gcc/arm-none-eabi/10.2.1/../../../../arm-none-eabi/lib/thumb/v7-m/nofp\libg.a(lib_a-vfiprintf.o)
                              d:/programmer/gcc-arm-none-eabi/bin/../lib/gcc/arm-none-eabi/10.2.1/../../../../arm-none-eabi/lib/thumb/v7-m/nofp\libg.a(lib_a-fiprintf.o) (_vfiprintf_r)
d:/programmer/gcc-arm-none-eabi/bin/../lib/gcc/arm-none-eabi/10.2.1/../../../../arm-none-eabi/lib/thumb/v7-m/nofp\libg.a(lib_a-wctomb_r.o)
                              d:/programmer/gcc-arm-none-eabi/bin/../lib/gcc/arm-none-eabi/10.2.1/../../../../arm-none-eabi/lib/thumb/v7-m/nofp\libg.a(lib_a-locale.o) (__ascii_wctomb)
d:/programmer/gcc-arm-none-eabi/bin/../lib/gcc/arm-none-eabi/10.2.1/../../../../arm-none-eabi/lib/thumb/v7-m/nofp\libg.a(lib_a-wsetup.o)
                              d:/programmer/gcc-arm-none-eabi/bin/../lib/gcc/arm-none-eabi/10.2.1/../../../../arm-none-eabi/lib/thumb/v7-m/nofp\libg.a(lib_a-vfiprintf.o) (__swsetup_r)
d:/programmer/gcc-arm-none-eabi/bin/../lib/gcc/arm-none-eabi/10.2.1/../../../../arm-none-eabi/lib/thumb/v7-m/nofp\libg.a(lib_a-abort.o)
                              d:/programmer/gcc-arm-none-eabi/bin/../lib/gcc/arm-none-eabi/10.2.1/../../../../arm-none-eabi/lib/thumb/v7-m/nofp\libg.a(lib_a-assert.o) (abort)
d:/programmer/gcc-arm-none-eabi/bin/../lib/gcc/arm-none-eabi/10.2.1/../../../../arm-none-eabi/lib/thumb/v7-m/nofp\libg.a(lib_a-ctype_.o)
                              d:/programmer/gcc-arm-none-eabi/bin/../lib/gcc/arm-none-eabi/10.2.1/../../../../arm-none-eabi/lib/thumb/v7-m/nofp\libg.a(lib_a-locale.o) (_ctype_)
d:/programmer/gcc-arm-none-eabi/bin/../lib/gcc/arm-none-eabi/10.2.1/../../../../arm-none-eabi/lib/thumb/v7-m/nofp\libg.a(lib_a-fputwc.o)
                              d:/programmer/gcc-arm-none-eabi/bin/../lib/gcc/arm-none-eabi/10.2.1/../../../../arm-none-eabi/lib/thumb/v7-m/nofp\libg.a(lib_a-vfiprintf.o) (_fputwc_r)
d:/programmer/gcc-arm-none-eabi/bin/../lib/gcc/arm-none-eabi/10.2.1/../../../../arm-none-eabi/lib/thumb/v7-m/nofp\libg.a(lib_a-fvwrite.o)
                              d:/programmer/gcc-arm-none-eabi/bin/../lib/gcc/arm-none-eabi/10.2.1/../../../../arm-none-eabi/lib/thumb/v7-m/nofp\libg.a(lib_a-vfiprintf.o) (__sfvwrite_r)
d:/programmer/gcc-arm-none-eabi/bin/../lib/gcc/arm-none-eabi/10.2.1/../../../../arm-none-eabi/lib/thumb/v7-m/nofp\libg.a(lib_a-signal.o)
                              d:/programmer/gcc-arm-none-eabi/bin/../lib/gcc/arm-none-eabi/10.2.1/../../../../arm-none-eabi/lib/thumb/v7-m/nofp\libg.a(lib_a-abort.o) (raise)
d:/programmer/gcc-arm-none-eabi/bin/../lib/gcc/arm-none-eabi/10.2.1/../../../../arm-none-eabi/lib/thumb/v7-m/nofp\libg.a(lib_a-signalr.o)
                              d:/programmer/gcc-arm-none-eabi/bin/../lib/gcc/arm-none-eabi/10.2.1/../../../../arm-none-eabi/lib/thumb/v7-m/nofp\libg.a(lib_a-signal.o) (_kill_r)
d:/programmer/gcc-arm-none-eabi/bin/../lib/gcc/arm-none-eabi/10.2.1/../../../../arm-none-eabi/lib/thumb/v7-m/nofp\libg.a(lib_a-wbuf.o)
                              d:/programmer/gcc-arm-none-eabi/bin/../lib/gcc/arm-none-eabi/10.2.1/../../../../arm-none-eabi/lib/thumb/v7-m/nofp\libg.a(lib_a-fputwc.o) (__swbuf_r)
d:/programmer/gcc-arm-none-eabi/bin/../lib/gcc/arm-none-eabi/10.2.1/../../../../arm-none-eabi/lib/thumb/v7-m/nofp\libg.a(lib_a-wcrtomb.o)
                              d:/programmer/gcc-arm-none-eabi/bin/../lib/gcc/arm-none-eabi/10.2.1/../../../../arm-none-eabi/lib/thumb/v7-m/nofp\libg.a(lib_a-fputwc.o) (_wcrtomb_r)
d:/programmer/gcc-arm-none-eabi/bin/../lib/gcc/arm-none-eabi/10.2.1/thumb/v7-m/nofp\libgcc.a(_arm_unorddf2.o)
                              d:/programmer/gcc-arm-none-eabi/bin/../lib/gcc/arm-none-eabi/10.2.1/../../../../arm-none-eabi/lib/thumb/v7-m/nofp\libg.a(lib_a-svfprintf.o) (__aeabi_dcmpun)
d:/programmer/gcc-arm-none-eabi/bin/../lib/gcc/arm-none-eabi/10.2.1/thumb/v7-m/nofp\libgcc.a(_aeabi_uldivmod.o)
                              d:/programmer/gcc-arm-none-eabi/bin/../lib/gcc/arm-none-eabi/10.2.1/../../../../arm-none-eabi/lib/thumb/v7-m/nofp\libg.a(lib_a-svfprintf.o) (__aeabi_uldivmod)
d:/programmer/gcc-arm-none-eabi/bin/../lib/gcc/arm-none-eabi/10.2.1/thumb/v7-m/nofp\libgcc.a(_udivmoddi4.o)
                              d:/programmer/gcc-arm-none-eabi/bin/../lib/gcc/arm-none-eabi/10.2.1/thumb/v7-m/nofp\libgcc.a(_aeabi_uldivmod.o) (__udivmoddi4)
d:/programmer/gcc-arm-none-eabi/bin/../lib/gcc/arm-none-eabi/10.2.1/thumb/v7-m/nofp\libgcc.a(_dvmd_tls.o)
                              d:/programmer/gcc-arm-none-eabi/bin/../lib/gcc/arm-none-eabi/10.2.1/thumb/v7-m/nofp\libgcc.a(_aeabi_uldivmod.o) (__aeabi_ldiv0)
d:/programmer/gcc-arm-none-eabi/bin/../lib/gcc/arm-none-eabi/10.2.1/../../../../arm-none-eabi/lib/thumb/v7-m/nofp\libm.a(lib_a-s_atan.o)
                              CMakeFiles/ban.elf.dir/lib/carcontrol/control.c.obj (atan)
d:/programmer/gcc-arm-none-eabi/bin/../lib/gcc/arm-none-eabi/10.2.1/../../../../arm-none-eabi/lib/thumb/v7-m/nofp\libm.a(lib_a-s_fabs.o)
                              d:/programmer/gcc-arm-none-eabi/bin/../lib/gcc/arm-none-eabi/10.2.1/../../../../arm-none-eabi/lib/thumb/v7-m/nofp\libm.a(lib_a-s_atan.o) (fabs)
d:/programmer/gcc-arm-none-eabi/bin/../lib/gcc/arm-none-eabi/10.2.1/../../../../arm-none-eabi/lib/thumb/v7-m/nofp\libm.a(lib_a-w_atan2.o)
                              CMakeFiles/ban.elf.dir/lib/carcontrol/control.c.obj (atan2)
d:/programmer/gcc-arm-none-eabi/bin/../lib/gcc/arm-none-eabi/10.2.1/../../../../arm-none-eabi/lib/thumb/v7-m/nofp\libm.a(lib_a-w_sqrt.o)
                              CMakeFiles/ban.elf.dir/lib/carcontrol/control.c.obj (sqrt)
d:/programmer/gcc-arm-none-eabi/bin/../lib/gcc/arm-none-eabi/10.2.1/../../../../arm-none-eabi/lib/thumb/v7-m/nofp\libm.a(lib_a-e_atan2.o)
                              d:/programmer/gcc-arm-none-eabi/bin/../lib/gcc/arm-none-eabi/10.2.1/../../../../arm-none-eabi/lib/thumb/v7-m/nofp\libm.a(lib_a-w_atan2.o) (__ieee754_atan2)
d:/programmer/gcc-arm-none-eabi/bin/../lib/gcc/arm-none-eabi/10.2.1/../../../../arm-none-eabi/lib/thumb/v7-m/nofp\libm.a(lib_a-e_sqrt.o)
                              d:/programmer/gcc-arm-none-eabi/bin/../lib/gcc/arm-none-eabi/10.2.1/../../../../arm-none-eabi/lib/thumb/v7-m/nofp\libm.a(lib_a-w_sqrt.o) (__ieee754_sqrt)
d:/programmer/gcc-arm-none-eabi/bin/../lib/gcc/arm-none-eabi/10.2.1/../../../../arm-none-eabi/lib/thumb/v7-m/nofp\libm.a(lib_a-s_lib_ver.o)
                              d:/programmer/gcc-arm-none-eabi/bin/../lib/gcc/arm-none-eabi/10.2.1/../../../../arm-none-eabi/lib/thumb/v7-m/nofp\libm.a(lib_a-w_sqrt.o) (__fdlib_version)

Discarded input sections

 .text          0x00000000        0x0 d:/programmer/gcc-arm-none-eabi/bin/../lib/gcc/arm-none-eabi/10.2.1/thumb/v7-m/nofp/crti.o
 .data          0x00000000        0x0 d:/programmer/gcc-arm-none-eabi/bin/../lib/gcc/arm-none-eabi/10.2.1/thumb/v7-m/nofp/crti.o
 .bss           0x00000000        0x0 d:/programmer/gcc-arm-none-eabi/bin/../lib/gcc/arm-none-eabi/10.2.1/thumb/v7-m/nofp/crti.o
 .data          0x00000000        0x4 d:/programmer/gcc-arm-none-eabi/bin/../lib/gcc/arm-none-eabi/10.2.1/thumb/v7-m/nofp/crtbegin.o
 .rodata        0x00000000       0x24 d:/programmer/gcc-arm-none-eabi/bin/../lib/gcc/arm-none-eabi/10.2.1/thumb/v7-m/nofp/crtbegin.o
 .text          0x00000000       0x7c d:/programmer/gcc-arm-none-eabi/bin/../lib/gcc/arm-none-eabi/10.2.1/../../../../arm-none-eabi/lib/thumb/v7-m/nofp/crt0.o
 .data          0x00000000        0x0 d:/programmer/gcc-arm-none-eabi/bin/../lib/gcc/arm-none-eabi/10.2.1/../../../../arm-none-eabi/lib/thumb/v7-m/nofp/crt0.o
 .bss           0x00000000        0x0 d:/programmer/gcc-arm-none-eabi/bin/../lib/gcc/arm-none-eabi/10.2.1/../../../../arm-none-eabi/lib/thumb/v7-m/nofp/crt0.o
 .ARM.extab     0x00000000        0x0 d:/programmer/gcc-arm-none-eabi/bin/../lib/gcc/arm-none-eabi/10.2.1/../../../../arm-none-eabi/lib/thumb/v7-m/nofp/crt0.o
 .ARM.exidx     0x00000000       0x10 d:/programmer/gcc-arm-none-eabi/bin/../lib/gcc/arm-none-eabi/10.2.1/../../../../arm-none-eabi/lib/thumb/v7-m/nofp/crt0.o
 .ARM.attributes
                0x00000000       0x1b d:/programmer/gcc-arm-none-eabi/bin/../lib/gcc/arm-none-eabi/10.2.1/../../../../arm-none-eabi/lib/thumb/v7-m/nofp/crt0.o
 .text          0x00000000        0x0 CMakeFiles/ban.elf.dir/Core/Src/gpio.c.obj
 .data          0x00000000        0x0 CMakeFiles/ban.elf.dir/Core/Src/gpio.c.obj
 .bss           0x00000000        0x0 CMakeFiles/ban.elf.dir/Core/Src/gpio.c.obj
 .text          0x00000000        0x0 CMakeFiles/ban.elf.dir/Core/Src/i2c.c.obj
 .data          0x00000000        0x0 CMakeFiles/ban.elf.dir/Core/Src/i2c.c.obj
 .bss           0x00000000        0x0 CMakeFiles/ban.elf.dir/Core/Src/i2c.c.obj
Memory Configuration

Name             Origin             Length             Attributes
RAM              0x20000000         0x00005000         xrw
FLASH            0x08000000         0x00010000         xr
*default*        0x00000000         0xffffffff

Linker script and memory map

LOAD d:/programmer/gcc-arm-none-eabi/bin/../lib/gcc/arm-none-eabi/10.2.1/thumb/v7-m/nofp/crti.o
LOAD d:/programmer/gcc-arm-none-eabi/bin/../lib/gcc/arm-none-eabi/10.2.1/thumb/v7-m/nofp/crtbegin.o
LOAD d:/programmer/gcc-arm-none-eabi/bin/../lib/gcc/arm-none-eabi/10.2.1/../../../../arm-none-eabi/lib/thumb/v7-m/nofp/crt0.o
LOAD CMakeFiles/ban.elf.dir/Core/Src/gpio.c.obj
LOAD CMakeFiles/ban.elf.dir/Core/Src/i2c.c.obj
LOAD CMakeFiles/ban.elf.dir/Core/Src/main.c.obj
LOAD CMakeFiles/ban.elf.dir/Core/Src/stm32f1xx_hal_msp.c.obj
LOAD CMakeFiles/ban.elf.dir/Core/Src/stm32f1xx_it.c.obj
LOAD CMakeFiles/ban.elf.dir/Core/Src/syscalls.c.obj
LOAD CMakeFiles/ban.elf.dir/Core/Src/system_stm32f1xx.c.obj
LOAD CMakeFiles/ban.elf.dir/Core/Src/tim.c.obj
LOAD CMakeFiles/ban.elf.dir/Core/Src/usart.c.obj
LOAD CMakeFiles/ban.elf.dir/Drivers/STM32F1xx_HAL_Driver/Src/stm32f1xx_hal.c.obj
LOAD CMakeFiles/ban.elf.dir/Drivers/STM32F1xx_HAL_Driver/Src/stm32f1xx_hal_cortex.c.obj
LOAD CMakeFiles/ban.elf.dir/Drivers/STM32F1xx_HAL_Driver/Src/stm32f1xx_hal_dma.c.obj
LOAD CMakeFiles/ban.elf.dir/Drivers/STM32F1xx_HAL_Driver/Src/stm32f1xx_hal_exti.c.obj
LOAD CMakeFiles/ban.elf.dir/Drivers/STM32F1xx_HAL_Driver/Src/stm32f1xx_hal_flash.c.obj
LOAD CMakeFiles/ban.elf.dir/Drivers/STM32F1xx_HAL_Driver/Src/stm32f1xx_hal_flash_ex.c.obj
LOAD CMakeFiles/ban.elf.dir/Drivers/STM32F1xx_HAL_Driver/Src/stm32f1xx_hal_gpio.c.obj
LOAD CMakeFiles/ban.elf.dir/Drivers/STM32F1xx_HAL_Driver/Src/stm32f1xx_hal_gpio_ex.c.obj
LOAD CMakeFiles/ban.elf.dir/Drivers/STM32F1xx_HAL_Driver/Src/stm32f1xx_hal_i2c.c.obj
LOAD CMakeFiles/ban.elf.dir/Drivers/STM32F1xx_HAL_Driver/Src/stm32f1xx_hal_pwr.c.obj
LOAD CMakeFiles/ban.elf.dir/Drivers/STM32F1xx_HAL_Driver/Src/stm32f1xx_hal_rcc.c.obj
LOAD CMakeFiles/ban.elf.dir/Drivers/STM32F1xx_HAL_Driver/Src/stm32f1xx_hal_rcc_ex.c.obj
LOAD CMakeFiles/ban.elf.dir/Drivers/STM32F1xx_HAL_Driver/Src/stm32f1xx_hal_tim.c.obj
LOAD CMakeFiles/ban.elf.dir/Drivers/STM32F1xx_HAL_Driver/Src/stm32f1xx_hal_tim_ex.c.obj
LOAD CMakeFiles/ban.elf.dir/Drivers/STM32F1xx_HAL_Driver/Src/stm32f1xx_hal_uart.c.obj
LOAD CMakeFiles/ban.elf.dir/lib/carcontrol/control.c.obj
LOAD CMakeFiles/ban.elf.dir/lib/mpu6050/mpu6050.c.obj
LOAD CMakeFiles/ban.elf.dir/lib/mpu6050/tm_stm32_gpio.c.obj
LOAD CMakeFiles/ban.elf.dir/lib/mpu6050/tm_stm32_i2c.c.obj
LOAD CMakeFiles/ban.elf.dir/lib/oled/fonts.c.obj
LOAD CMakeFiles/ban.elf.dir/lib/oled/ssd1306.c.obj
LOAD CMakeFiles/ban.elf.dir/lib/oled/test.c.obj
LOAD CMakeFiles/ban.elf.dir/lib/print/retarget.c.obj
LOAD CMakeFiles/ban.elf.dir/startup/startup_stm32f103xb.s.obj
START GROUP
LOAD d:/programmer/gcc-arm-none-eabi/bin/../lib/gcc/arm-none-eabi/10.2.1/thumb/v7-m/nofp\libgcc.a
LOAD d:/programmer/gcc-arm-none-eabi/bin/../lib/gcc/arm-none-eabi/10.2.1/../../../../arm-none-eabi/lib/thumb/v7-m/nofp\libg.a
LOAD d:/programmer/gcc-arm-none-eabi/bin/../lib/gcc/arm-none-eabi/10.2.1/../../../../arm-none-eabi/lib/thumb/v7-m/nofp\libc.a
END GROUP
LOAD d:/programmer/gcc-arm-none-eabi/bin/../lib/gcc/arm-none-eabi/10.2.1/thumb/v7-m/nofp/crtend.o
LOAD d:/programmer/gcc-arm-none-eabi/bin/../lib/gcc/arm-none-eabi/10.2.1/thumb/v7-m/nofp/crtn.o
                0x20005000                _estack = 0x20005000
                0x00000200                _Min_Heap_Size = 0x200
                0x00000400                _Min_Stack_Size = 0x400

.isr_vector     0x08000000      0x10c
                0x08000000                . = ALIGN (0x4)
 *(.isr_vector)
 .isr_vector    0x08000000      0x10c CMakeFiles/ban.elf.dir/startup/startup_stm32f103xb.s.obj
                0x08000000                g_pfnVectors
                0x0800010c                . = ALIGN (0x4)

.text           0x08000110     0xb488
                0x08000110                . = ALIGN (0x4)
 *(.text)
 .text          0x08000110       0x40 d:/programmer/gcc-arm-none-eabi/bin/../lib/gcc/arm-none-eabi/10.2.1/thumb/v7-m/nofp/crtbegin.o
 .text          0x08000150      0x378 d:/programmer/gcc-arm-none-eabi/bin/../lib/gcc/arm-none-eabi/10.2.1/thumb/v7-m/nofp\libgcc.a(_arm_addsubdf3.o)
                0x08000150                __aeabi_drsub
                0x08000158                __aeabi_dsub
                0x08000158                __subdf3
                0x0800015c                __aeabi_dadd
                0x0800015c                __adddf3
                0x080003d4                __floatunsidf
                0x080003d4                __aeabi_ui2d
                0x080003f4                __floatsidf
                0x080003f4                __aeabi_i2d
                0x08000418                __aeabi_f2d
                0x08000418                __extendsfdf2
                0x0800045c                __floatundidf
                0x0800045c                __aeabi_ul2d
                0x0800046c                __floatdidf
                0x0800046c                __aeabi_l2d
 .text          0x080004c8      0x424 d:/programmer/gcc-arm-none-eabi/bin/../lib/gcc/arm-none-eabi/10.2.1/thumb/v7-m/nofp\libgcc.a(_arm_muldivdf3.o)
                0x080004c8                __aeabi_dmul
                0x080004c8                __muldf3
                0x0800071c                __divdf3
                0x0800071c                __aeabi_ddiv
 .text          0x080008ec      0x110 d:/programmer/gcc-arm-none-eabi/bin/../lib/gcc/arm-none-eabi/10.2.1/thumb/v7-m/nofp\libgcc.a(_arm_cmpdf2.o)
                0x080008ec                __gtdf2
                0x080008ec                __gedf2
                0x080008f4                __ltdf2
                0x080008f4                __ledf2
                0x080008fc                __nedf2
                0x080008fc                __eqdf2
                0x080008fc                __cmpdf2
                0x08000978                __aeabi_cdrcmple
                0x08000988                __aeabi_cdcmpeq
                0x08000988                __aeabi_cdcmple
                0x08000998                __aeabi_dcmpeq
                0x080009ac                __aeabi_dcmplt
                0x080009c0                __aeabi_dcmple
                0x080009d4                __aeabi_dcmpge
                0x080009e8                __aeabi_dcmpgt
 .text          0x080009fc       0x50 d:/programmer/gcc-arm-none-eabi/bin/../lib/gcc/arm-none-eabi/10.2.1/thumb/v7-m/nofp\libgcc.a(_arm_fixdfsi.o)
                0x080009fc                __aeabi_d2iz
                0x080009fc                __fixdfsi
 .text          0x08000a4c       0xa0 d:/programmer/gcc-arm-none-eabi/bin/../lib/gcc/arm-none-eabi/10.2.1/thumb/v7-m/nofp\libgcc.a(_arm_truncdfsf2.o)
                0x08000a4c                __truncdfsf2
                0x08000a4c                __aeabi_d2f
 .text          0x08000aec      0x21c d:/programmer/gcc-arm-none-eabi/bin/../lib/gcc/arm-none-eabi/10.2.1/thumb/v7-m/nofp\libgcc.a(_arm_addsubsf3.o)
                0x08000aec                __aeabi_frsub
                0x08000af4                __subsf3
                0x08000af4                __aeabi_fsub
                0x08000af8                __aeabi_fadd
                0x08000af8                __addsf3
                0x08000c58                __aeabi_ui2f
                0x08000c58                __floatunsisf
                0x08000c60                __aeabi_i2f
                0x08000c60                __floatsisf
                0x08000c7c                __aeabi_ul2f
                0x08000c7c                __floatundisf
                0x08000c8c                __aeabi_l2f
                0x08000c8c                __floatdisf
 .text          0x08000d08      0x2a0 d:/programmer/gcc-arm-none-eabi/bin/../lib/gcc/arm-none-eabi/10.2.1/thumb/v7-m/nofp\libgcc.a(_arm_muldivsf3.o)
                0x08000d08                __mulsf3
                0x08000d08                __aeabi_fmul
                0x08000e70                __aeabi_fdiv
                0x08000e70                __divsf3
 .text          0x08000fa8       0xec d:/programmer/gcc-arm-none-eabi/bin/../lib/gcc/arm-none-eabi/10.2.1/thumb/v7-m/nofp\libgcc.a(_arm_cmpsf2.o)
                0x08000fa8                __gesf2
                0x08000fa8                __gtsf2
                0x08000fb0                __lesf2
                0x08000fb0                __ltsf2
                0x08000fb8                __nesf2
                0x08000fb8                __eqsf2
                0x08000fb8                __cmpsf2
                0x08001018                __aeabi_cfrcmple
                0x08001020                __aeabi_cfcmpeq
                0x08001020                __aeabi_cfcmple
                0x08001030                __aeabi_fcmpeq
                0x08001044                __aeabi_fcmplt
                0x08001058                __aeabi_fcmple
                0x0800106c                __aeabi_fcmpge
                0x08001080                __aeabi_fcmpgt
 .text          0x08001094       0x4c d:/programmer/gcc-arm-none-eabi/bin/../lib/gcc/arm-none-eabi/10.2.1/thumb/v7-m/nofp\libgcc.a(_arm_fixsfsi.o)
                0x08001094                __aeabi_f2iz
                0x08001094                __fixsfsi
 .text          0x080010e0       0xec d:/programmer/gcc-arm-none-eabi/bin/../lib/gcc/arm-none-eabi/10.2.1/../../../../arm-none-eabi/lib/thumb/v7-m/nofp\libg.a(lib_a-memcpy.o)
                0x080010e0                memcpy
 .text          0x080011cc       0x2c d:/programmer/gcc-arm-none-eabi/bin/../lib/gcc/arm-none-eabi/10.2.1/thumb/v7-m/nofp\libgcc.a(_arm_unorddf2.o)
                0x080011cc                __unorddf2
                0x080011cc                __aeabi_dcmpun
 .text          0x080011f8       0x30 d:/programmer/gcc-arm-none-eabi/bin/../lib/gcc/arm-none-eabi/10.2.1/thumb/v7-m/nofp\libgcc.a(_aeabi_uldivmod.o)
                0x080011f8                __aeabi_uldivmod
 .text          0x08001228      0x2d4 d:/programmer/gcc-arm-none-eabi/bin/../lib/gcc/arm-none-eabi/10.2.1/thumb/v7-m/nofp\libgcc.a(_udivmoddi4.o)
                0x08001228                __udivmoddi4
 .text          0x080014fc        0x4 d:/programmer/gcc-arm-none-eabi/bin/../lib/gcc/arm-none-eabi/10.2.1/thumb/v7-m/nofp\libgcc.a(_dvmd_tls.o)
                0x080014fc                __aeabi_idiv0
                0x080014fc                __aeabi_ldiv0
 *(.text*)
 .text.MX_GPIO_Init
                0x08001500       0xa4 CMakeFiles/ban.elf.dir/Core/Src/gpio.c.obj
                0x08001500                MX_GPIO_Init
 .text.MX_I2C1_Init
                0x080015a4       0x3c CMakeFiles/ban.elf.dir/Core/Src/i2c.c.obj
                0x080015a4                MX_I2C1_Init
 .text.MX_I2C2_Init
                0x080015e0       0x3c CMakeFiles/ban.elf.dir/Core/Src/i2c.c.obj
                0x080015e0                MX_I2C2_Init
 .text.HAL_I2C_MspInit
                0x0800161c       0xc0 CMakeFiles/ban.elf.dir/Core/Src/i2c.c.obj
                0x0800161c                HAL_I2C_MspInit
 .text.OLED_SHOW_GY
                0x080016dc       0x44 CMakeFiles/ban.elf.dir/Core/Src/main.c.obj
                0x080016dc                OLED_SHOW_GY
 .text.OLED_SHOW_arg
                0x08001720       0xc4 CMakeFiles/ban.elf.dir/Core/Src/main.c.obj
                0x08001720                OLED_SHOW_arg
 .text.Error_Handler
                0x080017e4        0x4 CMakeFiles/ban.elf.dir/Core/Src/main.c.obj
                0x080017e4                Error_Handler
 .text.SystemClock_Config
                0x080017e8       0x64 CMakeFiles/ban.elf.dir/Core/Src/main.c.obj
                0x080017e8                SystemClock_Config
 .text.main     0x0800184c      0x160 CMakeFiles/ban.elf.dir/Core/Src/main.c.obj
                0x0800184c                main
 .text.HAL_MspInit
                0x080019ac       0x4c CMakeFiles/ban.elf.dir/Core/Src/stm32f1xx_hal_msp.c.obj
                0x080019ac                HAL_MspInit
 .text.NMI_Handler
                0x080019f8        0x2 CMakeFiles/ban.elf.dir/Core/Src/stm32f1xx_it.c.obj
                0x080019f8                NMI_Handler
 .text.HardFault_Handler
                0x080019fa        0x2 CMakeFiles/ban.elf.dir/Core/Src/stm32f1xx_it.c.obj
                0x080019fa                HardFault_Handler
 .text.MemManage_Handler
                0x080019fc        0x2 CMakeFiles/ban.elf.dir/Core/Src/stm32f1xx_it.c.obj
                0x080019fc                MemManage_Handler
 .text.BusFault_Handler
                0x080019fe        0x2 CMakeFiles/ban.elf.dir/Core/Src/stm32f1xx_it.c.obj
                0x080019fe                BusFault_Handler
 .text.UsageFault_Handler
                0x08001a00        0x2 CMakeFiles/ban.elf.dir/Core/Src/stm32f1xx_it.c.obj
                0x08001a00                UsageFault_Handler
 .text.SVC_Handler
                0x08001a02        0x2 CMakeFiles/ban.elf.dir/Core/Src/stm32f1xx_it.c.obj
                0x08001a02                SVC_Handler
 .text.DebugMon_Handler
                0x08001a04        0x2 CMakeFiles/ban.elf.dir/Core/Src/stm32f1xx_it.c.obj
                0x08001a04                DebugMon_Handler
 .text.PendSV_Handler
                0x08001a06        0x2 CMakeFiles/ban.elf.dir/Core/Src/stm32f1xx_it.c.obj
                0x08001a06                PendSV_Handler
 .text.SysTick_Handler
                0x08001a08        0x8 CMakeFiles/ban.elf.dir/Core/Src/stm32f1xx_it.c.obj
                0x08001a08                SysTick_Handler
 .text.EXTI15_10_IRQHandler
                0x08001a10        0xc CMakeFiles/ban.elf.dir/Core/Src/stm32f1xx_it.c.obj
                0x08001a10                EXTI15_10_IRQHandler
 .text._getpid  0x08001a1c        0x4 CMakeFiles/ban.elf.dir/Core/Src/syscalls.c.obj
                0x08001a1c                _getpid
 .text._kill    0x08001a20       0x10 CMakeFiles/ban.elf.dir/Core/Src/syscalls.c.obj
                0x08001a20                _kill
 .text._exit    0x08001a30        0xc CMakeFiles/ban.elf.dir/Core/Src/syscalls.c.obj
                0x08001a30                _exit
 .text._sbrk    0x08001a3c       0x3c CMakeFiles/ban.elf.dir/Core/Src/syscalls.c.obj
                0x08001a3c                _sbrk
 .text.SystemInit
                0x08001a78        0x2 CMakeFiles/ban.elf.dir/Core/Src/system_stm32f1xx.c.obj
                0x08001a78                SystemInit
 *fill*         0x08001a7a        0x2 
 .text.MX_TIM2_Init
                0x08001a7c       0x68 CMakeFiles/ban.elf.dir/Core/Src/tim.c.obj
                0x08001a7c                MX_TIM2_Init
 .text.MX_TIM4_Init
                0x08001ae4       0x6c CMakeFiles/ban.elf.dir/Core/Src/tim.c.obj
                0x08001ae4                MX_TIM4_Init
 .text.HAL_TIM_Base_MspInit
                0x08001b50       0x2c CMakeFiles/ban.elf.dir/Core/Src/tim.c.obj
                0x08001b50                HAL_TIM_Base_MspInit
 .text.HAL_TIM_Encoder_MspInit
                0x08001b7c       0x9c CMakeFiles/ban.elf.dir/Core/Src/tim.c.obj
                0x08001b7c                HAL_TIM_Encoder_MspInit
 .text.HAL_TIM_MspPostInit
                0x08001c18       0x50 CMakeFiles/ban.elf.dir/Core/Src/tim.c.obj
                0x08001c18                HAL_TIM_MspPostInit
 .text.MX_TIM1_Init
                0x08001c68      0x11c CMakeFiles/ban.elf.dir/Core/Src/tim.c.obj
                0x08001c68                MX_TIM1_Init
 .text.MX_USART2_UART_Init
                0x08001d84       0x34 CMakeFiles/ban.elf.dir/Core/Src/usart.c.obj
                0x08001d84                MX_USART2_UART_Init
 .text.HAL_UART_MspInit
                0x08001db8       0x74 CMakeFiles/ban.elf.dir/Core/Src/usart.c.obj
                0x08001db8                HAL_UART_MspInit
 .text.HAL_InitTick
                0x08001e2c       0x4c CMakeFiles/ban.elf.dir/Drivers/STM32F1xx_HAL_Driver/Src/stm32f1xx_hal.c.obj
                0x08001e2c                HAL_InitTick
 .text.HAL_Init
                0x08001e78       0x24 CMakeFiles/ban.elf.dir/Drivers/STM32F1xx_HAL_Driver/Src/stm32f1xx_hal.c.obj
                0x08001e78                HAL_Init
 .text.HAL_IncTick
                0x08001e9c       0x18 CMakeFiles/ban.elf.dir/Drivers/STM32F1xx_HAL_Driver/Src/stm32f1xx_hal.c.obj
                0x08001e9c                HAL_IncTick
 .text.HAL_GetTick
                0x08001eb4        0xc CMakeFiles/ban.elf.dir/Drivers/STM32F1xx_HAL_Driver/Src/stm32f1xx_hal.c.obj
                0x08001eb4                HAL_GetTick
 .text.HAL_NVIC_SetPriorityGrouping
                0x08001ec0       0x24 CMakeFiles/ban.elf.dir/Drivers/STM32F1xx_HAL_Driver/Src/stm32f1xx_hal_cortex.c.obj
                0x08001ec0                HAL_NVIC_SetPriorityGrouping
 .text.HAL_NVIC_SetPriority
                0x08001ee4       0x70 CMakeFiles/ban.elf.dir/Drivers/STM32F1xx_HAL_Driver/Src/stm32f1xx_hal_cortex.c.obj
                0x08001ee4                HAL_NVIC_SetPriority
 .text.HAL_NVIC_EnableIRQ
                0x08001f54       0x1c CMakeFiles/ban.elf.dir/Drivers/STM32F1xx_HAL_Driver/Src/stm32f1xx_hal_cortex.c.obj
                0x08001f54                HAL_NVIC_EnableIRQ
 .text.HAL_SYSTICK_Config
                0x08001f70       0x28 CMakeFiles/ban.elf.dir/Drivers/STM32F1xx_HAL_Driver/Src/stm32f1xx_hal_cortex.c.obj
                0x08001f70                HAL_SYSTICK_Config
 .text.HAL_GPIO_Init
                0x08001f98      0x224 CMakeFiles/ban.elf.dir/Drivers/STM32F1xx_HAL_Driver/Src/stm32f1xx_hal_gpio.c.obj
                0x08001f98                HAL_GPIO_Init
 .text.HAL_GPIO_WritePin
                0x080021bc        0xc CMakeFiles/ban.elf.dir/Drivers/STM32F1xx_HAL_Driver/Src/stm32f1xx_hal_gpio.c.obj
                0x080021bc                HAL_GPIO_WritePin
 .text.HAL_GPIO_EXTI_IRQHandler
                0x080021c8       0x1c CMakeFiles/ban.elf.dir/Drivers/STM32F1xx_HAL_Driver/Src/stm32f1xx_hal_gpio.c.obj
                0x080021c8                HAL_GPIO_EXTI_IRQHandler
 .text.I2C_IsAcknowledgeFailed
                0x080021e4       0x32 CMakeFiles/ban.elf.dir/Drivers/STM32F1xx_HAL_Driver/Src/stm32f1xx_hal_i2c.c.obj
 .text.I2C_WaitOnFlagUntilTimeout
                0x08002216       0x7c CMakeFiles/ban.elf.dir/Drivers/STM32F1xx_HAL_Driver/Src/stm32f1xx_hal_i2c.c.obj
 .text.I2C_WaitOnMasterAddressFlagUntilTimeout
                0x08002292       0xaa CMakeFiles/ban.elf.dir/Drivers/STM32F1xx_HAL_Driver/Src/stm32f1xx_hal_i2c.c.obj
 .text.I2C_MasterRequestWrite
                0x0800233c       0xb4 CMakeFiles/ban.elf.dir/Drivers/STM32F1xx_HAL_Driver/Src/stm32f1xx_hal_i2c.c.obj
 .text.I2C_MasterRequestRead
                0x080023f0      0x120 CMakeFiles/ban.elf.dir/Drivers/STM32F1xx_HAL_Driver/Src/stm32f1xx_hal_i2c.c.obj
 .text.I2C_WaitOnTXEFlagUntilTimeout
                0x08002510       0x54 CMakeFiles/ban.elf.dir/Drivers/STM32F1xx_HAL_Driver/Src/stm32f1xx_hal_i2c.c.obj
 .text.I2C_WaitOnBTFFlagUntilTimeout
                0x08002564       0x54 CMakeFiles/ban.elf.dir/Drivers/STM32F1xx_HAL_Driver/Src/stm32f1xx_hal_i2c.c.obj
 .text.I2C_WaitOnRXNEFlagUntilTimeout
                0x080025b8       0x6a CMakeFiles/ban.elf.dir/Drivers/STM32F1xx_HAL_Driver/Src/stm32f1xx_hal_i2c.c.obj
 *fill*         0x08002622        0x2 
 .text.HAL_I2C_Init
                0x08002624      0x1bc CMakeFiles/ban.elf.dir/Drivers/STM32F1xx_HAL_Driver/Src/stm32f1xx_hal_i2c.c.obj
                0x08002624                HAL_I2C_Init
 .text.HAL_I2C_Master_Transmit
                0x080027e0      0x178 CMakeFiles/ban.elf.dir/Drivers/STM32F1xx_HAL_Driver/Src/stm32f1xx_hal_i2c.c.obj
                0x080027e0                HAL_I2C_Master_Transmit
 .text.HAL_I2C_Master_Receive
                0x08002958      0x344 CMakeFiles/ban.elf.dir/Drivers/STM32F1xx_HAL_Driver/Src/stm32f1xx_hal_i2c.c.obj
                0x08002958                HAL_I2C_Master_Receive
 .text.HAL_I2C_IsDeviceReady
                0x08002c9c      0x194 CMakeFiles/ban.elf.dir/Drivers/STM32F1xx_HAL_Driver/Src/stm32f1xx_hal_i2c.c.obj
                0x08002c9c                HAL_I2C_IsDeviceReady
 .text.HAL_I2C_GetError
                0x08002e30        0x4 CMakeFiles/ban.elf.dir/Drivers/STM32F1xx_HAL_Driver/Src/stm32f1xx_hal_i2c.c.obj
                0x08002e30                HAL_I2C_GetError
 .text.RCC_Delay
                0x08002e34       0x2c CMakeFiles/ban.elf.dir/Drivers/STM32F1xx_HAL_Driver/Src/stm32f1xx_hal_rcc.c.obj
 .text.HAL_RCC_OscConfig
                0x08002e60      0x410 CMakeFiles/ban.elf.dir/Drivers/STM32F1xx_HAL_Driver/Src/stm32f1xx_hal_rcc.c.obj
                0x08002e60                HAL_RCC_OscConfig
 .text.HAL_RCC_GetSysClockFreq
                0x08003270       0x6c CMakeFiles/ban.elf.dir/Drivers/STM32F1xx_HAL_Driver/Src/stm32f1xx_hal_rcc.c.obj
                0x08003270                HAL_RCC_GetSysClockFreq
 .text.HAL_RCC_ClockConfig
                0x080032dc      0x16c CMakeFiles/ban.elf.dir/Drivers/STM32F1xx_HAL_Driver/Src/stm32f1xx_hal_rcc.c.obj
                0x080032dc                HAL_RCC_ClockConfig
 .text.HAL_RCC_GetHCLKFreq
                0x08003448        0xc CMakeFiles/ban.elf.dir/Drivers/STM32F1xx_HAL_Driver/Src/stm32f1xx_hal_rcc.c.obj
                0x08003448                HAL_RCC_GetHCLKFreq
 .text.HAL_RCC_GetPCLK1Freq
                0x08003454       0x20 CMakeFiles/ban.elf.dir/Drivers/STM32F1xx_HAL_Driver/Src/stm32f1xx_hal_rcc.c.obj
                0x08003454                HAL_RCC_GetPCLK1Freq
 .text.HAL_RCC_GetPCLK2Freq
                0x08003474       0x20 CMakeFiles/ban.elf.dir/Drivers/STM32F1xx_HAL_Driver/Src/stm32f1xx_hal_rcc.c.obj
                0x08003474                HAL_RCC_GetPCLK2Freq
 .text.TIM_OC1_SetConfig
                0x08003494       0x5c CMakeFiles/ban.elf.dir/Drivers/STM32F1xx_HAL_Driver/Src/stm32f1xx_hal_tim.c.obj
 .text.TIM_OC3_SetConfig
                0x080034f0       0x64 CMakeFiles/ban.elf.dir/Drivers/STM32F1xx_HAL_Driver/Src/stm32f1xx_hal_tim.c.obj
 .text.TIM_OC4_SetConfig
                0x08003554       0x48 CMakeFiles/ban.elf.dir/Drivers/STM32F1xx_HAL_Driver/Src/stm32f1xx_hal_tim.c.obj
 .text.TIM_TI1_ConfigInputStage
                0x0800359c       0x24 CMakeFiles/ban.elf.dir/Drivers/STM32F1xx_HAL_Driver/Src/stm32f1xx_hal_tim.c.obj
 .text.TIM_TI2_ConfigInputStage
                0x080035c0       0x26 CMakeFiles/ban.elf.dir/Drivers/STM32F1xx_HAL_Driver/Src/stm32f1xx_hal_tim.c.obj
 .text.TIM_ITRx_SetConfig
                0x080035e6       0x10 CMakeFiles/ban.elf.dir/Drivers/STM32F1xx_HAL_Driver/Src/stm32f1xx_hal_tim.c.obj
 .text.HAL_TIM_PWM_MspInit
                0x080035f6        0x2 CMakeFiles/ban.elf.dir/Drivers/STM32F1xx_HAL_Driver/Src/stm32f1xx_hal_tim.c.obj
                0x080035f6                HAL_TIM_PWM_MspInit
 .text.TIM_Base_SetConfig
                0x080035f8       0x74 CMakeFiles/ban.elf.dir/Drivers/STM32F1xx_HAL_Driver/Src/stm32f1xx_hal_tim.c.obj
                0x080035f8                TIM_Base_SetConfig
 .text.HAL_TIM_Base_Init
                0x0800366c       0x58 CMakeFiles/ban.elf.dir/Drivers/STM32F1xx_HAL_Driver/Src/stm32f1xx_hal_tim.c.obj
                0x0800366c                HAL_TIM_Base_Init
 .text.HAL_TIM_PWM_Init
                0x080036c4       0x58 CMakeFiles/ban.elf.dir/Drivers/STM32F1xx_HAL_Driver/Src/stm32f1xx_hal_tim.c.obj
                0x080036c4                HAL_TIM_PWM_Init
 .text.HAL_TIM_Encoder_Init
                0x0800371c       0xb8 CMakeFiles/ban.elf.dir/Drivers/STM32F1xx_HAL_Driver/Src/stm32f1xx_hal_tim.c.obj
                0x0800371c                HAL_TIM_Encoder_Init
 .text.TIM_OC2_SetConfig
                0x080037d4       0x64 CMakeFiles/ban.elf.dir/Drivers/STM32F1xx_HAL_Driver/Src/stm32f1xx_hal_tim.c.obj
                0x080037d4                TIM_OC2_SetConfig
 .text.HAL_TIM_PWM_ConfigChannel
                0x08003838       0xd0 CMakeFiles/ban.elf.dir/Drivers/STM32F1xx_HAL_Driver/Src/stm32f1xx_hal_tim.c.obj
                0x08003838                HAL_TIM_PWM_ConfigChannel
 .text.TIM_ETR_SetConfig
                0x08003908       0x18 CMakeFiles/ban.elf.dir/Drivers/STM32F1xx_HAL_Driver/Src/stm32f1xx_hal_tim.c.obj
                0x08003908                TIM_ETR_SetConfig
 .text.HAL_TIM_ConfigClockSource
                0x08003920       0xda CMakeFiles/ban.elf.dir/Drivers/STM32F1xx_HAL_Driver/Src/stm32f1xx_hal_tim.c.obj
                0x08003920                HAL_TIM_ConfigClockSource
 .text.TIM_CCxChannelCmd
                0x080039fa       0x1e CMakeFiles/ban.elf.dir/Drivers/STM32F1xx_HAL_Driver/Src/stm32f1xx_hal_tim.c.obj
                0x080039fa                TIM_CCxChannelCmd
 .text.HAL_TIM_PWM_Start
                0x08003a18       0xdc CMakeFiles/ban.elf.dir/Drivers/STM32F1xx_HAL_Driver/Src/stm32f1xx_hal_tim.c.obj
                0x08003a18                HAL_TIM_PWM_Start
 .text.HAL_TIM_Encoder_Start_IT
                0x08003af4       0xf6 CMakeFiles/ban.elf.dir/Drivers/STM32F1xx_HAL_Driver/Src/stm32f1xx_hal_tim.c.obj
                0x08003af4                HAL_TIM_Encoder_Start_IT
 *fill*         0x08003bea        0x2 
 .text.HAL_TIMEx_MasterConfigSynchronization
                0x08003bec       0x6c CMakeFiles/ban.elf.dir/Drivers/STM32F1xx_HAL_Driver/Src/stm32f1xx_hal_tim_ex.c.obj
                0x08003bec                HAL_TIMEx_MasterConfigSynchronization
 .text.HAL_TIMEx_ConfigBreakDeadTime
                0x08003c58       0x52 CMakeFiles/ban.elf.dir/Drivers/STM32F1xx_HAL_Driver/Src/stm32f1xx_hal_tim_ex.c.obj
                0x08003c58                HAL_TIMEx_ConfigBreakDeadTime
 *fill*         0x08003caa        0x2 
 .text.UART_SetConfig
                0x08003cac       0x94 CMakeFiles/ban.elf.dir/Drivers/STM32F1xx_HAL_Driver/Src/stm32f1xx_hal_uart.c.obj
 .text.UART_WaitOnFlagUntilTimeout
                0x08003d40       0x6c CMakeFiles/ban.elf.dir/Drivers/STM32F1xx_HAL_Driver/Src/stm32f1xx_hal_uart.c.obj
 .text.HAL_UART_Init
                0x08003dac       0x5e CMakeFiles/ban.elf.dir/Drivers/STM32F1xx_HAL_Driver/Src/stm32f1xx_hal_uart.c.obj
                0x08003dac                HAL_UART_Init
 .text.HAL_UART_Transmit
                0x08003e0a       0xd8 CMakeFiles/ban.elf.dir/Drivers/STM32F1xx_HAL_Driver/Src/stm32f1xx_hal_uart.c.obj
                0x08003e0a                HAL_UART_Transmit
 .text.HAL_UART_Receive
                0x08003ee2       0xe4 CMakeFiles/ban.elf.dir/Drivers/STM32F1xx_HAL_Driver/Src/stm32f1xx_hal_uart.c.obj
                0x08003ee2                HAL_UART_Receive
 *fill*         0x08003fc6        0x2 
 .text.PWM_Limit
                0x08003fc8       0x3c CMakeFiles/ban.elf.dir/lib/carcontrol/control.c.obj
                0x08003fc8                PWM_Limit
 .text.myabs    0x08004004        0x8 CMakeFiles/ban.elf.dir/lib/carcontrol/control.c.obj
                0x08004004                myabs
 .text.Set_Pwm  0x0800400c       0x68 CMakeFiles/ban.elf.dir/lib/carcontrol/control.c.obj
                0x0800400c                Set_Pwm
 .text.Kalman_getAngle
                0x08004074      0x1f2 CMakeFiles/ban.elf.dir/lib/carcontrol/control.c.obj
                0x08004074                Kalman_getAngle
 *fill*         0x08004266        0x2 
 .text.MPU6050_ToHuman
                0x08004268      0x1fc CMakeFiles/ban.elf.dir/lib/carcontrol/control.c.obj
                0x08004268                MPU6050_ToHuman
 *fill*         0x08004464        0x4 
 .text.Balance  0x08004468       0x48 CMakeFiles/ban.elf.dir/lib/carcontrol/control.c.obj
                0x08004468                Balance
 .text.Velocity
                0x080044b0       0xe4 CMakeFiles/ban.elf.dir/lib/carcontrol/control.c.obj
                0x080044b0                Velocity
 .text.HAL_GPIO_EXTI_Callback
                0x08004594       0xc4 CMakeFiles/ban.elf.dir/lib/carcontrol/control.c.obj
                0x08004594                HAL_GPIO_EXTI_Callback
 .text.TM_MPU6050_SetGyroscope
                0x08004658       0x74 CMakeFiles/ban.elf.dir/lib/mpu6050/mpu6050.c.obj
                0x08004658                TM_MPU6050_SetGyroscope
 .text.TM_MPU6050_SetAccelerometer
                0x080046cc       0x6c CMakeFiles/ban.elf.dir/lib/mpu6050/mpu6050.c.obj
                0x080046cc                TM_MPU6050_SetAccelerometer
 .text.TM_MPU6050_SetDataRate
                0x08004738       0x1c CMakeFiles/ban.elf.dir/lib/mpu6050/mpu6050.c.obj
                0x08004738                TM_MPU6050_SetDataRate
 .text.TM_MPU6050_Init
                0x08004754       0x78 CMakeFiles/ban.elf.dir/lib/mpu6050/mpu6050.c.obj
                0x08004754                TM_MPU6050_Init
 .text.TM_MPU6050_EnableInterrupts
                0x080047cc       0x44 CMakeFiles/ban.elf.dir/lib/mpu6050/mpu6050.c.obj
                0x080047cc                TM_MPU6050_EnableInterrupts
 .text.TM_MPU6050_ReadInterrupts
                0x08004810       0x2c CMakeFiles/ban.elf.dir/lib/mpu6050/mpu6050.c.obj
                0x08004810                TM_MPU6050_ReadInterrupts
 .text.TM_MPU6050_ReadAll
                0x0800483c       0x9c CMakeFiles/ban.elf.dir/lib/mpu6050/mpu6050.c.obj
                0x0800483c                TM_MPU6050_ReadAll
 .text.TM_I2C_FillSettings
                0x080048d8       0x18 CMakeFiles/ban.elf.dir/lib/mpu6050/tm_stm32_i2c.c.obj
 .text.TM_I2C_GetHandle
                0x080048f0       0x28 CMakeFiles/ban.elf.dir/lib/mpu6050/tm_stm32_i2c.c.obj
                0x080048f0                TM_I2C_GetHandle
 .text.TM_I2C_Init
                0x08004918       0x1e CMakeFiles/ban.elf.dir/lib/mpu6050/tm_stm32_i2c.c.obj
                0x08004918                TM_I2C_Init
 .text.TM_I2C_Read
                0x08004936       0x54 CMakeFiles/ban.elf.dir/lib/mpu6050/tm_stm32_i2c.c.obj
                0x08004936                TM_I2C_Read
 .text.TM_I2C_ReadMulti
                0x0800498a       0x56 CMakeFiles/ban.elf.dir/lib/mpu6050/tm_stm32_i2c.c.obj
                0x0800498a                TM_I2C_ReadMulti
 .text.TM_I2C_Write
                0x080049e0       0x38 CMakeFiles/ban.elf.dir/lib/mpu6050/tm_stm32_i2c.c.obj
                0x080049e0                TM_I2C_Write
 .text.TM_I2C_IsDeviceConnected
                0x08004a18       0x1a CMakeFiles/ban.elf.dir/lib/mpu6050/tm_stm32_i2c.c.obj
                0x08004a18                TM_I2C_IsDeviceConnected
 *fill*         0x08004a32        0x2 
 .text.SSD1306_Fill
                0x08004a34       0x1c CMakeFiles/ban.elf.dir/lib/oled/ssd1306.c.obj
                0x08004a34                SSD1306_Fill
 .text.SSD1306_DrawPixel
                0x08004a50       0x54 CMakeFiles/ban.elf.dir/lib/oled/ssd1306.c.obj
                0x08004a50                SSD1306_DrawPixel
 .text.SSD1306_GotoXY
                0x08004aa4        0xc CMakeFiles/ban.elf.dir/lib/oled/ssd1306.c.obj
                0x08004aa4                SSD1306_GotoXY
 .text.SSD1306_Putc
                0x08004ab0       0x9c CMakeFiles/ban.elf.dir/lib/oled/ssd1306.c.obj
                0x08004ab0                SSD1306_Putc
 .text.SSD1306_Puts
                0x08004b4c       0x22 CMakeFiles/ban.elf.dir/lib/oled/ssd1306.c.obj
                0x08004b4c                SSD1306_Puts
 *fill*         0x08004b6e        0x2 
 .text.ssd1306_I2C_WriteMulti
                0x08004b70       0x48 CMakeFiles/ban.elf.dir/lib/oled/ssd1306.c.obj
                0x08004b70                ssd1306_I2C_WriteMulti
 .text.ssd1306_I2C_Write
                0x08004bb8       0x28 CMakeFiles/ban.elf.dir/lib/oled/ssd1306.c.obj
                0x08004bb8                ssd1306_I2C_Write
 .text.SSD1306_UpdateScreen
                0x08004be0       0x48 CMakeFiles/ban.elf.dir/lib/oled/ssd1306.c.obj
                0x08004be0                SSD1306_UpdateScreen
 .text.SSD1306_Init
                0x08004c28      0x168 CMakeFiles/ban.elf.dir/lib/oled/ssd1306.c.obj
                0x08004c28                SSD1306_Init
 .text._isatty  0x08004d90       0x16 CMakeFiles/ban.elf.dir/lib/print/retarget.c.obj
                0x08004d90                _isatty
 *fill*         0x08004da6        0x2 
 .text._write   0x08004da8       0x34 CMakeFiles/ban.elf.dir/lib/print/retarget.c.obj
                0x08004da8                _write
 .text._close   0x08004ddc       0x18 CMakeFiles/ban.elf.dir/lib/print/retarget.c.obj
                0x08004ddc                _close
 .text._lseek   0x08004df4       0x10 CMakeFiles/ban.elf.dir/lib/print/retarget.c.obj
                0x08004df4                _lseek
 .text._read    0x08004e04       0x30 CMakeFiles/ban.elf.dir/lib/print/retarget.c.obj
                0x08004e04                _read
 .text._fstat   0x08004e34       0x1a CMakeFiles/ban.elf.dir/lib/print/retarget.c.obj
                0x08004e34                _fstat
 *fill*         0x08004e4e        0x2 
 .text.Reset_Handler
                0x08004e50       0x48 CMakeFiles/ban.elf.dir/startup/startup_stm32f103xb.s.obj
                0x08004e50                Reset_Handler
 .text.Default_Handler
                0x08004e98        0x2 CMakeFiles/ban.elf.dir/startup/startup_stm32f103xb.s.obj
                0x08004e98                RTC_Alarm_IRQHandler
                0x08004e98                EXTI2_IRQHandler
                0x08004e98                TIM1_CC_IRQHandler
                0x08004e98                PVD_IRQHandler
                0x08004e98                EXTI3_IRQHandler
                0x08004e98                EXTI0_IRQHandler
                0x08004e98                I2C2_EV_IRQHandler
                0x08004e98                ADC1_2_IRQHandler
                0x08004e98                SPI1_IRQHandler
                0x08004e98                TAMPER_IRQHandler
                0x08004e98                DMA1_Channel4_IRQHandler
                0x08004e98                USART3_IRQHandler
                0x08004e98                RTC_IRQHandler
                0x08004e98                DMA1_Channel7_IRQHandler
                0x08004e98                CAN1_RX1_IRQHandler
                0x08004e98                TIM4_IRQHandler
                0x08004e98                I2C1_EV_IRQHandler
                0x08004e98                DMA1_Channel6_IRQHandler
                0x08004e98                TIM3_IRQHandler
                0x08004e98                RCC_IRQHandler
                0x08004e98                TIM1_TRG_COM_IRQHandler
                0x08004e98                DMA1_Channel1_IRQHandler
                0x08004e98                Default_Handler
                0x08004e98                EXTI9_5_IRQHandler
                0x08004e98                SPI2_IRQHandler
                0x08004e98                DMA1_Channel5_IRQHandler
                0x08004e98                EXTI4_IRQHandler
                0x08004e98                USB_LP_CAN1_RX0_IRQHandler
                0x08004e98                USB_HP_CAN1_TX_IRQHandler
                0x08004e98                DMA1_Channel3_IRQHandler
                0x08004e98                TIM1_UP_IRQHandler
                0x08004e98                WWDG_IRQHandler
                0x08004e98                TIM2_IRQHandler
                0x08004e98                TIM1_BRK_IRQHandler
                0x08004e98                EXTI1_IRQHandler
                0x08004e98                USART2_IRQHandler
                0x08004e98                I2C2_ER_IRQHandler
                0x08004e98                DMA1_Channel2_IRQHandler
                0x08004e98                CAN1_SCE_IRQHandler
                0x08004e98                FLASH_IRQHandler
                0x08004e98                USART1_IRQHandler
                0x08004e98                I2C1_ER_IRQHandler
                0x08004e98                USBWakeUp_IRQHandler
 *fill*         0x08004e9a        0x2 
 .text.__errno  0x08004e9c        0xc d:/programmer/gcc-arm-none-eabi/bin/../lib/gcc/arm-none-eabi/10.2.1/../../../../arm-none-eabi/lib/thumb/v7-m/nofp\libg.a(lib_a-errno.o)
                0x08004e9c                __errno
 .text.__libc_init_array
                0x08004ea8       0x48 d:/programmer/gcc-arm-none-eabi/bin/../lib/gcc/arm-none-eabi/10.2.1/../../../../arm-none-eabi/lib/thumb/v7-m/nofp\libg.a(lib_a-init.o)
                0x08004ea8                __libc_init_array
 .text.memset   0x08004ef0       0xa4 d:/programmer/gcc-arm-none-eabi/bin/../lib/gcc/arm-none-eabi/10.2.1/../../../../arm-none-eabi/lib/thumb/v7-m/nofp\libg.a(lib_a-memset.o)
                0x08004ef0                memset
 .text.snprintf
                0x08004f94       0x84 d:/programmer/gcc-arm-none-eabi/bin/../lib/gcc/arm-none-eabi/10.2.1/../../../../arm-none-eabi/lib/thumb/v7-m/nofp\libg.a(lib_a-snprintf.o)
                0x08004f94                snprintf
 .text.strlen   0x08005018       0x5c d:/programmer/gcc-arm-none-eabi/bin/../lib/gcc/arm-none-eabi/10.2.1/../../../../arm-none-eabi/lib/thumb/v7-m/nofp\libg.a(lib_a-strlen-stub.o)
                0x08005018                strlen
 .text._svfprintf_r
                0x08005074     0x1aa4 d:/programmer/gcc-arm-none-eabi/bin/../lib/gcc/arm-none-eabi/10.2.1/../../../../arm-none-eabi/lib/thumb/v7-m/nofp\libg.a(lib_a-svfprintf.o)
                0x08005074                _svfprintf_r
 .text.startup.register_fini
                0x08006b18       0x14 d:/programmer/gcc-arm-none-eabi/bin/../lib/gcc/arm-none-eabi/10.2.1/../../../../arm-none-eabi/lib/thumb/v7-m/nofp\libg.a(lib_a-__call_atexit.o)
 .text.atexit   0x08006b2c        0xc d:/programmer/gcc-arm-none-eabi/bin/../lib/gcc/arm-none-eabi/10.2.1/../../../../arm-none-eabi/lib/thumb/v7-m/nofp\libg.a(lib_a-atexit.o)
                0x08006b2c                atexit
 .text.quorem   0x08006b38      0x12c d:/programmer/gcc-arm-none-eabi/bin/../lib/gcc/arm-none-eabi/10.2.1/../../../../arm-none-eabi/lib/thumb/v7-m/nofp\libg.a(lib_a-dtoa.o)
 *fill*         0x08006c64        0x4 
 .text._dtoa_r  0x08006c68      0xecc d:/programmer/gcc-arm-none-eabi/bin/../lib/gcc/arm-none-eabi/10.2.1/../../../../arm-none-eabi/lib/thumb/v7-m/nofp\libg.a(lib_a-dtoa.o)
                0x08006c68                _dtoa_r
 .text.__sflush_r
                0x08007b34      0x124 d:/programmer/gcc-arm-none-eabi/bin/../lib/gcc/arm-none-eabi/10.2.1/../../../../arm-none-eabi/lib/thumb/v7-m/nofp\libg.a(lib_a-fflush.o)
                0x08007b34                __sflush_r
 .text._fflush_r
                0x08007c58       0x5c d:/programmer/gcc-arm-none-eabi/bin/../lib/gcc/arm-none-eabi/10.2.1/../../../../arm-none-eabi/lib/thumb/v7-m/nofp\libg.a(lib_a-fflush.o)
                0x08007c58                _fflush_r
 .text._cleanup_r
                0x08007cb4        0xc d:/programmer/gcc-arm-none-eabi/bin/../lib/gcc/arm-none-eabi/10.2.1/../../../../arm-none-eabi/lib/thumb/v7-m/nofp\libg.a(lib_a-findfp.o)
                0x08007cb4                _cleanup_r
 .text.__sinit  0x08007cc0      0x10c d:/programmer/gcc-arm-none-eabi/bin/../lib/gcc/arm-none-eabi/10.2.1/../../../../arm-none-eabi/lib/thumb/v7-m/nofp\libg.a(lib_a-findfp.o)
                0x08007cc0                __sinit
 .text.__sfp_lock_acquire
                0x08007dcc        0xc d:/programmer/gcc-arm-none-eabi/bin/../lib/gcc/arm-none-eabi/10.2.1/../../../../arm-none-eabi/lib/thumb/v7-m/nofp\libg.a(lib_a-findfp.o)
                0x08007dcc                __sfp_lock_acquire
 .text.__sfp_lock_release
                0x08007dd8        0xc d:/programmer/gcc-arm-none-eabi/bin/../lib/gcc/arm-none-eabi/10.2.1/../../../../arm-none-eabi/lib/thumb/v7-m/nofp\libg.a(lib_a-findfp.o)
                0x08007dd8                __sfp_lock_release
 .text.__libc_fini_array
                0x08007de4       0x2c d:/programmer/gcc-arm-none-eabi/bin/../lib/gcc/arm-none-eabi/10.2.1/../../../../arm-none-eabi/lib/thumb/v7-m/nofp\libg.a(lib_a-fini.o)
                0x08007de4                __libc_fini_array
 .text._malloc_trim_r
                0x08007e10       0xa0 d:/programmer/gcc-arm-none-eabi/bin/../lib/gcc/arm-none-eabi/10.2.1/../../../../arm-none-eabi/lib/thumb/v7-m/nofp\libg.a(lib_a-freer.o)
                0x08007e10                _malloc_trim_r
 .text._free_r  0x08007eb0      0x200 d:/programmer/gcc-arm-none-eabi/bin/../lib/gcc/arm-none-eabi/10.2.1/../../../../arm-none-eabi/lib/thumb/v7-m/nofp\libg.a(lib_a-freer.o)
                0x08007eb0                _free_r
 .text._fwalk_reent
                0x080080b0       0x48 d:/programmer/gcc-arm-none-eabi/bin/../lib/gcc/arm-none-eabi/10.2.1/../../../../arm-none-eabi/lib/thumb/v7-m/nofp\libg.a(lib_a-fwalk.o)
                0x080080b0                _fwalk_reent
 .text._localeconv_r
                0x080080f8        0x8 d:/programmer/gcc-arm-none-eabi/bin/../lib/gcc/arm-none-eabi/10.2.1/../../../../arm-none-eabi/lib/thumb/v7-m/nofp\libg.a(lib_a-localeconv.o)
                0x080080f8                _localeconv_r
 .text.__retarget_lock_init_recursive
                0x08008100        0x4 d:/programmer/gcc-arm-none-eabi/bin/../lib/gcc/arm-none-eabi/10.2.1/../../../../arm-none-eabi/lib/thumb/v7-m/nofp\libg.a(lib_a-lock.o)
                0x08008100                __retarget_lock_init_recursive
 .text.__retarget_lock_close_recursive
                0x08008104        0x4 d:/programmer/gcc-arm-none-eabi/bin/../lib/gcc/arm-none-eabi/10.2.1/../../../../arm-none-eabi/lib/thumb/v7-m/nofp\libg.a(lib_a-lock.o)
                0x08008104                __retarget_lock_close_recursive
 .text.__retarget_lock_acquire_recursive
                0x08008108        0x4 d:/programmer/gcc-arm-none-eabi/bin/../lib/gcc/arm-none-eabi/10.2.1/../../../../arm-none-eabi/lib/thumb/v7-m/nofp\libg.a(lib_a-lock.o)
                0x08008108                __retarget_lock_acquire_recursive
 .text.__retarget_lock_release_recursive
                0x0800810c        0x4 d:/programmer/gcc-arm-none-eabi/bin/../lib/gcc/arm-none-eabi/10.2.1/../../../../arm-none-eabi/lib/thumb/v7-m/nofp\libg.a(lib_a-lock.o)
                0x0800810c                __retarget_lock_release_recursive
 .text.__smakebuf_r
                0x08008110       0xe0 d:/programmer/gcc-arm-none-eabi/bin/../lib/gcc/arm-none-eabi/10.2.1/../../../../arm-none-eabi/lib/thumb/v7-m/nofp\libg.a(lib_a-makebuf.o)
                0x08008110                __smakebuf_r
 .text._malloc_r
                0x080081f0      0x558 d:/programmer/gcc-arm-none-eabi/bin/../lib/gcc/arm-none-eabi/10.2.1/../../../../arm-none-eabi/lib/thumb/v7-m/nofp\libg.a(lib_a-mallocr.o)
                0x080081f0                _malloc_r
 .text.memchr   0x08008748       0x90 d:/programmer/gcc-arm-none-eabi/bin/../lib/gcc/arm-none-eabi/10.2.1/../../../../arm-none-eabi/lib/thumb/v7-m/nofp\libg.a(lib_a-memchr-stub.o)
                0x08008748                memchr
 .text.__malloc_lock
                0x080087d8        0xc d:/programmer/gcc-arm-none-eabi/bin/../lib/gcc/arm-none-eabi/10.2.1/../../../../arm-none-eabi/lib/thumb/v7-m/nofp\libg.a(lib_a-mlock.o)
                0x080087d8                __malloc_lock
 .text.__malloc_unlock
                0x080087e4        0xc d:/programmer/gcc-arm-none-eabi/bin/../lib/gcc/arm-none-eabi/10.2.1/../../../../arm-none-eabi/lib/thumb/v7-m/nofp\libg.a(lib_a-mlock.o)
                0x080087e4                __malloc_unlock
 .text._Balloc  0x080087f0       0x4c d:/programmer/gcc-arm-none-eabi/bin/../lib/gcc/arm-none-eabi/10.2.1/../../../../arm-none-eabi/lib/thumb/v7-m/nofp\libg.a(lib_a-mprec.o)
                0x080087f0                _Balloc
 .text._Bfree   0x0800883c       0x14 d:/programmer/gcc-arm-none-eabi/bin/../lib/gcc/arm-none-eabi/10.2.1/../../../../arm-none-eabi/lib/thumb/v7-m/nofp\libg.a(lib_a-mprec.o)
                0x0800883c                _Bfree
 .text.__multadd
                0x08008850       0xa4 d:/programmer/gcc-arm-none-eabi/bin/../lib/gcc/arm-none-eabi/10.2.1/../../../../arm-none-eabi/lib/thumb/v7-m/nofp\libg.a(lib_a-mprec.o)
                0x08008850                __multadd
 .text.__hi0bits
                0x080088f4       0x40 d:/programmer/gcc-arm-none-eabi/bin/../lib/gcc/arm-none-eabi/10.2.1/../../../../arm-none-eabi/lib/thumb/v7-m/nofp\libg.a(lib_a-mprec.o)
                0x080088f4                __hi0bits
 .text.__lo0bits
                0x08008934       0x58 d:/programmer/gcc-arm-none-eabi/bin/../lib/gcc/arm-none-eabi/10.2.1/../../../../arm-none-eabi/lib/thumb/v7-m/nofp\libg.a(lib_a-mprec.o)
                0x08008934                __lo0bits
 .text.__i2b    0x0800898c       0x5c d:/programmer/gcc-arm-none-eabi/bin/../lib/gcc/arm-none-eabi/10.2.1/../../../../arm-none-eabi/lib/thumb/v7-m/nofp\libg.a(lib_a-mprec.o)
                0x0800898c                __i2b
 .text.__multiply
                0x080089e8      0x15c d:/programmer/gcc-arm-none-eabi/bin/../lib/gcc/arm-none-eabi/10.2.1/../../../../arm-none-eabi/lib/thumb/v7-m/nofp\libg.a(lib_a-mprec.o)
                0x080089e8                __multiply
 .text.__pow5mult
                0x08008b44       0xb8 d:/programmer/gcc-arm-none-eabi/bin/../lib/gcc/arm-none-eabi/10.2.1/../../../../arm-none-eabi/lib/thumb/v7-m/nofp\libg.a(lib_a-mprec.o)
                0x08008b44                __pow5mult
 .text.__lshift
                0x08008bfc       0xec d:/programmer/gcc-arm-none-eabi/bin/../lib/gcc/arm-none-eabi/10.2.1/../../../../arm-none-eabi/lib/thumb/v7-m/nofp\libg.a(lib_a-mprec.o)
                0x08008bfc                __lshift
 .text.__mcmp   0x08008ce8       0x40 d:/programmer/gcc-arm-none-eabi/bin/../lib/gcc/arm-none-eabi/10.2.1/../../../../arm-none-eabi/lib/thumb/v7-m/nofp\libg.a(lib_a-mprec.o)
                0x08008ce8                __mcmp
 .text.__mdiff  0x08008d28      0x14c d:/programmer/gcc-arm-none-eabi/bin/../lib/gcc/arm-none-eabi/10.2.1/../../../../arm-none-eabi/lib/thumb/v7-m/nofp\libg.a(lib_a-mprec.o)
                0x08008d28                __mdiff
 .text.__d2b    0x08008e74       0xc4 d:/programmer/gcc-arm-none-eabi/bin/../lib/gcc/arm-none-eabi/10.2.1/../../../../arm-none-eabi/lib/thumb/v7-m/nofp\libg.a(lib_a-mprec.o)
                0x08008e74                __d2b
 .text.frexp    0x08008f38       0x70 d:/programmer/gcc-arm-none-eabi/bin/../lib/gcc/arm-none-eabi/10.2.1/../../../../arm-none-eabi/lib/thumb/v7-m/nofp\libg.a(lib_a-s_frexp.o)
                0x08008f38                frexp
 .text._sbrk_r  0x08008fa8       0x24 d:/programmer/gcc-arm-none-eabi/bin/../lib/gcc/arm-none-eabi/10.2.1/../../../../arm-none-eabi/lib/thumb/v7-m/nofp\libg.a(lib_a-sbrkr.o)
                0x08008fa8                _sbrk_r
 .text.__sread  0x08008fcc       0x24 d:/programmer/gcc-arm-none-eabi/bin/../lib/gcc/arm-none-eabi/10.2.1/../../../../arm-none-eabi/lib/thumb/v7-m/nofp\libg.a(lib_a-stdio.o)
                0x08008fcc                __sread
 .text.__swrite
                0x08008ff0       0x40 d:/programmer/gcc-arm-none-eabi/bin/../lib/gcc/arm-none-eabi/10.2.1/../../../../arm-none-eabi/lib/thumb/v7-m/nofp\libg.a(lib_a-stdio.o)
                0x08008ff0                __swrite
 .text.__sseek  0x08009030       0x20 d:/programmer/gcc-arm-none-eabi/bin/../lib/gcc/arm-none-eabi/10.2.1/../../../../arm-none-eabi/lib/thumb/v7-m/nofp\libg.a(lib_a-stdio.o)
                0x08009030                __sseek
 .text.__sclose
                0x08009050        0x8 d:/programmer/gcc-arm-none-eabi/bin/../lib/gcc/arm-none-eabi/10.2.1/../../../../arm-none-eabi/lib/thumb/v7-m/nofp\libg.a(lib_a-stdio.o)
                0x08009050                __sclose
 .text.strncpy  0x08009058       0x68 d:/programmer/gcc-arm-none-eabi/bin/../lib/gcc/arm-none-eabi/10.2.1/../../../../arm-none-eabi/lib/thumb/v7-m/nofp\libg.a(lib_a-strncpy.o)
                0x08009058                strncpy
 .text.__ssprint_r
                0x080090c0       0xfc d:/programmer/gcc-arm-none-eabi/bin/../lib/gcc/arm-none-eabi/10.2.1/../../../../arm-none-eabi/lib/thumb/v7-m/nofp\libg.a(lib_a-svfiprintf.o)
                0x080090c0                __ssprint_r
 .text._write_r
                0x080091bc       0x2c d:/programmer/gcc-arm-none-eabi/bin/../lib/gcc/arm-none-eabi/10.2.1/../../../../arm-none-eabi/lib/thumb/v7-m/nofp\libg.a(lib_a-writer.o)
                0x080091bc                _write_r
 .text.__register_exitproc
                0x080091e8       0x8c d:/programmer/gcc-arm-none-eabi/bin/../lib/gcc/arm-none-eabi/10.2.1/../../../../arm-none-eabi/lib/thumb/v7-m/nofp\libg.a(lib_a-__atexit.o)
                0x080091e8                __register_exitproc
 .text.__assert_func
                0x08009274       0x40 d:/programmer/gcc-arm-none-eabi/bin/../lib/gcc/arm-none-eabi/10.2.1/../../../../arm-none-eabi/lib/thumb/v7-m/nofp\libg.a(lib_a-assert.o)
                0x08009274                __assert_func
 .text._calloc_r
                0x080092b4       0x60 d:/programmer/gcc-arm-none-eabi/bin/../lib/gcc/arm-none-eabi/10.2.1/../../../../arm-none-eabi/lib/thumb/v7-m/nofp\libg.a(lib_a-callocr.o)
                0x080092b4                _calloc_r
 .text._close_r
                0x08009314       0x24 d:/programmer/gcc-arm-none-eabi/bin/../lib/gcc/arm-none-eabi/10.2.1/../../../../arm-none-eabi/lib/thumb/v7-m/nofp\libg.a(lib_a-closer.o)
                0x08009314                _close_r
 .text._fclose_r
                0x08009338       0xcc d:/programmer/gcc-arm-none-eabi/bin/../lib/gcc/arm-none-eabi/10.2.1/../../../../arm-none-eabi/lib/thumb/v7-m/nofp\libg.a(lib_a-fclose.o)
                0x08009338                _fclose_r
 .text.fiprintf
                0x08009404       0x28 d:/programmer/gcc-arm-none-eabi/bin/../lib/gcc/arm-none-eabi/10.2.1/../../../../arm-none-eabi/lib/thumb/v7-m/nofp\libg.a(lib_a-fiprintf.o)
                0x08009404                fiprintf
 .text._fstat_r
                0x0800942c       0x28 d:/programmer/gcc-arm-none-eabi/bin/../lib/gcc/arm-none-eabi/10.2.1/../../../../arm-none-eabi/lib/thumb/v7-m/nofp\libg.a(lib_a-fstatr.o)
                0x0800942c                _fstat_r
 .text._isatty_r
                0x08009454       0x24 d:/programmer/gcc-arm-none-eabi/bin/../lib/gcc/arm-none-eabi/10.2.1/../../../../arm-none-eabi/lib/thumb/v7-m/nofp\libg.a(lib_a-isattyr.o)
                0x08009454                _isatty_r
 .text.__locale_mb_cur_max
                0x08009478        0xc d:/programmer/gcc-arm-none-eabi/bin/../lib/gcc/arm-none-eabi/10.2.1/../../../../arm-none-eabi/lib/thumb/v7-m/nofp\libg.a(lib_a-locale.o)
                0x08009478                __locale_mb_cur_max
 .text._lseek_r
                0x08009484       0x2c d:/programmer/gcc-arm-none-eabi/bin/../lib/gcc/arm-none-eabi/10.2.1/../../../../arm-none-eabi/lib/thumb/v7-m/nofp\libg.a(lib_a-lseekr.o)
                0x08009484                _lseek_r
 .text.__ascii_mbtowc
                0x080094b0       0x2c d:/programmer/gcc-arm-none-eabi/bin/../lib/gcc/arm-none-eabi/10.2.1/../../../../arm-none-eabi/lib/thumb/v7-m/nofp\libg.a(lib_a-mbtowc_r.o)
                0x080094b0                __ascii_mbtowc
 .text.memmove  0x080094dc       0xf8 d:/programmer/gcc-arm-none-eabi/bin/../lib/gcc/arm-none-eabi/10.2.1/../../../../arm-none-eabi/lib/thumb/v7-m/nofp\libg.a(lib_a-memmove.o)
                0x080094dc                memmove
 .text._read_r  0x080095d4       0x2c d:/programmer/gcc-arm-none-eabi/bin/../lib/gcc/arm-none-eabi/10.2.1/../../../../arm-none-eabi/lib/thumb/v7-m/nofp\libg.a(lib_a-readr.o)
                0x080095d4                _read_r
 .text._realloc_r
                0x08009600      0x3dc d:/programmer/gcc-arm-none-eabi/bin/../lib/gcc/arm-none-eabi/10.2.1/../../../../arm-none-eabi/lib/thumb/v7-m/nofp\libg.a(lib_a-reallocr.o)
                0x08009600                _realloc_r
 .text.__sprint_r.part.0
                0x080099dc       0x78 d:/programmer/gcc-arm-none-eabi/bin/../lib/gcc/arm-none-eabi/10.2.1/../../../../arm-none-eabi/lib/thumb/v7-m/nofp\libg.a(lib_a-vfiprintf.o)
 .text._vfiprintf_r
                0x08009a54      0xd94 d:/programmer/gcc-arm-none-eabi/bin/../lib/gcc/arm-none-eabi/10.2.1/../../../../arm-none-eabi/lib/thumb/v7-m/nofp\libg.a(lib_a-vfiprintf.o)
                0x08009a54                _vfiprintf_r
 .text.__sbprintf
                0x0800a7e8       0x84 d:/programmer/gcc-arm-none-eabi/bin/../lib/gcc/arm-none-eabi/10.2.1/../../../../arm-none-eabi/lib/thumb/v7-m/nofp\libg.a(lib_a-vfiprintf.o)
 .text.__ascii_wctomb
                0x0800a86c       0x1c d:/programmer/gcc-arm-none-eabi/bin/../lib/gcc/arm-none-eabi/10.2.1/../../../../arm-none-eabi/lib/thumb/v7-m/nofp\libg.a(lib_a-wctomb_r.o)
                0x0800a86c                __ascii_wctomb
 .text.__swsetup_r
                0x0800a888       0xd4 d:/programmer/gcc-arm-none-eabi/bin/../lib/gcc/arm-none-eabi/10.2.1/../../../../arm-none-eabi/lib/thumb/v7-m/nofp\libg.a(lib_a-wsetup.o)
                0x0800a888                __swsetup_r
 .text.abort    0x0800a95c       0x10 d:/programmer/gcc-arm-none-eabi/bin/../lib/gcc/arm-none-eabi/10.2.1/../../../../arm-none-eabi/lib/thumb/v7-m/nofp\libg.a(lib_a-abort.o)
                0x0800a95c                abort
 .text.__fputwc
                0x0800a96c       0xa0 d:/programmer/gcc-arm-none-eabi/bin/../lib/gcc/arm-none-eabi/10.2.1/../../../../arm-none-eabi/lib/thumb/v7-m/nofp\libg.a(lib_a-fputwc.o)
                0x0800a96c                __fputwc
 .text._fputwc_r
                0x0800aa0c       0x68 d:/programmer/gcc-arm-none-eabi/bin/../lib/gcc/arm-none-eabi/10.2.1/../../../../arm-none-eabi/lib/thumb/v7-m/nofp\libg.a(lib_a-fputwc.o)
                0x0800aa0c                _fputwc_r
 .text.__sfvwrite_r
                0x0800aa74      0x2f0 d:/programmer/gcc-arm-none-eabi/bin/../lib/gcc/arm-none-eabi/10.2.1/../../../../arm-none-eabi/lib/thumb/v7-m/nofp\libg.a(lib_a-fvwrite.o)
                0x0800aa74                __sfvwrite_r
 .text.raise    0x0800ad64       0x5c d:/programmer/gcc-arm-none-eabi/bin/../lib/gcc/arm-none-eabi/10.2.1/../../../../arm-none-eabi/lib/thumb/v7-m/nofp\libg.a(lib_a-signal.o)
                0x0800ad64                raise
 .text._kill_r  0x0800adc0       0x28 d:/programmer/gcc-arm-none-eabi/bin/../lib/gcc/arm-none-eabi/10.2.1/../../../../arm-none-eabi/lib/thumb/v7-m/nofp\libg.a(lib_a-signalr.o)
                0x0800adc0                _kill_r
 .text._getpid_r
                0x0800ade8        0x4 d:/programmer/gcc-arm-none-eabi/bin/../lib/gcc/arm-none-eabi/10.2.1/../../../../arm-none-eabi/lib/thumb/v7-m/nofp\libg.a(lib_a-signalr.o)
                0x0800ade8                _getpid_r
 .text.__swbuf_r
                0x0800adec       0xb0 d:/programmer/gcc-arm-none-eabi/bin/../lib/gcc/arm-none-eabi/10.2.1/../../../../arm-none-eabi/lib/thumb/v7-m/nofp\libg.a(lib_a-wbuf.o)
                0x0800adec                __swbuf_r
 .text._wcrtomb_r
                0x0800ae9c       0x3c d:/programmer/gcc-arm-none-eabi/bin/../lib/gcc/arm-none-eabi/10.2.1/../../../../arm-none-eabi/lib/thumb/v7-m/nofp\libg.a(lib_a-wcrtomb.o)
                0x0800ae9c                _wcrtomb_r
 .text.atan     0x0800aed8      0x31c d:/programmer/gcc-arm-none-eabi/bin/../lib/gcc/arm-none-eabi/10.2.1/../../../../arm-none-eabi/lib/thumb/v7-m/nofp\libm.a(lib_a-s_atan.o)
                0x0800aed8                atan
 .text.fabs     0x0800b1f4        0x8 d:/programmer/gcc-arm-none-eabi/bin/../lib/gcc/arm-none-eabi/10.2.1/../../../../arm-none-eabi/lib/thumb/v7-m/nofp\libm.a(lib_a-s_fabs.o)
                0x0800b1f4                fabs
 .text.atan2    0x0800b1fc        0x4 d:/programmer/gcc-arm-none-eabi/bin/../lib/gcc/arm-none-eabi/10.2.1/../../../../arm-none-eabi/lib/thumb/v7-m/nofp\libm.a(lib_a-w_atan2.o)
                0x0800b1fc                atan2
 .text.sqrt     0x0800b200       0x5c d:/programmer/gcc-arm-none-eabi/bin/../lib/gcc/arm-none-eabi/10.2.1/../../../../arm-none-eabi/lib/thumb/v7-m/nofp\libm.a(lib_a-w_sqrt.o)
                0x0800b200                sqrt
 *fill*         0x0800b25c        0x4 
 .text.__ieee754_atan2
                0x0800b260      0x194 d:/programmer/gcc-arm-none-eabi/bin/../lib/gcc/arm-none-eabi/10.2.1/../../../../arm-none-eabi/lib/thumb/v7-m/nofp\libm.a(lib_a-e_atan2.o)
                0x0800b260                __ieee754_atan2
 .text.__ieee754_sqrt
                0x0800b3f4      0x18c d:/programmer/gcc-arm-none-eabi/bin/../lib/gcc/arm-none-eabi/10.2.1/../../../../arm-none-eabi/lib/thumb/v7-m/nofp\libm.a(lib_a-e_sqrt.o)
                0x0800b3f4                __ieee754_sqrt
 *(.glue_7)
 .glue_7        0x0800b580        0x0 linker stubs
 *(.glue_7t)
 .glue_7t       0x0800b580        0x0 linker stubs
 *(.eh_frame)
 .eh_frame      0x0800b580        0x0 d:/programmer/gcc-arm-none-eabi/bin/../lib/gcc/arm-none-eabi/10.2.1/thumb/v7-m/nofp/crtbegin.o
 *(.init)
 .init          0x0800b580        0x4 d:/programmer/gcc-arm-none-eabi/bin/../lib/gcc/arm-none-eabi/10.2.1/thumb/v7-m/nofp/crti.o
                0x0800b580                _init
 .init          0x0800b584        0x8 d:/programmer/gcc-arm-none-eabi/bin/../lib/gcc/arm-none-eabi/10.2.1/thumb/v7-m/nofp/crtn.o
 *(.fini)
 .fini          0x0800b58c        0x4 d:/programmer/gcc-arm-none-eabi/bin/../lib/gcc/arm-none-eabi/10.2.1/thumb/v7-m/nofp/crti.o
                0x0800b58c                _fini
 .fini          0x0800b590        0x8 d:/programmer/gcc-arm-none-eabi/bin/../lib/gcc/arm-none-eabi/10.2.1/thumb/v7-m/nofp/crtn.o
                0x0800b598                . = ALIGN (0x4)
                0x0800b598                _etext = .

.vfp11_veneer   0x0800b598        0x0
 .vfp11_veneer  0x0800b598        0x0 linker stubs

.v4_bx          0x0800b598        0x0
 .v4_bx         0x0800b598        0x0 linker stubs

.iplt           0x0800b598        0x0
 .iplt          0x0800b598        0x0 d:/programmer/gcc-arm-none-eabi/bin/../lib/gcc/arm-none-eabi/10.2.1/thumb/v7-m/nofp/crtbegin.o

.rodata         0x0800b598      0xc38
                0x0800b598                . = ALIGN (0x4)
 *(.rodata)
 *(.rodata*)
 .rodata.OLED_SHOW_GY.str1.4
                0x0800b598        0x5 CMakeFiles/ban.elf.dir/Core/Src/main.c.obj
 *fill*         0x0800b59d        0x3 
 .rodata.OLED_SHOW_arg.str1.4
                0x0800b5a0        0x4 CMakeFiles/ban.elf.dir/Core/Src/main.c.obj
 .rodata.main.str1.4
                0x0800b5a4       0x27 CMakeFiles/ban.elf.dir/Core/Src/main.c.obj
 *fill*         0x0800b5cb        0x1 
 .rodata.AHBPrescTable
                0x0800b5cc       0x10 CMakeFiles/ban.elf.dir/Core/Src/system_stm32f1xx.c.obj
                0x0800b5cc                AHBPrescTable
 .rodata.APBPrescTable
                0x0800b5dc        0x8 CMakeFiles/ban.elf.dir/Core/Src/system_stm32f1xx.c.obj
                0x0800b5dc                APBPrescTable
 .rodata.HAL_RCC_GetSysClockFreq.str1.4
                0x0800b5e4       0x11 CMakeFiles/ban.elf.dir/Drivers/STM32F1xx_HAL_Driver/Src/stm32f1xx_hal_rcc.c.obj
 *fill*         0x0800b5f5        0x3 
 .rodata.Font7x10
                0x0800b5f8      0x76c CMakeFiles/ban.elf.dir/lib/oled/fonts.c.obj
                0x0800b5f8                Font7x10
 .rodata._global_impure_ptr
                0x0800bd64        0x4 d:/programmer/gcc-arm-none-eabi/bin/../lib/gcc/arm-none-eabi/10.2.1/../../../../arm-none-eabi/lib/thumb/v7-m/nofp\libg.a(lib_a-impure.o)
                0x0800bd64                _global_impure_ptr
 .rodata._svfprintf_r.str1.4
                0x0800bd68       0x42 d:/programmer/gcc-arm-none-eabi/bin/../lib/gcc/arm-none-eabi/10.2.1/../../../../arm-none-eabi/lib/thumb/v7-m/nofp\libg.a(lib_a-svfprintf.o)
 *fill*         0x0800bdaa        0x2 
 .rodata.blanks.1
                0x0800bdac       0x10 d:/programmer/gcc-arm-none-eabi/bin/../lib/gcc/arm-none-eabi/10.2.1/../../../../arm-none-eabi/lib/thumb/v7-m/nofp\libg.a(lib_a-svfprintf.o)
 .rodata.zeroes.0
                0x0800bdbc       0x10 d:/programmer/gcc-arm-none-eabi/bin/../lib/gcc/arm-none-eabi/10.2.1/../../../../arm-none-eabi/lib/thumb/v7-m/nofp\libg.a(lib_a-svfprintf.o)
 .rodata._dtoa_r.str1.4
                0x0800bdcc       0xa1 d:/programmer/gcc-arm-none-eabi/bin/../lib/gcc/arm-none-eabi/10.2.1/../../../../arm-none-eabi/lib/thumb/v7-m/nofp\libg.a(lib_a-dtoa.o)
                                 0xa5 (size before relaxing)
 *fill*         0x0800be6d        0x3 
 .rodata.__multadd.str1.4
                0x0800be70       0x7e d:/programmer/gcc-arm-none-eabi/bin/../lib/gcc/arm-none-eabi/10.2.1/../../../../arm-none-eabi/lib/thumb/v7-m/nofp\libg.a(lib_a-mprec.o)
                                 0x92 (size before relaxing)
 *fill*         0x0800beee        0x2 
 .rodata.__mprec_bigtens
                0x0800bef0       0x28 d:/programmer/gcc-arm-none-eabi/bin/../lib/gcc/arm-none-eabi/10.2.1/../../../../arm-none-eabi/lib/thumb/v7-m/nofp\libg.a(lib_a-mprec.o)
                0x0800bef0                __mprec_bigtens
 .rodata.__mprec_tens
                0x0800bf18       0xc8 d:/programmer/gcc-arm-none-eabi/bin/../lib/gcc/arm-none-eabi/10.2.1/../../../../arm-none-eabi/lib/thumb/v7-m/nofp\libg.a(lib_a-mprec.o)
                0x0800bf18                __mprec_tens
 .rodata.p05.0  0x0800bfe0        0xc d:/programmer/gcc-arm-none-eabi/bin/../lib/gcc/arm-none-eabi/10.2.1/../../../../arm-none-eabi/lib/thumb/v7-m/nofp\libg.a(lib_a-mprec.o)
 .rodata.__assert_func.str1.4
                0x0800bfec       0x3f d:/programmer/gcc-arm-none-eabi/bin/../lib/gcc/arm-none-eabi/10.2.1/../../../../arm-none-eabi/lib/thumb/v7-m/nofp\libg.a(lib_a-assert.o)
                                 0x43 (size before relaxing)
 *fill*         0x0800c02b        0x1 
 .rodata._setlocale_r.str1.4
                0x0800c02c        0xa d:/programmer/gcc-arm-none-eabi/bin/../lib/gcc/arm-none-eabi/10.2.1/../../../../arm-none-eabi/lib/thumb/v7-m/nofp\libg.a(lib_a-locale.o)
                                  0xd (size before relaxing)
 *fill*         0x0800c036        0x2 
 .rodata.str1.4
                0x0800c038        0x2 d:/programmer/gcc-arm-none-eabi/bin/../lib/gcc/arm-none-eabi/10.2.1/../../../../arm-none-eabi/lib/thumb/v7-m/nofp\libg.a(lib_a-locale.o)
 .rodata._vfiprintf_r.str1.4
                0x0800c03a       0x2f d:/programmer/gcc-arm-none-eabi/bin/../lib/gcc/arm-none-eabi/10.2.1/../../../../arm-none-eabi/lib/thumb/v7-m/nofp\libg.a(lib_a-vfiprintf.o)
 *fill*         0x0800c03a        0x2 
 .rodata.blanks.1
                0x0800c03c       0x10 d:/programmer/gcc-arm-none-eabi/bin/../lib/gcc/arm-none-eabi/10.2.1/../../../../arm-none-eabi/lib/thumb/v7-m/nofp\libg.a(lib_a-vfiprintf.o)
 .rodata.zeroes.0
                0x0800c04c       0x10 d:/programmer/gcc-arm-none-eabi/bin/../lib/gcc/arm-none-eabi/10.2.1/../../../../arm-none-eabi/lib/thumb/v7-m/nofp\libg.a(lib_a-vfiprintf.o)
 .rodata._ctype_
                0x0800c05c      0x101 d:/programmer/gcc-arm-none-eabi/bin/../lib/gcc/arm-none-eabi/10.2.1/../../../../arm-none-eabi/lib/thumb/v7-m/nofp\libg.a(lib_a-ctype_.o)
                0x0800c05c                _ctype_
 *fill*         0x0800c15d        0x3 
 .rodata.atanhi
                0x0800c160       0x20 d:/programmer/gcc-arm-none-eabi/bin/../lib/gcc/arm-none-eabi/10.2.1/../../../../arm-none-eabi/lib/thumb/v7-m/nofp\libm.a(lib_a-s_atan.o)
 .rodata.atanlo
                0x0800c180       0x20 d:/programmer/gcc-arm-none-eabi/bin/../lib/gcc/arm-none-eabi/10.2.1/../../../../arm-none-eabi/lib/thumb/v7-m/nofp\libm.a(lib_a-s_atan.o)
 .rodata.CSWTCH.8
                0x0800c1a0       0x18 d:/programmer/gcc-arm-none-eabi/bin/../lib/gcc/arm-none-eabi/10.2.1/../../../../arm-none-eabi/lib/thumb/v7-m/nofp\libm.a(lib_a-e_atan2.o)
 .rodata.CSWTCH.9
                0x0800c1b8       0x18 d:/programmer/gcc-arm-none-eabi/bin/../lib/gcc/arm-none-eabi/10.2.1/../../../../arm-none-eabi/lib/thumb/v7-m/nofp\libm.a(lib_a-e_atan2.o)
                0x0800c1d0                . = ALIGN (0x4)

.ARM.extab
 *(.ARM.extab* .gnu.linkonce.armextab.*)

.ARM            0x0800c1d0        0x8
                0x0800c1d0                __exidx_start = .
 *(.ARM.exidx*)
 .ARM.exidx     0x0800c1d0        0x8 d:/programmer/gcc-arm-none-eabi/bin/../lib/gcc/arm-none-eabi/10.2.1/thumb/v7-m/nofp\libgcc.a(_udivmoddi4.o)
                0x0800c1d8                __exidx_end = .

.rel.dyn        0x0800c1d8        0x0
 .rel.iplt      0x0800c1d8        0x0 d:/programmer/gcc-arm-none-eabi/bin/../lib/gcc/arm-none-eabi/10.2.1/thumb/v7-m/nofp/crtbegin.o

.preinit_array  0x0800c1d8        0x0
                0x0800c1d8                PROVIDE (__preinit_array_start = .)
 *(.preinit_array*)
                0x0800c1d8                PROVIDE (__preinit_array_end = .)

.init_array     0x0800c1d8        0x8
                0x0800c1d8                PROVIDE (__init_array_start = .)
 *(SORT_BY_NAME(.init_array.*))
 .init_array.00000
                0x0800c1d8        0x4 d:/programmer/gcc-arm-none-eabi/bin/../lib/gcc/arm-none-eabi/10.2.1/../../../../arm-none-eabi/lib/thumb/v7-m/nofp\libg.a(lib_a-__call_atexit.o)
 *(.init_array*)
 .init_array    0x0800c1dc        0x4 d:/programmer/gcc-arm-none-eabi/bin/../lib/gcc/arm-none-eabi/10.2.1/thumb/v7-m/nofp/crtbegin.o
                0x0800c1e0                PROVIDE (__init_array_end = .)

.fini_array     0x0800c1e0        0x4
                0x0800c1e0                PROVIDE (__fini_array_start = .)
 *(SORT_BY_NAME(.fini_array.*))
 *(.fini_array*)
 .fini_array    0x0800c1e0        0x4 d:/programmer/gcc-arm-none-eabi/bin/../lib/gcc/arm-none-eabi/10.2.1/thumb/v7-m/nofp/crtbegin.o
                0x0800c1e4                PROVIDE (__fini_array_end = .)
                0x0800c1e4                _sidata = LOADADDR (.data)

.data           0x20000000      0xb04 load address 0x0800c1e4
                0x20000000                . = ALIGN (0x4)
                0x20000000                _sdata = .
 *(.data)
 *(.data*)
 .data.SystemCoreClock
                0x20000000        0x4 CMakeFiles/ban.elf.dir/Core/Src/system_stm32f1xx.c.obj
                0x20000000                SystemCoreClock
 .data.uwTickFreq
                0x20000004        0x1 CMakeFiles/ban.elf.dir/Drivers/STM32F1xx_HAL_Driver/Src/stm32f1xx_hal.c.obj
                0x20000004                uwTickFreq
 *fill*         0x20000005        0x3 
 .data.uwTickPrio
                0x20000008        0x4 CMakeFiles/ban.elf.dir/Drivers/STM32F1xx_HAL_Driver/Src/stm32f1xx_hal.c.obj
                0x20000008                uwTickPrio
 *fill*         0x2000000c        0x4 
 .data.KalmanX  0x20000010       0x48 CMakeFiles/ban.elf.dir/lib/carcontrol/control.c.obj
                0x20000010                KalmanX
 .data.KalmanY  0x20000058       0x48 CMakeFiles/ban.elf.dir/lib/carcontrol/control.c.obj
                0x20000058                KalmanY
 .data.I2C1Handle
                0x200000a0       0x54 CMakeFiles/ban.elf.dir/lib/mpu6050/tm_stm32_i2c.c.obj
 .data.I2C2Handle
                0x200000f4       0x54 CMakeFiles/ban.elf.dir/lib/mpu6050/tm_stm32_i2c.c.obj
 .data.Font_7x10
                0x20000148        0x8 CMakeFiles/ban.elf.dir/lib/oled/fonts.c.obj
                0x20000148                Font_7x10
 .data._impure_ptr
                0x20000150        0x4 d:/programmer/gcc-arm-none-eabi/bin/../lib/gcc/arm-none-eabi/10.2.1/../../../../arm-none-eabi/lib/thumb/v7-m/nofp\libg.a(lib_a-impure.o)
                0x20000150                _impure_ptr
 *fill*         0x20000154        0x4 
 .data.impure_data
                0x20000158      0x428 d:/programmer/gcc-arm-none-eabi/bin/../lib/gcc/arm-none-eabi/10.2.1/../../../../arm-none-eabi/lib/thumb/v7-m/nofp\libg.a(lib_a-impure.o)
 .data.__atexit_recursive_mutex
                0x20000580        0x4 d:/programmer/gcc-arm-none-eabi/bin/../lib/gcc/arm-none-eabi/10.2.1/../../../../arm-none-eabi/lib/thumb/v7-m/nofp\libg.a(lib_a-__call_atexit.o)
                0x20000580                __atexit_recursive_mutex
 .data.__malloc_av_
                0x20000584      0x408 d:/programmer/gcc-arm-none-eabi/bin/../lib/gcc/arm-none-eabi/10.2.1/../../../../arm-none-eabi/lib/thumb/v7-m/nofp\libg.a(lib_a-mallocr.o)
                0x20000584                __malloc_av_
 .data.__malloc_sbrk_base
                0x2000098c        0x4 d:/programmer/gcc-arm-none-eabi/bin/../lib/gcc/arm-none-eabi/10.2.1/../../../../arm-none-eabi/lib/thumb/v7-m/nofp\libg.a(lib_a-mallocr.o)
                0x2000098c                __malloc_sbrk_base
 .data.__malloc_trim_threshold
                0x20000990        0x4 d:/programmer/gcc-arm-none-eabi/bin/../lib/gcc/arm-none-eabi/10.2.1/../../../../arm-none-eabi/lib/thumb/v7-m/nofp\libg.a(lib_a-mallocr.o)
                0x20000990                __malloc_trim_threshold
 .data.__global_locale
                0x20000994      0x16c d:/programmer/gcc-arm-none-eabi/bin/../lib/gcc/arm-none-eabi/10.2.1/../../../../arm-none-eabi/lib/thumb/v7-m/nofp\libg.a(lib_a-locale.o)
                0x20000994                __global_locale
 .data.__fdlib_version
                0x20000b00        0x1 d:/programmer/gcc-arm-none-eabi/bin/../lib/gcc/arm-none-eabi/10.2.1/../../../../arm-none-eabi/lib/thumb/v7-m/nofp\libm.a(lib_a-s_lib_ver.o)
                0x20000b00                __fdlib_version
                0x20000b04                . = ALIGN (0x4)
 *fill*         0x20000b01        0x3 
                0x20000b04                _edata = .

.igot.plt       0x20000b04        0x0 load address 0x0800cce8
 .igot.plt      0x20000b04        0x0 d:/programmer/gcc-arm-none-eabi/bin/../lib/gcc/arm-none-eabi/10.2.1/thumb/v7-m/nofp/crtbegin.o
                0x20000b04                . = ALIGN (0x4)

.bss            0x20000b08      0x6e0 load address 0x0800cce8
                0x20000b08                _sbss = .
                0x20000b08                __bss_start__ = _sbss
 *(.bss)
 .bss           0x20000b08       0x1c d:/programmer/gcc-arm-none-eabi/bin/../lib/gcc/arm-none-eabi/10.2.1/thumb/v7-m/nofp/crtbegin.o
 *(.bss*)
 .bss.hi2c1     0x20000b24       0x54 CMakeFiles/ban.elf.dir/Core/Src/i2c.c.obj
                0x20000b24                hi2c1
 .bss.hi2c2     0x20000b78       0x54 CMakeFiles/ban.elf.dir/Core/Src/i2c.c.obj
                0x20000b78                hi2c2
 *fill*         0x20000bcc        0x4 
 .bss.MPU6050   0x20000bd0       0x68 CMakeFiles/ban.elf.dir/Core/Src/main.c.obj
                0x20000bd0                MPU6050
 .bss.MPU6050_Interrupts
                0x20000c38        0x1 CMakeFiles/ban.elf.dir/Core/Src/main.c.obj
                0x20000c38                MPU6050_Interrupts
 *fill*         0x20000c39        0x3 
 .bss.OLEDString
                0x20000c3c        0x8 CMakeFiles/ban.elf.dir/Core/Src/main.c.obj
                0x20000c3c                OLEDString
 .bss.heap_end.0
                0x20000c44        0x4 CMakeFiles/ban.elf.dir/Core/Src/syscalls.c.obj
 .bss.htim1     0x20000c48       0x48 CMakeFiles/ban.elf.dir/Core/Src/tim.c.obj
                0x20000c48                htim1
 .bss.htim2     0x20000c90       0x48 CMakeFiles/ban.elf.dir/Core/Src/tim.c.obj
                0x20000c90                htim2
 .bss.htim4     0x20000cd8       0x48 CMakeFiles/ban.elf.dir/Core/Src/tim.c.obj
                0x20000cd8                htim4
 .bss.huart2    0x20000d20       0x44 CMakeFiles/ban.elf.dir/Core/Src/usart.c.obj
                0x20000d20                huart2
 .bss.uwTick    0x20000d64        0x4 CMakeFiles/ban.elf.dir/Drivers/STM32F1xx_HAL_Driver/Src/stm32f1xx_hal.c.obj
                0x20000d64                uwTick
 .bss.Balance_Pwm
                0x20000d68        0x4 CMakeFiles/ban.elf.dir/lib/carcontrol/control.c.obj
                0x20000d68                Balance_Pwm
 .bss.Encoder.2
                0x20000d6c        0x4 CMakeFiles/ban.elf.dir/lib/carcontrol/control.c.obj
 .bss.Encoder_Integral.1
                0x20000d70        0x4 CMakeFiles/ban.elf.dir/lib/carcontrol/control.c.obj
 .bss.Encoder_Least.3
                0x20000d74        0x4 CMakeFiles/ban.elf.dir/lib/carcontrol/control.c.obj
 .bss.Encoder_Left
                0x20000d78        0x4 CMakeFiles/ban.elf.dir/lib/carcontrol/control.c.obj
                0x20000d78                Encoder_Left
 .bss.Encoder_Right
                0x20000d7c        0x4 CMakeFiles/ban.elf.dir/lib/carcontrol/control.c.obj
                0x20000d7c                Encoder_Right
 .bss.Velocity.0
                0x20000d80        0x4 CMakeFiles/ban.elf.dir/lib/carcontrol/control.c.obj
 .bss.Velocity_Pwm
                0x20000d84        0x4 CMakeFiles/ban.elf.dir/lib/carcontrol/control.c.obj
                0x20000d84                Velocity_Pwm
 .bss.speedL    0x20000d88        0x4 CMakeFiles/ban.elf.dir/lib/carcontrol/control.c.obj
                0x20000d88                speedL
 .bss.speedR    0x20000d8c        0x4 CMakeFiles/ban.elf.dir/lib/carcontrol/control.c.obj
                0x20000d8c                speedR
 .bss.timer     0x20000d90        0x4 CMakeFiles/ban.elf.dir/lib/carcontrol/control.c.obj
                0x20000d90                timer
 .bss.SSD1306   0x20000d94        0x6 CMakeFiles/ban.elf.dir/lib/oled/ssd1306.c.obj
 *fill*         0x20000d9a        0x2 
 .bss.SSD1306_Buffer
                0x20000d9c      0x400 CMakeFiles/ban.elf.dir/lib/oled/ssd1306.c.obj
 .bss.gHuart    0x2000119c        0x4 CMakeFiles/ban.elf.dir/lib/print/retarget.c.obj
                0x2000119c                gHuart
 .bss.__lock___atexit_recursive_mutex
                0x200011a0        0x1 d:/programmer/gcc-arm-none-eabi/bin/../lib/gcc/arm-none-eabi/10.2.1/../../../../arm-none-eabi/lib/thumb/v7-m/nofp\libg.a(lib_a-lock.o)
                0x200011a0                __lock___atexit_recursive_mutex
 *fill*         0x200011a1        0x3 
 .bss.__lock___malloc_recursive_mutex
                0x200011a4        0x1 d:/programmer/gcc-arm-none-eabi/bin/../lib/gcc/arm-none-eabi/10.2.1/../../../../arm-none-eabi/lib/thumb/v7-m/nofp\libg.a(lib_a-lock.o)
                0x200011a4                __lock___malloc_recursive_mutex
 *fill*         0x200011a5        0x3 
 .bss.__lock___sfp_recursive_mutex
                0x200011a8        0x1 d:/programmer/gcc-arm-none-eabi/bin/../lib/gcc/arm-none-eabi/10.2.1/../../../../arm-none-eabi/lib/thumb/v7-m/nofp\libg.a(lib_a-lock.o)
                0x200011a8                __lock___sfp_recursive_mutex
 *fill*         0x200011a9        0x3 
 .bss.__lock___sinit_recursive_mutex
                0x200011ac        0x1 d:/programmer/gcc-arm-none-eabi/bin/../lib/gcc/arm-none-eabi/10.2.1/../../../../arm-none-eabi/lib/thumb/v7-m/nofp\libg.a(lib_a-lock.o)
                0x200011ac                __lock___sinit_recursive_mutex
 *fill*         0x200011ad        0x3 
 .bss.__malloc_current_mallinfo
                0x200011b0       0x28 d:/programmer/gcc-arm-none-eabi/bin/../lib/gcc/arm-none-eabi/10.2.1/../../../../arm-none-eabi/lib/thumb/v7-m/nofp\libg.a(lib_a-mallocr.o)
                0x200011b0                __malloc_current_mallinfo
 .bss.__malloc_max_sbrked_mem
                0x200011d8        0x4 d:/programmer/gcc-arm-none-eabi/bin/../lib/gcc/arm-none-eabi/10.2.1/../../../../arm-none-eabi/lib/thumb/v7-m/nofp\libg.a(lib_a-mallocr.o)
                0x200011d8                __malloc_max_sbrked_mem
 .bss.__malloc_max_total_mem
                0x200011dc        0x4 d:/programmer/gcc-arm-none-eabi/bin/../lib/gcc/arm-none-eabi/10.2.1/../../../../arm-none-eabi/lib/thumb/v7-m/nofp\libg.a(lib_a-mallocr.o)
                0x200011dc                __malloc_max_total_mem
 .bss.__malloc_top_pad
                0x200011e0        0x4 d:/programmer/gcc-arm-none-eabi/bin/../lib/gcc/arm-none-eabi/10.2.1/../../../../arm-none-eabi/lib/thumb/v7-m/nofp\libg.a(lib_a-mallocr.o)
                0x200011e0                __malloc_top_pad
 .bss.errno     0x200011e4        0x4 d:/programmer/gcc-arm-none-eabi/bin/../lib/gcc/arm-none-eabi/10.2.1/../../../../arm-none-eabi/lib/thumb/v7-m/nofp\libg.a(lib_a-reent.o)
                0x200011e4                errno
 *(COMMON)
                0x200011e8                . = ALIGN (0x4)
                0x200011e8                _ebss = .
                0x200011e8                __bss_end__ = _ebss

._user_heap_stack
                0x200011e8      0x600 load address 0x0800cce8
                0x200011e8                . = ALIGN (0x8)
                0x200011e8                PROVIDE (end = .)
                [!provide]                PROVIDE (_end = .)
                0x200013e8                . = (. + _Min_Heap_Size)
 *fill*         0x200011e8      0x200 
                0x200017e8                . = (. + _Min_Stack_Size)
 *fill*         0x200013e8      0x400 
                0x200017e8                . = ALIGN (0x8)

/DISCARD/
 libc.a(*)
 libm.a(*)
 libgcc.a(*)

.ARM.attributes
                0x00000000       0x29
 *(.ARM.attributes)
 .ARM.attributes
                0x00000000       0x1d d:/programmer/gcc-arm-none-eabi/bin/../lib/gcc/arm-none-eabi/10.2.1/thumb/v7-m/nofp/crti.o
 .ARM.attributes
                0x0000001d       0x2d d:/programmer/gcc-arm-none-eabi/bin/../lib/gcc/arm-none-eabi/10.2.1/thumb/v7-m/nofp/crtbegin.o
 .ARM.attributes
                0x0000004a       0x2d CMakeFiles/ban.elf.dir/Core/Src/gpio.c.obj
 .ARM.attributes
                0x00000077       0x2d CMakeFiles/ban.elf.dir/Core/Src/i2c.c.obj
 .ARM.attributes
                0x000000a4       0x2d CMakeFiles/ban.elf.dir/Core/Src/main.c.obj
 .ARM.attributes
                0x000000d1       0x2d CMakeFiles/ban.elf.dir/Core/Src/stm32f1xx_hal_msp.c.obj
 .ARM.attributes
                0x000000fe       0x2d CMakeFiles/ban.elf.dir/Core/Src/stm32f1xx_it.c.obj
 .ARM.attributes
                0x0000012b       0x2d CMakeFiles/ban.elf.dir/Core/Src/syscalls.c.obj
 .ARM.attributes
                0x00000158       0x2d CMakeFiles/ban.elf.dir/Core/Src/system_stm32f1xx.c.obj
 .ARM.attributes
                0x00000185       0x2d CMakeFiles/ban.elf.dir/Core/Src/tim.c.obj
 .ARM.attributes
                0x000001b2       0x2d CMakeFiles/ban.elf.dir/Core/Src/usart.c.obj
 .ARM.attributes
                0x000001df       0x2d CMakeFiles/ban.elf.dir/Drivers/STM32F1xx_HAL_Driver/Src/stm32f1xx_hal.c.obj
 .ARM.attributes
                0x0000020c       0x2d CMakeFiles/ban.elf.dir/Drivers/STM32F1xx_HAL_Driver/Src/stm32f1xx_hal_cortex.c.obj
 .ARM.attributes
                0x00000239       0x2d CMakeFiles/ban.elf.dir/Drivers/STM32F1xx_HAL_Driver/Src/stm32f1xx_hal_gpio.c.obj
 .ARM.attributes
                0x00000266       0x2d CMakeFiles/ban.elf.dir/Drivers/STM32F1xx_HAL_Driver/Src/stm32f1xx_hal_i2c.c.obj
 .ARM.attributes
                0x00000293       0x2d CMakeFiles/ban.elf.dir/Drivers/STM32F1xx_HAL_Driver/Src/stm32f1xx_hal_rcc.c.obj
 .ARM.attributes
                0x000002c0       0x2d CMakeFiles/ban.elf.dir/Drivers/STM32F1xx_HAL_Driver/Src/stm32f1xx_hal_tim.c.obj
 .ARM.attributes
                0x000002ed       0x2d CMakeFiles/ban.elf.dir/Drivers/STM32F1xx_HAL_Driver/Src/stm32f1xx_hal_tim_ex.c.obj
 .ARM.attributes
                0x0000031a       0x2d CMakeFiles/ban.elf.dir/Drivers/STM32F1xx_HAL_Driver/Src/stm32f1xx_hal_uart.c.obj
 .ARM.attributes
                0x00000347       0x2d CMakeFiles/ban.elf.dir/lib/carcontrol/control.c.obj
 .ARM.attributes
                0x00000374       0x2d CMakeFiles/ban.elf.dir/lib/mpu6050/mpu6050.c.obj
 .ARM.attributes
                0x000003a1       0x2d CMakeFiles/ban.elf.dir/lib/mpu6050/tm_stm32_i2c.c.obj
 .ARM.attributes
                0x000003ce       0x2d CMakeFiles/ban.elf.dir/lib/oled/fonts.c.obj
 .ARM.attributes
                0x000003fb       0x2d CMakeFiles/ban.elf.dir/lib/oled/ssd1306.c.obj
 .ARM.attributes
                0x00000428       0x2d CMakeFiles/ban.elf.dir/lib/print/retarget.c.obj
 .ARM.attributes
                0x00000455       0x21 CMakeFiles/ban.elf.dir/startup/startup_stm32f103xb.s.obj
 .ARM.attributes
                0x00000476       0x1d d:/programmer/gcc-arm-none-eabi/bin/../lib/gcc/arm-none-eabi/10.2.1/thumb/v7-m/nofp\libgcc.a(_arm_addsubdf3.o)
 .ARM.attributes
                0x00000493       0x1d d:/programmer/gcc-arm-none-eabi/bin/../lib/gcc/arm-none-eabi/10.2.1/thumb/v7-m/nofp\libgcc.a(_arm_muldivdf3.o)
 .ARM.attributes
                0x000004b0       0x1d d:/programmer/gcc-arm-none-eabi/bin/../lib/gcc/arm-none-eabi/10.2.1/thumb/v7-m/nofp\libgcc.a(_arm_cmpdf2.o)
 .ARM.attributes
                0x000004cd       0x1d d:/programmer/gcc-arm-none-eabi/bin/../lib/gcc/arm-none-eabi/10.2.1/thumb/v7-m/nofp\libgcc.a(_arm_fixdfsi.o)
 .ARM.attributes
                0x000004ea       0x1d d:/programmer/gcc-arm-none-eabi/bin/../lib/gcc/arm-none-eabi/10.2.1/thumb/v7-m/nofp\libgcc.a(_arm_truncdfsf2.o)
 .ARM.attributes
                0x00000507       0x1d d:/programmer/gcc-arm-none-eabi/bin/../lib/gcc/arm-none-eabi/10.2.1/thumb/v7-m/nofp\libgcc.a(_arm_addsubsf3.o)
 .ARM.attributes
                0x00000524       0x1d d:/programmer/gcc-arm-none-eabi/bin/../lib/gcc/arm-none-eabi/10.2.1/thumb/v7-m/nofp\libgcc.a(_arm_muldivsf3.o)
 .ARM.attributes
                0x00000541       0x1d d:/programmer/gcc-arm-none-eabi/bin/../lib/gcc/arm-none-eabi/10.2.1/thumb/v7-m/nofp\libgcc.a(_arm_cmpsf2.o)
 .ARM.attributes
                0x0000055e       0x1d d:/programmer/gcc-arm-none-eabi/bin/../lib/gcc/arm-none-eabi/10.2.1/thumb/v7-m/nofp\libgcc.a(_arm_fixsfsi.o)
 .ARM.attributes
                0x0000057b       0x2d d:/programmer/gcc-arm-none-eabi/bin/../lib/gcc/arm-none-eabi/10.2.1/../../../../arm-none-eabi/lib/thumb/v7-m/nofp\libg.a(lib_a-errno.o)
 .ARM.attributes
                0x000005a8       0x2d d:/programmer/gcc-arm-none-eabi/bin/../lib/gcc/arm-none-eabi/10.2.1/../../../../arm-none-eabi/lib/thumb/v7-m/nofp\libg.a(lib_a-impure.o)
 .ARM.attributes
                0x000005d5       0x2d d:/programmer/gcc-arm-none-eabi/bin/../lib/gcc/arm-none-eabi/10.2.1/../../../../arm-none-eabi/lib/thumb/v7-m/nofp\libg.a(lib_a-init.o)
 .ARM.attributes
                0x00000602       0x2d d:/programmer/gcc-arm-none-eabi/bin/../lib/gcc/arm-none-eabi/10.2.1/../../../../arm-none-eabi/lib/thumb/v7-m/nofp\libg.a(lib_a-memset.o)
 .ARM.attributes
                0x0000062f       0x2d d:/programmer/gcc-arm-none-eabi/bin/../lib/gcc/arm-none-eabi/10.2.1/../../../../arm-none-eabi/lib/thumb/v7-m/nofp\libg.a(lib_a-snprintf.o)
 .ARM.attributes
                0x0000065c       0x2d d:/programmer/gcc-arm-none-eabi/bin/../lib/gcc/arm-none-eabi/10.2.1/../../../../arm-none-eabi/lib/thumb/v7-m/nofp\libg.a(lib_a-strlen-stub.o)
 .ARM.attributes
                0x00000689       0x2d d:/programmer/gcc-arm-none-eabi/bin/../lib/gcc/arm-none-eabi/10.2.1/../../../../arm-none-eabi/lib/thumb/v7-m/nofp\libg.a(lib_a-svfprintf.o)
 .ARM.attributes
                0x000006b6       0x2d d:/programmer/gcc-arm-none-eabi/bin/../lib/gcc/arm-none-eabi/10.2.1/../../../../arm-none-eabi/lib/thumb/v7-m/nofp\libg.a(lib_a-__call_atexit.o)
 .ARM.attributes
                0x000006e3       0x2d d:/programmer/gcc-arm-none-eabi/bin/../lib/gcc/arm-none-eabi/10.2.1/../../../../arm-none-eabi/lib/thumb/v7-m/nofp\libg.a(lib_a-atexit.o)
 .ARM.attributes
                0x00000710       0x2d d:/programmer/gcc-arm-none-eabi/bin/../lib/gcc/arm-none-eabi/10.2.1/../../../../arm-none-eabi/lib/thumb/v7-m/nofp\libg.a(lib_a-dtoa.o)
 .ARM.attributes
                0x0000073d       0x2d d:/programmer/gcc-arm-none-eabi/bin/../lib/gcc/arm-none-eabi/10.2.1/../../../../arm-none-eabi/lib/thumb/v7-m/nofp\libg.a(lib_a-fflush.o)
 .ARM.attributes
                0x0000076a       0x2d d:/programmer/gcc-arm-none-eabi/bin/../lib/gcc/arm-none-eabi/10.2.1/../../../../arm-none-eabi/lib/thumb/v7-m/nofp\libg.a(lib_a-findfp.o)
 .ARM.attributes
                0x00000797       0x2d d:/programmer/gcc-arm-none-eabi/bin/../lib/gcc/arm-none-eabi/10.2.1/../../../../arm-none-eabi/lib/thumb/v7-m/nofp\libg.a(lib_a-fini.o)
 .ARM.attributes
                0x000007c4       0x2d d:/programmer/gcc-arm-none-eabi/bin/../lib/gcc/arm-none-eabi/10.2.1/../../../../arm-none-eabi/lib/thumb/v7-m/nofp\libg.a(lib_a-freer.o)
 .ARM.attributes
                0x000007f1       0x2d d:/programmer/gcc-arm-none-eabi/bin/../lib/gcc/arm-none-eabi/10.2.1/../../../../arm-none-eabi/lib/thumb/v7-m/nofp\libg.a(lib_a-fwalk.o)
 .ARM.attributes
                0x0000081e       0x2d d:/programmer/gcc-arm-none-eabi/bin/../lib/gcc/arm-none-eabi/10.2.1/../../../../arm-none-eabi/lib/thumb/v7-m/nofp\libg.a(lib_a-localeconv.o)
 .ARM.attributes
                0x0000084b       0x2d d:/programmer/gcc-arm-none-eabi/bin/../lib/gcc/arm-none-eabi/10.2.1/../../../../arm-none-eabi/lib/thumb/v7-m/nofp\libg.a(lib_a-lock.o)
 .ARM.attributes
                0x00000878       0x2d d:/programmer/gcc-arm-none-eabi/bin/../lib/gcc/arm-none-eabi/10.2.1/../../../../arm-none-eabi/lib/thumb/v7-m/nofp\libg.a(lib_a-makebuf.o)
 .ARM.attributes
                0x000008a5       0x2d d:/programmer/gcc-arm-none-eabi/bin/../lib/gcc/arm-none-eabi/10.2.1/../../../../arm-none-eabi/lib/thumb/v7-m/nofp\libg.a(lib_a-mallocr.o)
 .ARM.attributes
                0x000008d2       0x2d d:/programmer/gcc-arm-none-eabi/bin/../lib/gcc/arm-none-eabi/10.2.1/../../../../arm-none-eabi/lib/thumb/v7-m/nofp\libg.a(lib_a-memchr-stub.o)
 .ARM.attributes
                0x000008ff       0x1b d:/programmer/gcc-arm-none-eabi/bin/../lib/gcc/arm-none-eabi/10.2.1/../../../../arm-none-eabi/lib/thumb/v7-m/nofp\libg.a(lib_a-memcpy.o)
 .ARM.attributes
                0x0000091a       0x2d d:/programmer/gcc-arm-none-eabi/bin/../lib/gcc/arm-none-eabi/10.2.1/../../../../arm-none-eabi/lib/thumb/v7-m/nofp\libg.a(lib_a-mlock.o)
 .ARM.attributes
                0x00000947       0x2d d:/programmer/gcc-arm-none-eabi/bin/../lib/gcc/arm-none-eabi/10.2.1/../../../../arm-none-eabi/lib/thumb/v7-m/nofp\libg.a(lib_a-mprec.o)
 .ARM.attributes
                0x00000974       0x2d d:/programmer/gcc-arm-none-eabi/bin/../lib/gcc/arm-none-eabi/10.2.1/../../../../arm-none-eabi/lib/thumb/v7-m/nofp\libg.a(lib_a-s_frexp.o)
 .ARM.attributes
                0x000009a1       0x2d d:/programmer/gcc-arm-none-eabi/bin/../lib/gcc/arm-none-eabi/10.2.1/../../../../arm-none-eabi/lib/thumb/v7-m/nofp\libg.a(lib_a-sbrkr.o)
 .ARM.attributes
                0x000009ce       0x2d d:/programmer/gcc-arm-none-eabi/bin/../lib/gcc/arm-none-eabi/10.2.1/../../../../arm-none-eabi/lib/thumb/v7-m/nofp\libg.a(lib_a-stdio.o)
 .ARM.attributes
                0x000009fb       0x2d d:/programmer/gcc-arm-none-eabi/bin/../lib/gcc/arm-none-eabi/10.2.1/../../../../arm-none-eabi/lib/thumb/v7-m/nofp\libg.a(lib_a-strncpy.o)
 .ARM.attributes
                0x00000a28       0x2d d:/programmer/gcc-arm-none-eabi/bin/../lib/gcc/arm-none-eabi/10.2.1/../../../../arm-none-eabi/lib/thumb/v7-m/nofp\libg.a(lib_a-svfiprintf.o)
 .ARM.attributes
                0x00000a55       0x2d d:/programmer/gcc-arm-none-eabi/bin/../lib/gcc/arm-none-eabi/10.2.1/../../../../arm-none-eabi/lib/thumb/v7-m/nofp\libg.a(lib_a-writer.o)
 .ARM.attributes
                0x00000a82       0x2d d:/programmer/gcc-arm-none-eabi/bin/../lib/gcc/arm-none-eabi/10.2.1/../../../../arm-none-eabi/lib/thumb/v7-m/nofp\libg.a(lib_a-__atexit.o)
 .ARM.attributes
                0x00000aaf       0x2d d:/programmer/gcc-arm-none-eabi/bin/../lib/gcc/arm-none-eabi/10.2.1/../../../../arm-none-eabi/lib/thumb/v7-m/nofp\libg.a(lib_a-assert.o)
 .ARM.attributes
                0x00000adc       0x2d d:/programmer/gcc-arm-none-eabi/bin/../lib/gcc/arm-none-eabi/10.2.1/../../../../arm-none-eabi/lib/thumb/v7-m/nofp\libg.a(lib_a-callocr.o)
 .ARM.attributes
                0x00000b09       0x2d d:/programmer/gcc-arm-none-eabi/bin/../lib/gcc/arm-none-eabi/10.2.1/../../../../arm-none-eabi/lib/thumb/v7-m/nofp\libg.a(lib_a-closer.o)
 .ARM.attributes
                0x00000b36       0x2d d:/programmer/gcc-arm-none-eabi/bin/../lib/gcc/arm-none-eabi/10.2.1/../../../../arm-none-eabi/lib/thumb/v7-m/nofp\libg.a(lib_a-fclose.o)
 .ARM.attributes
                0x00000b63       0x2d d:/programmer/gcc-arm-none-eabi/bin/../lib/gcc/arm-none-eabi/10.2.1/../../../../arm-none-eabi/lib/thumb/v7-m/nofp\libg.a(lib_a-fiprintf.o)
 .ARM.attributes
                0x00000b90       0x2d d:/programmer/gcc-arm-none-eabi/bin/../lib/gcc/arm-none-eabi/10.2.1/../../../../arm-none-eabi/lib/thumb/v7-m/nofp\libg.a(lib_a-fstatr.o)
 .ARM.attributes
                0x00000bbd       0x2d d:/programmer/gcc-arm-none-eabi/bin/../lib/gcc/arm-none-eabi/10.2.1/../../../../arm-none-eabi/lib/thumb/v7-m/nofp\libg.a(lib_a-isattyr.o)
 .ARM.attributes
                0x00000bea       0x2d d:/programmer/gcc-arm-none-eabi/bin/../lib/gcc/arm-none-eabi/10.2.1/../../../../arm-none-eabi/lib/thumb/v7-m/nofp\libg.a(lib_a-locale.o)
 .ARM.attributes
                0x00000c17       0x2d d:/programmer/gcc-arm-none-eabi/bin/../lib/gcc/arm-none-eabi/10.2.1/../../../../arm-none-eabi/lib/thumb/v7-m/nofp\libg.a(lib_a-lseekr.o)
 .ARM.attributes
                0x00000c44       0x2d d:/programmer/gcc-arm-none-eabi/bin/../lib/gcc/arm-none-eabi/10.2.1/../../../../arm-none-eabi/lib/thumb/v7-m/nofp\libg.a(lib_a-mbtowc_r.o)
 .ARM.attributes
                0x00000c71       0x2d d:/programmer/gcc-arm-none-eabi/bin/../lib/gcc/arm-none-eabi/10.2.1/../../../../arm-none-eabi/lib/thumb/v7-m/nofp\libg.a(lib_a-memmove.o)
 .ARM.attributes
                0x00000c9e       0x2d d:/programmer/gcc-arm-none-eabi/bin/../lib/gcc/arm-none-eabi/10.2.1/../../../../arm-none-eabi/lib/thumb/v7-m/nofp\libg.a(lib_a-readr.o)
 .ARM.attributes
                0x00000ccb       0x2d d:/programmer/gcc-arm-none-eabi/bin/../lib/gcc/arm-none-eabi/10.2.1/../../../../arm-none-eabi/lib/thumb/v7-m/nofp\libg.a(lib_a-reallocr.o)
 .ARM.attributes
                0x00000cf8       0x2d d:/programmer/gcc-arm-none-eabi/bin/../lib/gcc/arm-none-eabi/10.2.1/../../../../arm-none-eabi/lib/thumb/v7-m/nofp\libg.a(lib_a-reent.o)
 .ARM.attributes
                0x00000d25       0x2d d:/programmer/gcc-arm-none-eabi/bin/../lib/gcc/arm-none-eabi/10.2.1/../../../../arm-none-eabi/lib/thumb/v7-m/nofp\libg.a(lib_a-vfiprintf.o)
 .ARM.attributes
                0x00000d52       0x2d d:/programmer/gcc-arm-none-eabi/bin/../lib/gcc/arm-none-eabi/10.2.1/../../../../arm-none-eabi/lib/thumb/v7-m/nofp\libg.a(lib_a-wctomb_r.o)
 .ARM.attributes
                0x00000d7f       0x2d d:/programmer/gcc-arm-none-eabi/bin/../lib/gcc/arm-none-eabi/10.2.1/../../../../arm-none-eabi/lib/thumb/v7-m/nofp\libg.a(lib_a-wsetup.o)
 .ARM.attributes
                0x00000dac       0x2d d:/programmer/gcc-arm-none-eabi/bin/../lib/gcc/arm-none-eabi/10.2.1/../../../../arm-none-eabi/lib/thumb/v7-m/nofp\libg.a(lib_a-abort.o)
 .ARM.attributes
                0x00000dd9       0x2d d:/programmer/gcc-arm-none-eabi/bin/../lib/gcc/arm-none-eabi/10.2.1/../../../../arm-none-eabi/lib/thumb/v7-m/nofp\libg.a(lib_a-ctype_.o)
 .ARM.attributes
                0x00000e06       0x2d d:/programmer/gcc-arm-none-eabi/bin/../lib/gcc/arm-none-eabi/10.2.1/../../../../arm-none-eabi/lib/thumb/v7-m/nofp\libg.a(lib_a-fputwc.o)
 .ARM.attributes
                0x00000e33       0x2d d:/programmer/gcc-arm-none-eabi/bin/../lib/gcc/arm-none-eabi/10.2.1/../../../../arm-none-eabi/lib/thumb/v7-m/nofp\libg.a(lib_a-fvwrite.o)
 .ARM.attributes
                0x00000e60       0x2d d:/programmer/gcc-arm-none-eabi/bin/../lib/gcc/arm-none-eabi/10.2.1/../../../../arm-none-eabi/lib/thumb/v7-m/nofp\libg.a(lib_a-signal.o)
 .ARM.attributes
                0x00000e8d       0x2d d:/programmer/gcc-arm-none-eabi/bin/../lib/gcc/arm-none-eabi/10.2.1/../../../../arm-none-eabi/lib/thumb/v7-m/nofp\libg.a(lib_a-signalr.o)
 .ARM.attributes
                0x00000eba       0x2d d:/programmer/gcc-arm-none-eabi/bin/../lib/gcc/arm-none-eabi/10.2.1/../../../../arm-none-eabi/lib/thumb/v7-m/nofp\libg.a(lib_a-wbuf.o)
 .ARM.attributes
                0x00000ee7       0x2d d:/programmer/gcc-arm-none-eabi/bin/../lib/gcc/arm-none-eabi/10.2.1/../../../../arm-none-eabi/lib/thumb/v7-m/nofp\libg.a(lib_a-wcrtomb.o)
 .ARM.attributes
                0x00000f14       0x1d d:/programmer/gcc-arm-none-eabi/bin/../lib/gcc/arm-none-eabi/10.2.1/thumb/v7-m/nofp\libgcc.a(_arm_unorddf2.o)
 .ARM.attributes
                0x00000f31       0x1d d:/programmer/gcc-arm-none-eabi/bin/../lib/gcc/arm-none-eabi/10.2.1/thumb/v7-m/nofp\libgcc.a(_aeabi_uldivmod.o)
 .ARM.attributes
                0x00000f4e       0x2d d:/programmer/gcc-arm-none-eabi/bin/../lib/gcc/arm-none-eabi/10.2.1/thumb/v7-m/nofp\libgcc.a(_udivmoddi4.o)
 .ARM.attributes
                0x00000f7b       0x1d d:/programmer/gcc-arm-none-eabi/bin/../lib/gcc/arm-none-eabi/10.2.1/thumb/v7-m/nofp\libgcc.a(_dvmd_tls.o)
 .ARM.attributes
                0x00000f98       0x1d d:/programmer/gcc-arm-none-eabi/bin/../lib/gcc/arm-none-eabi/10.2.1/thumb/v7-m/nofp/crtn.o
OUTPUT(ban.elf elf32-littlearm)
LOAD linker stubs
LOAD d:/programmer/gcc-arm-none-eabi/bin/../lib/gcc/arm-none-eabi/10.2.1/../../../../arm-none-eabi/lib/thumb/v7-m/nofp\libc.a
LOAD d:/programmer/gcc-arm-none-eabi/bin/../lib/gcc/arm-none-eabi/10.2.1/../../../../arm-none-eabi/lib/thumb/v7-m/nofp\libm.a
LOAD d:/programmer/gcc-arm-none-eabi/bin/../lib/gcc/arm-none-eabi/10.2.1/thumb/v7-m/nofp\libgcc.a

.debug_info     0x00000000    0x17f07
 .debug_info    0x00000000      0x4a8 CMakeFiles/ban.elf.dir/Core/Src/gpio.c.obj
 .debug_info    0x000004a8      0xa14 CMakeFiles/ban.elf.dir/Core/Src/i2c.c.obj
 .debug_info    0x00000ebc     0x1253 CMakeFiles/ban.elf.dir/Core/Src/main.c.obj
 .debug_info    0x0000210f      0x235 CMakeFiles/ban.elf.dir/Core/Src/stm32f1xx_hal_msp.c.obj
 .debug_info    0x00002344      0x17c CMakeFiles/ban.elf.dir/Core/Src/stm32f1xx_it.c.obj
 .debug_info    0x000024c0      0x750 CMakeFiles/ban.elf.dir/Core/Src/syscalls.c.obj
 .debug_info    0x00002c10      0x248 CMakeFiles/ban.elf.dir/Core/Src/system_stm32f1xx.c.obj
 .debug_info    0x00002e58      0xfd3 CMakeFiles/ban.elf.dir/Core/Src/tim.c.obj
 .debug_info    0x00003e2b      0x825 CMakeFiles/ban.elf.dir/Core/Src/usart.c.obj
 .debug_info    0x00004650      0x7a8 CMakeFiles/ban.elf.dir/Drivers/STM32F1xx_HAL_Driver/Src/stm32f1xx_hal.c.obj
 .debug_info    0x00004df8      0xd8a CMakeFiles/ban.elf.dir/Drivers/STM32F1xx_HAL_Driver/Src/stm32f1xx_hal_cortex.c.obj
 .debug_info    0x00005b82      0x66f CMakeFiles/ban.elf.dir/Drivers/STM32F1xx_HAL_Driver/Src/stm32f1xx_hal_gpio.c.obj
 .debug_info    0x000061f1     0x3a6b CMakeFiles/ban.elf.dir/Drivers/STM32F1xx_HAL_Driver/Src/stm32f1xx_hal_i2c.c.obj
 .debug_info    0x00009c5c      0xa36 CMakeFiles/ban.elf.dir/Drivers/STM32F1xx_HAL_Driver/Src/stm32f1xx_hal_rcc.c.obj
 .debug_info    0x0000a692     0x3b00 CMakeFiles/ban.elf.dir/Drivers/STM32F1xx_HAL_Driver/Src/stm32f1xx_hal_tim.c.obj
 .debug_info    0x0000e192     0x19e9 CMakeFiles/ban.elf.dir/Drivers/STM32F1xx_HAL_Driver/Src/stm32f1xx_hal_tim_ex.c.obj
 .debug_info    0x0000fb7b     0x1c8b CMakeFiles/ban.elf.dir/Drivers/STM32F1xx_HAL_Driver/Src/stm32f1xx_hal_uart.c.obj
 .debug_info    0x00011806     0x11cf CMakeFiles/ban.elf.dir/lib/carcontrol/control.c.obj
 .debug_info    0x000129d5      0xab0 CMakeFiles/ban.elf.dir/lib/mpu6050/mpu6050.c.obj
 .debug_info    0x00013485     0x1355 CMakeFiles/ban.elf.dir/lib/mpu6050/tm_stm32_i2c.c.obj
 .debug_info    0x000147da      0x274 CMakeFiles/ban.elf.dir/lib/oled/fonts.c.obj
 .debug_info    0x00014a4e     0x21f0 CMakeFiles/ban.elf.dir/lib/oled/ssd1306.c.obj
 .debug_info    0x00016c3e     0x12a7 CMakeFiles/ban.elf.dir/lib/print/retarget.c.obj
 .debug_info    0x00017ee5       0x22 CMakeFiles/ban.elf.dir/startup/startup_stm32f103xb.s.obj

.debug_abbrev   0x00000000     0x30a4
 .debug_abbrev  0x00000000      0x158 CMakeFiles/ban.elf.dir/Core/Src/gpio.c.obj
 .debug_abbrev  0x00000158      0x1e7 CMakeFiles/ban.elf.dir/Core/Src/i2c.c.obj
 .debug_abbrev  0x0000033f      0x2e5 CMakeFiles/ban.elf.dir/Core/Src/main.c.obj
 .debug_abbrev  0x00000624      0x108 CMakeFiles/ban.elf.dir/Core/Src/stm32f1xx_hal_msp.c.obj
 .debug_abbrev  0x0000072c       0xb7 CMakeFiles/ban.elf.dir/Core/Src/stm32f1xx_it.c.obj
 .debug_abbrev  0x000007e3      0x1da CMakeFiles/ban.elf.dir/Core/Src/syscalls.c.obj
 .debug_abbrev  0x000009bd      0x13e CMakeFiles/ban.elf.dir/Core/Src/system_stm32f1xx.c.obj
 .debug_abbrev  0x00000afb      0x263 CMakeFiles/ban.elf.dir/Core/Src/tim.c.obj
 .debug_abbrev  0x00000d5e      0x1c1 CMakeFiles/ban.elf.dir/Core/Src/usart.c.obj
 .debug_abbrev  0x00000f1f      0x1f4 CMakeFiles/ban.elf.dir/Drivers/STM32F1xx_HAL_Driver/Src/stm32f1xx_hal.c.obj
 .debug_abbrev  0x00001113      0x341 CMakeFiles/ban.elf.dir/Drivers/STM32F1xx_HAL_Driver/Src/stm32f1xx_hal_cortex.c.obj
 .debug_abbrev  0x00001454      0x1e6 CMakeFiles/ban.elf.dir/Drivers/STM32F1xx_HAL_Driver/Src/stm32f1xx_hal_gpio.c.obj
 .debug_abbrev  0x0000163a      0x293 CMakeFiles/ban.elf.dir/Drivers/STM32F1xx_HAL_Driver/Src/stm32f1xx_hal_i2c.c.obj
 .debug_abbrev  0x000018cd      0x27a CMakeFiles/ban.elf.dir/Drivers/STM32F1xx_HAL_Driver/Src/stm32f1xx_hal_rcc.c.obj
 .debug_abbrev  0x00001b47      0x23e CMakeFiles/ban.elf.dir/Drivers/STM32F1xx_HAL_Driver/Src/stm32f1xx_hal_tim.c.obj
 .debug_abbrev  0x00001d85      0x241 CMakeFiles/ban.elf.dir/Drivers/STM32F1xx_HAL_Driver/Src/stm32f1xx_hal_tim_ex.c.obj
 .debug_abbrev  0x00001fc6      0x254 CMakeFiles/ban.elf.dir/Drivers/STM32F1xx_HAL_Driver/Src/stm32f1xx_hal_uart.c.obj
 .debug_abbrev  0x0000221a      0x2f7 CMakeFiles/ban.elf.dir/lib/carcontrol/control.c.obj
 .debug_abbrev  0x00002511      0x250 CMakeFiles/ban.elf.dir/lib/mpu6050/mpu6050.c.obj
 .debug_abbrev  0x00002761      0x23c CMakeFiles/ban.elf.dir/lib/mpu6050/tm_stm32_i2c.c.obj
 .debug_abbrev  0x0000299d      0x120 CMakeFiles/ban.elf.dir/lib/oled/fonts.c.obj
 .debug_abbrev  0x00002abd      0x321 CMakeFiles/ban.elf.dir/lib/oled/ssd1306.c.obj
 .debug_abbrev  0x00002dde      0x2b4 CMakeFiles/ban.elf.dir/lib/print/retarget.c.obj
 .debug_abbrev  0x00003092       0x12 CMakeFiles/ban.elf.dir/startup/startup_stm32f103xb.s.obj

.debug_aranges  0x00000000     0x1188
 .debug_aranges
                0x00000000       0x20 CMakeFiles/ban.elf.dir/Core/Src/gpio.c.obj
 .debug_aranges
                0x00000020       0x38 CMakeFiles/ban.elf.dir/Core/Src/i2c.c.obj
 .debug_aranges
                0x00000058       0x48 CMakeFiles/ban.elf.dir/Core/Src/main.c.obj
 .debug_aranges
                0x000000a0       0x20 CMakeFiles/ban.elf.dir/Core/Src/stm32f1xx_hal_msp.c.obj
 .debug_aranges
                0x000000c0       0x68 CMakeFiles/ban.elf.dir/Core/Src/stm32f1xx_it.c.obj
 .debug_aranges
                0x00000128       0x90 CMakeFiles/ban.elf.dir/Core/Src/syscalls.c.obj
 .debug_aranges
                0x000001b8       0x28 CMakeFiles/ban.elf.dir/Core/Src/system_stm32f1xx.c.obj
 .debug_aranges
                0x000001e0       0x58 CMakeFiles/ban.elf.dir/Core/Src/tim.c.obj
 .debug_aranges
                0x00000238       0x30 CMakeFiles/ban.elf.dir/Core/Src/usart.c.obj
 .debug_aranges
                0x00000268       0xe0 CMakeFiles/ban.elf.dir/Drivers/STM32F1xx_HAL_Driver/Src/stm32f1xx_hal.c.obj
 .debug_aranges
                0x00000348       0x90 CMakeFiles/ban.elf.dir/Drivers/STM32F1xx_HAL_Driver/Src/stm32f1xx_hal_cortex.c.obj
 .debug_aranges
                0x000003d8       0x58 CMakeFiles/ban.elf.dir/Drivers/STM32F1xx_HAL_Driver/Src/stm32f1xx_hal_gpio.c.obj
 .debug_aranges
                0x00000430      0x2a0 CMakeFiles/ban.elf.dir/Drivers/STM32F1xx_HAL_Driver/Src/stm32f1xx_hal_i2c.c.obj
 .debug_aranges
                0x000006d0       0x90 CMakeFiles/ban.elf.dir/Drivers/STM32F1xx_HAL_Driver/Src/stm32f1xx_hal_rcc.c.obj
 .debug_aranges
                0x00000760      0x3d0 CMakeFiles/ban.elf.dir/Drivers/STM32F1xx_HAL_Driver/Src/stm32f1xx_hal_tim.c.obj
 .debug_aranges
                0x00000b30      0x168 CMakeFiles/ban.elf.dir/Drivers/STM32F1xx_HAL_Driver/Src/stm32f1xx_hal_tim_ex.c.obj
 .debug_aranges
                0x00000c98      0x200 CMakeFiles/ban.elf.dir/Drivers/STM32F1xx_HAL_Driver/Src/stm32f1xx_hal_uart.c.obj
 .debug_aranges
                0x00000e98       0x58 CMakeFiles/ban.elf.dir/lib/carcontrol/control.c.obj
 .debug_aranges
                0x00000ef0       0x70 CMakeFiles/ban.elf.dir/lib/mpu6050/mpu6050.c.obj
 .debug_aranges
                0x00000f60       0x98 CMakeFiles/ban.elf.dir/lib/mpu6050/tm_stm32_i2c.c.obj
 .debug_aranges
                0x00000ff8       0x20 CMakeFiles/ban.elf.dir/lib/oled/fonts.c.obj
 .debug_aranges
                0x00001018       0xf8 CMakeFiles/ban.elf.dir/lib/oled/ssd1306.c.obj
 .debug_aranges
                0x00001110       0x50 CMakeFiles/ban.elf.dir/lib/print/retarget.c.obj
 .debug_aranges
                0x00001160       0x28 CMakeFiles/ban.elf.dir/startup/startup_stm32f103xb.s.obj

.debug_ranges   0x00000000     0x10e0
 .debug_ranges  0x00000000       0x10 CMakeFiles/ban.elf.dir/Core/Src/gpio.c.obj
 .debug_ranges  0x00000010       0x28 CMakeFiles/ban.elf.dir/Core/Src/i2c.c.obj
 .debug_ranges  0x00000038       0x38 CMakeFiles/ban.elf.dir/Core/Src/main.c.obj
 .debug_ranges  0x00000070       0x10 CMakeFiles/ban.elf.dir/Core/Src/stm32f1xx_hal_msp.c.obj
 .debug_ranges  0x00000080       0x58 CMakeFiles/ban.elf.dir/Core/Src/stm32f1xx_it.c.obj
 .debug_ranges  0x000000d8       0x80 CMakeFiles/ban.elf.dir/Core/Src/syscalls.c.obj
 .debug_ranges  0x00000158       0x18 CMakeFiles/ban.elf.dir/Core/Src/system_stm32f1xx.c.obj
 .debug_ranges  0x00000170       0x48 CMakeFiles/ban.elf.dir/Core/Src/tim.c.obj
 .debug_ranges  0x000001b8       0x20 CMakeFiles/ban.elf.dir/Core/Src/usart.c.obj
 .debug_ranges  0x000001d8       0xd0 CMakeFiles/ban.elf.dir/Drivers/STM32F1xx_HAL_Driver/Src/stm32f1xx_hal.c.obj
 .debug_ranges  0x000002a8       0xe0 CMakeFiles/ban.elf.dir/Drivers/STM32F1xx_HAL_Driver/Src/stm32f1xx_hal_cortex.c.obj
 .debug_ranges  0x00000388       0x48 CMakeFiles/ban.elf.dir/Drivers/STM32F1xx_HAL_Driver/Src/stm32f1xx_hal_gpio.c.obj
 .debug_ranges  0x000003d0      0x2a8 CMakeFiles/ban.elf.dir/Drivers/STM32F1xx_HAL_Driver/Src/stm32f1xx_hal_i2c.c.obj
 .debug_ranges  0x00000678       0xa0 CMakeFiles/ban.elf.dir/Drivers/STM32F1xx_HAL_Driver/Src/stm32f1xx_hal_rcc.c.obj
 .debug_ranges  0x00000718      0x3c0 CMakeFiles/ban.elf.dir/Drivers/STM32F1xx_HAL_Driver/Src/stm32f1xx_hal_tim.c.obj
 .debug_ranges  0x00000ad8      0x158 CMakeFiles/ban.elf.dir/Drivers/STM32F1xx_HAL_Driver/Src/stm32f1xx_hal_tim_ex.c.obj
 .debug_ranges  0x00000c30      0x1f0 CMakeFiles/ban.elf.dir/Drivers/STM32F1xx_HAL_Driver/Src/stm32f1xx_hal_uart.c.obj
 .debug_ranges  0x00000e20       0x48 CMakeFiles/ban.elf.dir/lib/carcontrol/control.c.obj
 .debug_ranges  0x00000e68       0x60 CMakeFiles/ban.elf.dir/lib/mpu6050/mpu6050.c.obj
 .debug_ranges  0x00000ec8       0x88 CMakeFiles/ban.elf.dir/lib/mpu6050/tm_stm32_i2c.c.obj
 .debug_ranges  0x00000f50       0x10 CMakeFiles/ban.elf.dir/lib/oled/fonts.c.obj
 .debug_ranges  0x00000f60      0x120 CMakeFiles/ban.elf.dir/lib/oled/ssd1306.c.obj
 .debug_ranges  0x00001080       0x40 CMakeFiles/ban.elf.dir/lib/print/retarget.c.obj
 .debug_ranges  0x000010c0       0x20 CMakeFiles/ban.elf.dir/startup/startup_stm32f103xb.s.obj

.debug_line     0x00000000    0x13955
 .debug_line    0x00000000      0x210 CMakeFiles/ban.elf.dir/Core/Src/gpio.c.obj
 .debug_line    0x00000210      0x3c7 CMakeFiles/ban.elf.dir/Core/Src/i2c.c.obj
 .debug_line    0x000005d7      0x527 CMakeFiles/ban.elf.dir/Core/Src/main.c.obj
 .debug_line    0x00000afe      0x1c2 CMakeFiles/ban.elf.dir/Core/Src/stm32f1xx_hal_msp.c.obj
 .debug_line    0x00000cc0      0x273 CMakeFiles/ban.elf.dir/Core/Src/stm32f1xx_it.c.obj
 .debug_line    0x00000f33      0x3d3 CMakeFiles/ban.elf.dir/Core/Src/syscalls.c.obj
 .debug_line    0x00001306      0x236 CMakeFiles/ban.elf.dir/Core/Src/system_stm32f1xx.c.obj
 .debug_line    0x0000153c      0x656 CMakeFiles/ban.elf.dir/Core/Src/tim.c.obj
 .debug_line    0x00001b92      0x315 CMakeFiles/ban.elf.dir/Core/Src/usart.c.obj
 .debug_line    0x00001ea7      0x550 CMakeFiles/ban.elf.dir/Drivers/STM32F1xx_HAL_Driver/Src/stm32f1xx_hal.c.obj
 .debug_line    0x000023f7      0x642 CMakeFiles/ban.elf.dir/Drivers/STM32F1xx_HAL_Driver/Src/stm32f1xx_hal_cortex.c.obj
 .debug_line    0x00002a39      0x5ec CMakeFiles/ban.elf.dir/Drivers/STM32F1xx_HAL_Driver/Src/stm32f1xx_hal_gpio.c.obj
 .debug_line    0x00003025     0x553c CMakeFiles/ban.elf.dir/Drivers/STM32F1xx_HAL_Driver/Src/stm32f1xx_hal_i2c.c.obj
 .debug_line    0x00008561      0xc35 CMakeFiles/ban.elf.dir/Drivers/STM32F1xx_HAL_Driver/Src/stm32f1xx_hal_rcc.c.obj
 .debug_line    0x00009196     0x4669 CMakeFiles/ban.elf.dir/Drivers/STM32F1xx_HAL_Driver/Src/stm32f1xx_hal_tim.c.obj
 .debug_line    0x0000d7ff     0x1b67 CMakeFiles/ban.elf.dir/Drivers/STM32F1xx_HAL_Driver/Src/stm32f1xx_hal_tim_ex.c.obj
 .debug_line    0x0000f366     0x20c4 CMakeFiles/ban.elf.dir/Drivers/STM32F1xx_HAL_Driver/Src/stm32f1xx_hal_uart.c.obj
 .debug_line    0x0001142a      0x6b3 CMakeFiles/ban.elf.dir/lib/carcontrol/control.c.obj
 .debug_line    0x00011add      0x4c6 CMakeFiles/ban.elf.dir/lib/mpu6050/mpu6050.c.obj
 .debug_line    0x00011fa3      0x634 CMakeFiles/ban.elf.dir/lib/mpu6050/tm_stm32_i2c.c.obj
 .debug_line    0x000125d7      0x164 CMakeFiles/ban.elf.dir/lib/oled/fonts.c.obj
 .debug_line    0x0001273b      0xd52 CMakeFiles/ban.elf.dir/lib/oled/ssd1306.c.obj
 .debug_line    0x0001348d      0x432 CMakeFiles/ban.elf.dir/lib/print/retarget.c.obj
 .debug_line    0x000138bf       0x96 CMakeFiles/ban.elf.dir/startup/startup_stm32f103xb.s.obj

.debug_str      0x00000000     0x5621
 .debug_str     0x00000000      0x553 CMakeFiles/ban.elf.dir/Core/Src/gpio.c.obj
                                0x5a4 (size before relaxing)
 .debug_str     0x00000553      0x505 CMakeFiles/ban.elf.dir/Core/Src/i2c.c.obj
                                0x79f (size before relaxing)
 .debug_str     0x00000a58      0x90f CMakeFiles/ban.elf.dir/Core/Src/main.c.obj
                                0xd94 (size before relaxing)
 .debug_str     0x00001367       0x5f CMakeFiles/ban.elf.dir/Core/Src/stm32f1xx_hal_msp.c.obj
                                0x266 (size before relaxing)
 .debug_str     0x000013c6       0xfb CMakeFiles/ban.elf.dir/Core/Src/stm32f1xx_it.c.obj
                                0x28e (size before relaxing)
 .debug_str     0x000014c1      0x237 CMakeFiles/ban.elf.dir/Core/Src/syscalls.c.obj
                                0x42d (size before relaxing)
 .debug_str     0x000016f8       0x94 CMakeFiles/ban.elf.dir/Core/Src/system_stm32f1xx.c.obj
                                0x27e (size before relaxing)
 .debug_str     0x0000178c      0x397 CMakeFiles/ban.elf.dir/Core/Src/tim.c.obj
                                0xb45 (size before relaxing)
 .debug_str     0x00001b23      0x222 CMakeFiles/ban.elf.dir/Core/Src/usart.c.obj
                                0x6c2 (size before relaxing)
 .debug_str     0x00001d45      0x302 CMakeFiles/ban.elf.dir/Drivers/STM32F1xx_HAL_Driver/Src/stm32f1xx_hal.c.obj
                                0x84e (size before relaxing)
 .debug_str     0x00002047      0x3c8 CMakeFiles/ban.elf.dir/Drivers/STM32F1xx_HAL_Driver/Src/stm32f1xx_hal_cortex.c.obj
                                0x8fd (size before relaxing)
 .debug_str     0x0000240f      0x112 CMakeFiles/ban.elf.dir/Drivers/STM32F1xx_HAL_Driver/Src/stm32f1xx_hal_gpio.c.obj
                                0x42a (size before relaxing)
 .debug_str     0x00002521      0x905 CMakeFiles/ban.elf.dir/Drivers/STM32F1xx_HAL_Driver/Src/stm32f1xx_hal_i2c.c.obj
                                0xfe2 (size before relaxing)
 .debug_str     0x00002e26      0x1ea CMakeFiles/ban.elf.dir/Drivers/STM32F1xx_HAL_Driver/Src/stm32f1xx_hal_rcc.c.obj
                                0x655 (size before relaxing)
 .debug_str     0x00003010      0xcd1 CMakeFiles/ban.elf.dir/Drivers/STM32F1xx_HAL_Driver/Src/stm32f1xx_hal_tim.c.obj
                               0x1662 (size before relaxing)
 .debug_str     0x00003ce1      0x488 CMakeFiles/ban.elf.dir/Drivers/STM32F1xx_HAL_Driver/Src/stm32f1xx_hal_tim_ex.c.obj
                                0xe63 (size before relaxing)
 .debug_str     0x00004169      0x60b CMakeFiles/ban.elf.dir/Drivers/STM32F1xx_HAL_Driver/Src/stm32f1xx_hal_uart.c.obj
                                0xcb8 (size before relaxing)
 .debug_str     0x00004774      0x2e5 CMakeFiles/ban.elf.dir/lib/carcontrol/control.c.obj
                                0xb5d (size before relaxing)
 .debug_str     0x00004a59      0x20f CMakeFiles/ban.elf.dir/lib/mpu6050/mpu6050.c.obj
                                0x7f7 (size before relaxing)
 .debug_str     0x00004c68      0x1f3 CMakeFiles/ban.elf.dir/lib/mpu6050/tm_stm32_i2c.c.obj
                                0x9b6 (size before relaxing)
 .debug_str     0x00004e5b       0x95 CMakeFiles/ban.elf.dir/lib/oled/fonts.c.obj
                                0x27b (size before relaxing)
 .debug_str     0x00004ef0      0x2f7 CMakeFiles/ban.elf.dir/lib/oled/ssd1306.c.obj
                                0x9f3 (size before relaxing)
 .debug_str     0x000051e7      0x3f5 CMakeFiles/ban.elf.dir/lib/print/retarget.c.obj
                                0xb3e (size before relaxing)
 .debug_str     0x000055dc       0x45 CMakeFiles/ban.elf.dir/startup/startup_stm32f103xb.s.obj
                                 0x70 (size before relaxing)

.comment        0x00000000       0x4d
 .comment       0x00000000       0x4d CMakeFiles/ban.elf.dir/Core/Src/gpio.c.obj
                                 0x4e (size before relaxing)
 .comment       0x0000004d       0x4e CMakeFiles/ban.elf.dir/Core/Src/i2c.c.obj
 .comment       0x0000004d       0x4e CMakeFiles/ban.elf.dir/Core/Src/main.c.obj
 .comment       0x0000004d       0x4e CMakeFiles/ban.elf.dir/Core/Src/stm32f1xx_hal_msp.c.obj
 .comment       0x0000004d       0x4e CMakeFiles/ban.elf.dir/Core/Src/stm32f1xx_it.c.obj
 .comment       0x0000004d       0x4e CMakeFiles/ban.elf.dir/Core/Src/syscalls.c.obj
 .comment       0x0000004d       0x4e CMakeFiles/ban.elf.dir/Core/Src/system_stm32f1xx.c.obj
 .comment       0x0000004d       0x4e CMakeFiles/ban.elf.dir/Core/Src/tim.c.obj
 .comment       0x0000004d       0x4e CMakeFiles/ban.elf.dir/Core/Src/usart.c.obj
 .comment       0x0000004d       0x4e CMakeFiles/ban.elf.dir/Drivers/STM32F1xx_HAL_Driver/Src/stm32f1xx_hal.c.obj
 .comment       0x0000004d       0x4e CMakeFiles/ban.elf.dir/Drivers/STM32F1xx_HAL_Driver/Src/stm32f1xx_hal_cortex.c.obj
 .comment       0x0000004d       0x4e CMakeFiles/ban.elf.dir/Drivers/STM32F1xx_HAL_Driver/Src/stm32f1xx_hal_gpio.c.obj
 .comment       0x0000004d       0x4e CMakeFiles/ban.elf.dir/Drivers/STM32F1xx_HAL_Driver/Src/stm32f1xx_hal_i2c.c.obj
 .comment       0x0000004d       0x4e CMakeFiles/ban.elf.dir/Drivers/STM32F1xx_HAL_Driver/Src/stm32f1xx_hal_rcc.c.obj
 .comment       0x0000004d       0x4e CMakeFiles/ban.elf.dir/Drivers/STM32F1xx_HAL_Driver/Src/stm32f1xx_hal_tim.c.obj
 .comment       0x0000004d       0x4e CMakeFiles/ban.elf.dir/Drivers/STM32F1xx_HAL_Driver/Src/stm32f1xx_hal_tim_ex.c.obj
 .comment       0x0000004d       0x4e CMakeFiles/ban.elf.dir/Drivers/STM32F1xx_HAL_Driver/Src/stm32f1xx_hal_uart.c.obj
 .comment       0x0000004d       0x4e CMakeFiles/ban.elf.dir/lib/carcontrol/control.c.obj
 .comment       0x0000004d       0x4e CMakeFiles/ban.elf.dir/lib/mpu6050/mpu6050.c.obj
 .comment       0x0000004d       0x4e CMakeFiles/ban.elf.dir/lib/mpu6050/tm_stm32_i2c.c.obj
 .comment       0x0000004d       0x4e CMakeFiles/ban.elf.dir/lib/oled/fonts.c.obj
 .comment       0x0000004d       0x4e CMakeFiles/ban.elf.dir/lib/oled/ssd1306.c.obj
 .comment       0x0000004d       0x4e CMakeFiles/ban.elf.dir/lib/print/retarget.c.obj

.debug_frame    0x00000000     0x4914
 .debug_frame   0x00000000       0x34 CMakeFiles/ban.elf.dir/Core/Src/gpio.c.obj
 .debug_frame   0x00000034       0x78 CMakeFiles/ban.elf.dir/Core/Src/i2c.c.obj
 .debug_frame   0x000000ac       0xb0 CMakeFiles/ban.elf.dir/Core/Src/main.c.obj
 .debug_frame   0x0000015c       0x2c CMakeFiles/ban.elf.dir/Core/Src/stm32f1xx_hal_msp.c.obj
 .debug_frame   0x00000188       0xc0 CMakeFiles/ban.elf.dir/Core/Src/stm32f1xx_it.c.obj
 .debug_frame   0x00000248      0x168 CMakeFiles/ban.elf.dir/Core/Src/syscalls.c.obj
 .debug_frame   0x000003b0       0x30 CMakeFiles/ban.elf.dir/Core/Src/system_stm32f1xx.c.obj
 .debug_frame   0x000003e0       0xf4 CMakeFiles/ban.elf.dir/Core/Src/tim.c.obj
 .debug_frame   0x000004d4       0x60 CMakeFiles/ban.elf.dir/Core/Src/usart.c.obj
 .debug_frame   0x00000534      0x1cc CMakeFiles/ban.elf.dir/Drivers/STM32F1xx_HAL_Driver/Src/stm32f1xx_hal.c.obj
 .debug_frame   0x00000700      0x118 CMakeFiles/ban.elf.dir/Drivers/STM32F1xx_HAL_Driver/Src/stm32f1xx_hal_cortex.c.obj
 .debug_frame   0x00000818       0xe4 CMakeFiles/ban.elf.dir/Drivers/STM32F1xx_HAL_Driver/Src/stm32f1xx_hal_gpio.c.obj
 .debug_frame   0x000008fc      0x970 CMakeFiles/ban.elf.dir/Drivers/STM32F1xx_HAL_Driver/Src/stm32f1xx_hal_i2c.c.obj
 .debug_frame   0x0000126c      0x190 CMakeFiles/ban.elf.dir/Drivers/STM32F1xx_HAL_Driver/Src/stm32f1xx_hal_rcc.c.obj
 .debug_frame   0x000013fc      0xb18 CMakeFiles/ban.elf.dir/Drivers/STM32F1xx_HAL_Driver/Src/stm32f1xx_hal_tim.c.obj
 .debug_frame   0x00001f14      0x40c CMakeFiles/ban.elf.dir/Drivers/STM32F1xx_HAL_Driver/Src/stm32f1xx_hal_tim_ex.c.obj
 .debug_frame   0x00002320      0x5c4 CMakeFiles/ban.elf.dir/Drivers/STM32F1xx_HAL_Driver/Src/stm32f1xx_hal_uart.c.obj
 .debug_frame   0x000028e4      0x104 CMakeFiles/ban.elf.dir/lib/carcontrol/control.c.obj
 .debug_frame   0x000029e8      0x16c CMakeFiles/ban.elf.dir/lib/mpu6050/mpu6050.c.obj
 .debug_frame   0x00002b54      0x21c CMakeFiles/ban.elf.dir/lib/mpu6050/tm_stm32_i2c.c.obj
 .debug_frame   0x00002d70       0x2c CMakeFiles/ban.elf.dir/lib/oled/fonts.c.obj
 .debug_frame   0x00002d9c      0x354 CMakeFiles/ban.elf.dir/lib/oled/ssd1306.c.obj
 .debug_frame   0x000030f0       0xb8 CMakeFiles/ban.elf.dir/lib/print/retarget.c.obj
 .debug_frame   0x000031a8       0xac d:/programmer/gcc-arm-none-eabi/bin/../lib/gcc/arm-none-eabi/10.2.1/thumb/v7-m/nofp\libgcc.a(_arm_addsubdf3.o)
 .debug_frame   0x00003254       0x50 d:/programmer/gcc-arm-none-eabi/bin/../lib/gcc/arm-none-eabi/10.2.1/thumb/v7-m/nofp\libgcc.a(_arm_muldivdf3.o)
 .debug_frame   0x000032a4       0xc4 d:/programmer/gcc-arm-none-eabi/bin/../lib/gcc/arm-none-eabi/10.2.1/thumb/v7-m/nofp\libgcc.a(_arm_cmpdf2.o)
 .debug_frame   0x00003368       0x24 d:/programmer/gcc-arm-none-eabi/bin/../lib/gcc/arm-none-eabi/10.2.1/thumb/v7-m/nofp\libgcc.a(_arm_fixdfsi.o)
 .debug_frame   0x0000338c       0x24 d:/programmer/gcc-arm-none-eabi/bin/../lib/gcc/arm-none-eabi/10.2.1/thumb/v7-m/nofp\libgcc.a(_arm_truncdfsf2.o)
 .debug_frame   0x000033b0       0x4c d:/programmer/gcc-arm-none-eabi/bin/../lib/gcc/arm-none-eabi/10.2.1/thumb/v7-m/nofp\libgcc.a(_arm_addsubsf3.o)
 .debug_frame   0x000033fc       0x38 d:/programmer/gcc-arm-none-eabi/bin/../lib/gcc/arm-none-eabi/10.2.1/thumb/v7-m/nofp\libgcc.a(_arm_muldivsf3.o)
 .debug_frame   0x00003434       0xc8 d:/programmer/gcc-arm-none-eabi/bin/../lib/gcc/arm-none-eabi/10.2.1/thumb/v7-m/nofp\libgcc.a(_arm_cmpsf2.o)
 .debug_frame   0x000034fc       0x24 d:/programmer/gcc-arm-none-eabi/bin/../lib/gcc/arm-none-eabi/10.2.1/thumb/v7-m/nofp\libgcc.a(_arm_fixsfsi.o)
 .debug_frame   0x00003520       0x20 d:/programmer/gcc-arm-none-eabi/bin/../lib/gcc/arm-none-eabi/10.2.1/../../../../arm-none-eabi/lib/thumb/v7-m/nofp\libg.a(lib_a-errno.o)
 .debug_frame   0x00003540       0x2c d:/programmer/gcc-arm-none-eabi/bin/../lib/gcc/arm-none-eabi/10.2.1/../../../../arm-none-eabi/lib/thumb/v7-m/nofp\libg.a(lib_a-init.o)
 .debug_frame   0x0000356c       0x2c d:/programmer/gcc-arm-none-eabi/bin/../lib/gcc/arm-none-eabi/10.2.1/../../../../arm-none-eabi/lib/thumb/v7-m/nofp\libg.a(lib_a-memset.o)
 .debug_frame   0x00003598       0x94 d:/programmer/gcc-arm-none-eabi/bin/../lib/gcc/arm-none-eabi/10.2.1/../../../../arm-none-eabi/lib/thumb/v7-m/nofp\libg.a(lib_a-snprintf.o)
 .debug_frame   0x0000362c       0x20 d:/programmer/gcc-arm-none-eabi/bin/../lib/gcc/arm-none-eabi/10.2.1/../../../../arm-none-eabi/lib/thumb/v7-m/nofp\libg.a(lib_a-strlen-stub.o)
 .debug_frame   0x0000364c       0x44 d:/programmer/gcc-arm-none-eabi/bin/../lib/gcc/arm-none-eabi/10.2.1/../../../../arm-none-eabi/lib/thumb/v7-m/nofp\libg.a(lib_a-svfprintf.o)
 .debug_frame   0x00003690       0x5c d:/programmer/gcc-arm-none-eabi/bin/../lib/gcc/arm-none-eabi/10.2.1/../../../../arm-none-eabi/lib/thumb/v7-m/nofp\libg.a(lib_a-__call_atexit.o)
 .debug_frame   0x000036ec       0x20 d:/programmer/gcc-arm-none-eabi/bin/../lib/gcc/arm-none-eabi/10.2.1/../../../../arm-none-eabi/lib/thumb/v7-m/nofp\libg.a(lib_a-atexit.o)
 .debug_frame   0x0000370c       0x8c d:/programmer/gcc-arm-none-eabi/bin/../lib/gcc/arm-none-eabi/10.2.1/../../../../arm-none-eabi/lib/thumb/v7-m/nofp\libg.a(lib_a-dtoa.o)
 .debug_frame   0x00003798       0x70 d:/programmer/gcc-arm-none-eabi/bin/../lib/gcc/arm-none-eabi/10.2.1/../../../../arm-none-eabi/lib/thumb/v7-m/nofp\libg.a(lib_a-fflush.o)
 .debug_frame   0x00003808      0x154 d:/programmer/gcc-arm-none-eabi/bin/../lib/gcc/arm-none-eabi/10.2.1/../../../../arm-none-eabi/lib/thumb/v7-m/nofp\libg.a(lib_a-findfp.o)
 .debug_frame   0x0000395c       0x34 d:/programmer/gcc-arm-none-eabi/bin/../lib/gcc/arm-none-eabi/10.2.1/../../../../arm-none-eabi/lib/thumb/v7-m/nofp\libg.a(lib_a-fini.o)
 .debug_frame   0x00003990       0x8c d:/programmer/gcc-arm-none-eabi/bin/../lib/gcc/arm-none-eabi/10.2.1/../../../../arm-none-eabi/lib/thumb/v7-m/nofp\libg.a(lib_a-freer.o)
 .debug_frame   0x00003a1c       0x54 d:/programmer/gcc-arm-none-eabi/bin/../lib/gcc/arm-none-eabi/10.2.1/../../../../arm-none-eabi/lib/thumb/v7-m/nofp\libg.a(lib_a-fwalk.o)
 .debug_frame   0x00003a70       0x40 d:/programmer/gcc-arm-none-eabi/bin/../lib/gcc/arm-none-eabi/10.2.1/../../../../arm-none-eabi/lib/thumb/v7-m/nofp\libg.a(lib_a-localeconv.o)
 .debug_frame   0x00003ab0       0xb0 d:/programmer/gcc-arm-none-eabi/bin/../lib/gcc/arm-none-eabi/10.2.1/../../../../arm-none-eabi/lib/thumb/v7-m/nofp\libg.a(lib_a-lock.o)
 .debug_frame   0x00003b60       0x70 d:/programmer/gcc-arm-none-eabi/bin/../lib/gcc/arm-none-eabi/10.2.1/../../../../arm-none-eabi/lib/thumb/v7-m/nofp\libg.a(lib_a-makebuf.o)
 .debug_frame   0x00003bd0       0x4c d:/programmer/gcc-arm-none-eabi/bin/../lib/gcc/arm-none-eabi/10.2.1/../../../../arm-none-eabi/lib/thumb/v7-m/nofp\libg.a(lib_a-mallocr.o)
 .debug_frame   0x00003c1c       0x28 d:/programmer/gcc-arm-none-eabi/bin/../lib/gcc/arm-none-eabi/10.2.1/../../../../arm-none-eabi/lib/thumb/v7-m/nofp\libg.a(lib_a-memchr-stub.o)
 .debug_frame   0x00003c44       0x30 d:/programmer/gcc-arm-none-eabi/bin/../lib/gcc/arm-none-eabi/10.2.1/../../../../arm-none-eabi/lib/thumb/v7-m/nofp\libg.a(lib_a-mlock.o)
 .debug_frame   0x00003c74      0x260 d:/programmer/gcc-arm-none-eabi/bin/../lib/gcc/arm-none-eabi/10.2.1/../../../../arm-none-eabi/lib/thumb/v7-m/nofp\libg.a(lib_a-mprec.o)
 .debug_frame   0x00003ed4       0x30 d:/programmer/gcc-arm-none-eabi/bin/../lib/gcc/arm-none-eabi/10.2.1/../../../../arm-none-eabi/lib/thumb/v7-m/nofp\libg.a(lib_a-s_frexp.o)
 .debug_frame   0x00003f04       0x2c d:/programmer/gcc-arm-none-eabi/bin/../lib/gcc/arm-none-eabi/10.2.1/../../../../arm-none-eabi/lib/thumb/v7-m/nofp\libg.a(lib_a-sbrkr.o)
 .debug_frame   0x00003f30       0x8c d:/programmer/gcc-arm-none-eabi/bin/../lib/gcc/arm-none-eabi/10.2.1/../../../../arm-none-eabi/lib/thumb/v7-m/nofp\libg.a(lib_a-stdio.o)
 .debug_frame   0x00003fbc       0x2c d:/programmer/gcc-arm-none-eabi/bin/../lib/gcc/arm-none-eabi/10.2.1/../../../../arm-none-eabi/lib/thumb/v7-m/nofp\libg.a(lib_a-strncpy.o)
 .debug_frame   0x00003fe8       0x78 d:/programmer/gcc-arm-none-eabi/bin/../lib/gcc/arm-none-eabi/10.2.1/../../../../arm-none-eabi/lib/thumb/v7-m/nofp\libg.a(lib_a-svfiprintf.o)
 .debug_frame   0x00004060       0x2c d:/programmer/gcc-arm-none-eabi/bin/../lib/gcc/arm-none-eabi/10.2.1/../../../../arm-none-eabi/lib/thumb/v7-m/nofp\libg.a(lib_a-writer.o)
 .debug_frame   0x0000408c       0x34 d:/programmer/gcc-arm-none-eabi/bin/../lib/gcc/arm-none-eabi/10.2.1/../../../../arm-none-eabi/lib/thumb/v7-m/nofp\libg.a(lib_a-__atexit.o)
 .debug_frame   0x000040c0       0x40 d:/programmer/gcc-arm-none-eabi/bin/../lib/gcc/arm-none-eabi/10.2.1/../../../../arm-none-eabi/lib/thumb/v7-m/nofp\libg.a(lib_a-assert.o)
 .debug_frame   0x00004100       0x28 d:/programmer/gcc-arm-none-eabi/bin/../lib/gcc/arm-none-eabi/10.2.1/../../../../arm-none-eabi/lib/thumb/v7-m/nofp\libg.a(lib_a-callocr.o)
 .debug_frame   0x00004128       0x2c d:/programmer/gcc-arm-none-eabi/bin/../lib/gcc/arm-none-eabi/10.2.1/../../../../arm-none-eabi/lib/thumb/v7-m/nofp\libg.a(lib_a-closer.o)
 .debug_frame   0x00004154       0x3c d:/programmer/gcc-arm-none-eabi/bin/../lib/gcc/arm-none-eabi/10.2.1/../../../../arm-none-eabi/lib/thumb/v7-m/nofp\libg.a(lib_a-fclose.o)
 .debug_frame   0x00004190       0x6c d:/programmer/gcc-arm-none-eabi/bin/../lib/gcc/arm-none-eabi/10.2.1/../../../../arm-none-eabi/lib/thumb/v7-m/nofp\libg.a(lib_a-fiprintf.o)
 .debug_frame   0x000041fc       0x2c d:/programmer/gcc-arm-none-eabi/bin/../lib/gcc/arm-none-eabi/10.2.1/../../../../arm-none-eabi/lib/thumb/v7-m/nofp\libg.a(lib_a-fstatr.o)
 .debug_frame   0x00004228       0x2c d:/programmer/gcc-arm-none-eabi/bin/../lib/gcc/arm-none-eabi/10.2.1/../../../../arm-none-eabi/lib/thumb/v7-m/nofp\libg.a(lib_a-isattyr.o)
 .debug_frame   0x00004254       0x68 d:/programmer/gcc-arm-none-eabi/bin/../lib/gcc/arm-none-eabi/10.2.1/../../../../arm-none-eabi/lib/thumb/v7-m/nofp\libg.a(lib_a-locale.o)
 .debug_frame   0x000042bc       0x2c d:/programmer/gcc-arm-none-eabi/bin/../lib/gcc/arm-none-eabi/10.2.1/../../../../arm-none-eabi/lib/thumb/v7-m/nofp\libg.a(lib_a-lseekr.o)
 .debug_frame   0x000042e8       0x4c d:/programmer/gcc-arm-none-eabi/bin/../lib/gcc/arm-none-eabi/10.2.1/../../../../arm-none-eabi/lib/thumb/v7-m/nofp\libg.a(lib_a-mbtowc_r.o)
 .debug_frame   0x00004334       0x40 d:/programmer/gcc-arm-none-eabi/bin/../lib/gcc/arm-none-eabi/10.2.1/../../../../arm-none-eabi/lib/thumb/v7-m/nofp\libg.a(lib_a-memmove.o)
 .debug_frame   0x00004374       0x2c d:/programmer/gcc-arm-none-eabi/bin/../lib/gcc/arm-none-eabi/10.2.1/../../../../arm-none-eabi/lib/thumb/v7-m/nofp\libg.a(lib_a-readr.o)
 .debug_frame   0x000043a0       0x48 d:/programmer/gcc-arm-none-eabi/bin/../lib/gcc/arm-none-eabi/10.2.1/../../../../arm-none-eabi/lib/thumb/v7-m/nofp\libg.a(lib_a-reallocr.o)
 .debug_frame   0x000043e8       0x64 d:/programmer/gcc-arm-none-eabi/bin/../lib/gcc/arm-none-eabi/10.2.1/../../../../arm-none-eabi/lib/thumb/v7-m/nofp\libg.a(lib_a-reent.o)
 .debug_frame   0x0000444c       0xdc d:/programmer/gcc-arm-none-eabi/bin/../lib/gcc/arm-none-eabi/10.2.1/../../../../arm-none-eabi/lib/thumb/v7-m/nofp\libg.a(lib_a-vfiprintf.o)
 .debug_frame   0x00004528       0x3c d:/programmer/gcc-arm-none-eabi/bin/../lib/gcc/arm-none-eabi/10.2.1/../../../../arm-none-eabi/lib/thumb/v7-m/nofp\libg.a(lib_a-wctomb_r.o)
 .debug_frame   0x00004564       0x2c d:/programmer/gcc-arm-none-eabi/bin/../lib/gcc/arm-none-eabi/10.2.1/../../../../arm-none-eabi/lib/thumb/v7-m/nofp\libg.a(lib_a-wsetup.o)
 .debug_frame   0x00004590       0x28 d:/programmer/gcc-arm-none-eabi/bin/../lib/gcc/arm-none-eabi/10.2.1/../../../../arm-none-eabi/lib/thumb/v7-m/nofp\libg.a(lib_a-abort.o)
 .debug_frame   0x000045b8       0x88 d:/programmer/gcc-arm-none-eabi/bin/../lib/gcc/arm-none-eabi/10.2.1/../../../../arm-none-eabi/lib/thumb/v7-m/nofp\libg.a(lib_a-fputwc.o)
 .debug_frame   0x00004640       0x64 d:/programmer/gcc-arm-none-eabi/bin/../lib/gcc/arm-none-eabi/10.2.1/../../../../arm-none-eabi/lib/thumb/v7-m/nofp\libg.a(lib_a-fvwrite.o)
 .debug_frame   0x000046a4      0x114 d:/programmer/gcc-arm-none-eabi/bin/../lib/gcc/arm-none-eabi/10.2.1/../../../../arm-none-eabi/lib/thumb/v7-m/nofp\libg.a(lib_a-signal.o)
 .debug_frame   0x000047b8       0x3c d:/programmer/gcc-arm-none-eabi/bin/../lib/gcc/arm-none-eabi/10.2.1/../../../../arm-none-eabi/lib/thumb/v7-m/nofp\libg.a(lib_a-signalr.o)
 .debug_frame   0x000047f4       0x40 d:/programmer/gcc-arm-none-eabi/bin/../lib/gcc/arm-none-eabi/10.2.1/../../../../arm-none-eabi/lib/thumb/v7-m/nofp\libg.a(lib_a-wbuf.o)
 .debug_frame   0x00004834       0x60 d:/programmer/gcc-arm-none-eabi/bin/../lib/gcc/arm-none-eabi/10.2.1/../../../../arm-none-eabi/lib/thumb/v7-m/nofp\libg.a(lib_a-wcrtomb.o)
 .debug_frame   0x00004894       0x20 d:/programmer/gcc-arm-none-eabi/bin/../lib/gcc/arm-none-eabi/10.2.1/thumb/v7-m/nofp\libgcc.a(_arm_unorddf2.o)
 .debug_frame   0x000048b4       0x2c d:/programmer/gcc-arm-none-eabi/bin/../lib/gcc/arm-none-eabi/10.2.1/thumb/v7-m/nofp\libgcc.a(_aeabi_uldivmod.o)
 .debug_frame   0x000048e0       0x34 d:/programmer/gcc-arm-none-eabi/bin/../lib/gcc/arm-none-eabi/10.2.1/thumb/v7-m/nofp\libgcc.a(_udivmoddi4.o)

.debug_loc      0x00000000    0x10750
 .debug_loc     0x00000000      0x101 CMakeFiles/ban.elf.dir/Core/Src/i2c.c.obj
 .debug_loc     0x00000101      0x104 CMakeFiles/ban.elf.dir/Core/Src/main.c.obj
 .debug_loc     0x00000205       0x15 CMakeFiles/ban.elf.dir/Core/Src/stm32f1xx_hal_msp.c.obj
 .debug_loc     0x0000021a      0x3a2 CMakeFiles/ban.elf.dir/Core/Src/syscalls.c.obj
 .debug_loc     0x000005bc       0xff CMakeFiles/ban.elf.dir/Core/Src/system_stm32f1xx.c.obj
 .debug_loc     0x000006bb      0x100 CMakeFiles/ban.elf.dir/Core/Src/tim.c.obj
 .debug_loc     0x000007bb       0x84 CMakeFiles/ban.elf.dir/Core/Src/usart.c.obj
 .debug_loc     0x0000083f      0x141 CMakeFiles/ban.elf.dir/Drivers/STM32F1xx_HAL_Driver/Src/stm32f1xx_hal.c.obj
 .debug_loc     0x00000980      0x71f CMakeFiles/ban.elf.dir/Drivers/STM32F1xx_HAL_Driver/Src/stm32f1xx_hal_cortex.c.obj
 .debug_loc     0x0000109f      0x47d CMakeFiles/ban.elf.dir/Drivers/STM32F1xx_HAL_Driver/Src/stm32f1xx_hal_gpio.c.obj
 .debug_loc     0x0000151c     0x41a9 CMakeFiles/ban.elf.dir/Drivers/STM32F1xx_HAL_Driver/Src/stm32f1xx_hal_i2c.c.obj
 .debug_loc     0x000056c5      0x63e CMakeFiles/ban.elf.dir/Drivers/STM32F1xx_HAL_Driver/Src/stm32f1xx_hal_rcc.c.obj
 .debug_loc     0x00005d03     0x47a8 CMakeFiles/ban.elf.dir/Drivers/STM32F1xx_HAL_Driver/Src/stm32f1xx_hal_tim.c.obj
 .debug_loc     0x0000a4ab     0x1ade CMakeFiles/ban.elf.dir/Drivers/STM32F1xx_HAL_Driver/Src/stm32f1xx_hal_tim_ex.c.obj
 .debug_loc     0x0000bf89     0x2037 CMakeFiles/ban.elf.dir/Drivers/STM32F1xx_HAL_Driver/Src/stm32f1xx_hal_uart.c.obj
 .debug_loc     0x0000dfc0      0x346 CMakeFiles/ban.elf.dir/lib/carcontrol/control.c.obj
 .debug_loc     0x0000e306      0x32d CMakeFiles/ban.elf.dir/lib/mpu6050/mpu6050.c.obj
 .debug_loc     0x0000e633      0x97b CMakeFiles/ban.elf.dir/lib/mpu6050/tm_stm32_i2c.c.obj
 .debug_loc     0x0000efae       0x69 CMakeFiles/ban.elf.dir/lib/oled/fonts.c.obj
 .debug_loc     0x0000f017     0x13b0 CMakeFiles/ban.elf.dir/lib/oled/ssd1306.c.obj
 .debug_loc     0x000103c7      0x389 CMakeFiles/ban.elf.dir/lib/print/retarget.c.obj
