:020000040800F2
:1000000000500020514E0008F9190008FB190008A3
:10001000FD190008FF190008011A0008000000007F
:10002000000000000000000000000000031A0008AB
:10003000051A000800000000071A0008091A000845
:10004000994E0008994E0008994E0008994E0008F4
:10005000994E0008994E0008994E0008994E0008E4
:10006000994E0008994E0008994E0008994E0008D4
:10007000994E0008994E0008994E0008994E0008C4
:10008000994E0008994E0008994E0008994E0008B4
:10009000994E0008994E0008994E0008994E0008A4
:1000A000994E0008994E0008994E0008994E000894
:1000B000994E0008994E0008994E0008994E000884
:1000C000994E0008994E0008994E0008994E000874
:1000D000994E0008994E0008994E0008994E000864
:1000E000111A0008994E0008994E000800000000FF
:1000F0000000000000000000000000000000000000
:0C01000000000000000000005FF808F1A3
:1001100010B5054C237833B9044B13B10448AFF341
:1001200000800123237010BD080B00200000000098
:1001300080B5000808B5034B1BB103490348AFF372
:10014000008008BD000000000C0B002080B50008F6
:1001500081F0004102E000BF83F0004330B54FEA78
:1001600041044FEA430594EA050F08BF90EA020FE5
:100170001FBF54EA000C55EA020C7FEA645C7FEA78
:10018000655C00F0E2804FEA5454D4EB5555B8BF9B
:100190006D420CDD2C4480EA020281EA030382EA0C
:1001A000000083EA010180EA020281EA0303362D9E
:1001B00088BF30BD11F0004F4FEA01314FF4801C71
:1001C0004CEA113102D0404261EB410113F0004F83
:1001D0004FEA03334CEA133302D0524263EB43033A
:1001E00094EA050F00F0A780A4F10104D5F1200ED8
:1001F0000DDB02FA0EFC22FA05F2801841F1000133
:1002000003FA0EF2801843FA05F359410EE0A5F106
:1002100020050EF1200E012A03FA0EFC28BF4CF037
:10022000020C43FA05F3C01851EBE37101F00045ED
:1002300007D54FF0000EDCF1000C7EEB00006EEBFA
:100240000101B1F5801F1BD3B1F5001F0CD3490884
:100250005FEA30004FEA3C0C04F101044FEA4452DB
:1002600012F5800F80F09A80BCF1004F08BF5FEA62
:10027000500C50F1000041EB045141EA050130BD42
:100280005FEA4C0C404141EB0101013C28BFB1F554
:10029000801FE9D291F0000F04BF01460020B1FA9F
:1002A00081F308BF2033A3F10B03B3F120020CDA72
:1002B0000C3208DD02F1140CC2F10C0201FA0CF050
:1002C00021FA02F10CE002F11402D8BFC2F1200CB5
:1002D00001FA02F120FA0CFCDCBF41EA0C0190406B
:1002E000E41AA2BF01EB0451294330BD6FEA0404B4
:1002F0001F3C1CDA0C340EDC04F11404C4F120029F
:1003000020FA04F001FA02F340EA030021FA04F3B0
:1003100045EA030130BDC4F10C04C4F1200220FA07
:1003200002F001FA04F340EA0300294630BD21FA45
:1003300004F0294630BD94F0000F83F4801306BF0B
:1003400081F480110134013D4EE77FEA645C18BFFF
:100350007FEA655C29D094EA050F08BF90EA020F96
:1003600005D054EA000C04BF1946104630BD91EA8E
:10037000030F1EBF0021002030BD5FEA545C05D191
:100380004000494128BF41F0004130BD14F58004D0
:100390003CBF01F5801130BD01F0004545F0FE4144
:1003A00041F470014FF0000030BD7FEA645C1ABF79
:1003B000194610467FEA655C1CBF0B46024650EAB0
:1003C000013406BF52EA033591EA030F41F40021DC
:1003D00030BD00BF90F0000F04BF0021704730B562
:1003E0004FF4806404F132044FF000054FF0000137
:1003F00050E700BF90F0000F04BF0021704730B5F8
:100400004FF4806404F1320410F0004548BF4042CC
:100410004FF000013EE700BF42004FEAE2014FEA21
:1004200031014FEA02701FBF12F07F4393F07F4FFC
:1004300081F06051704732F07F4208BF704793F0FF
:100440007F4F04BF41F40021704730B54FF4607412
:1004500001F0004521F000411CE700BF50EA010215
:1004600008BF704730B54FF000050AE050EA0102BE
:1004700008BF704730B511F0004502D5404261EB2E
:1004800041014FF4806404F132045FEA915C3FF46F
:10049000D8AE4FF003025FEADC0C18BF03325FEA0C
:1004A000DC0C18BF033202EBDC02C2F1200300FABD
:1004B00003FC20FA02F001FA03FE40EA0E0021FAE2
:1004C00002F11444BDE600BF70B54FF0FF0C4CF4D0
:1004D000E06C1CEA11541DBF1CEA135594EA0C0F82
:1004E00095EA0C0F00F0DEF82C4481EA030621EABD
:1004F0004C5123EA4C5350EA013518BF52EA0335F8
:1005000041F4801143F4801338D0A0FB02CE4FF0A9
:100510000005E1FB02E506F00042E0FB03E54FF0D9
:100520000006E1FB03569CF0000F18BF4EF0010ED1
:10053000A4F1FF04B6F5007F64F5407404D25FEACD
:100540004E0E6D4146EB060642EAC62141EA555180
:100550004FEAC52040EA5E504FEACE2EB4F1FD0CC2
:1005600088BFBCF5E06F1ED8BEF1004F08BF5FEA40
:10057000500E50F1000041EB045170BD06F00046F2
:1005800046EA010140EA020081EA0301B4EB5C049F
:10059000C2BFD4EB0C0541EA045170BD41F4801197
:1005A0004FF0000E013C00F3AB8014F1360FDEBFBC
:1005B000002001F0004170BDC4F10004203C35DA98
:1005C0000C341BDC04F11404C4F1200500FA05F31B
:1005D00020FA04F001FA05F240EA020001F00042BC
:1005E00021F0004110EBD37021FA04F642EB060132
:1005F0005EEA430E08BF20EAD37070BDC4F10C045C
:10060000C4F1200500FA04F320FA05F001FA04F21F
:1006100040EA020001F0004110EBD37041F100010B
:100620005EEA430E08BF20EAD37070BDC4F1200516
:1006300000FA05F24EEA020E20FA04F301FA05F27E
:1006400043EA020321FA04F001F0004121FA04F226
:1006500020EA020000EBD3705EEA430E08BF20EAF6
:10066000D37070BD94F0000F0FD101F00046400030
:1006700041EB010111F4801F08BF013CF7D041EAB2
:10068000060195F0000F18BF704703F000465200B6
:1006900043EB030313F4801F08BF013DF7D043EA87
:1006A0000603704794EA0C0F0CEA135518BF95EA3D
:1006B0000C0F0CD050EA410618BF52EA4306D1D1C4
:1006C00081EA030101F000414FF0000070BD50EAE3
:1006D000410606BF1046194652EA430619D094EA6D
:1006E0000C0F02D150EA013613D195EA0C0F05D157
:1006F00052EA03361CBF104619460AD181EA0301AB
:1007000001F0004141F0FE4141F470014FF0000062
:1007100070BD41F0FE4141F4780170BD70B54FF0FD
:10072000FF0C4CF4E06C1CEA11541DBF1CEA13557D
:1007300094EA0C0F95EA0C0F00F0A7F8A4EB05045F
:1007400081EA030E52EA03354FEA013100F0888056
:100750004FEA03334FF0805545EA131343EA12631F
:100760004FEA022245EA111545EA10654FEA0026D4
:100770000EF000419D4208BF964244F1FD0404F58D
:10078000407402D25B084FEA3202B61A65EB0305E9
:100790005B084FEA32024FF480104FF4002CB6EBA6
:1007A000020E75EB030E22BFB61A754640EA0C0026
:1007B0005B084FEA3202B6EB020E75EB030E22BF66
:1007C000B61A754640EA5C005B084FEA3202B6EBA7
:1007D000020E75EB030E22BFB61A754640EA9C0066
:1007E0005B084FEA3202B6EB020E75EB030E22BF36
:1007F000B61A754640EADC0055EA060E18D04FEAF4
:10080000051545EA16754FEA06164FEAC30343EA93
:1008100052734FEAC2025FEA1C1CC0D111F4801F60
:100820000BD141EA00014FF000004FF0004CB6E759
:1008300011F4801F04BF01430020B4F1FD0C88BFF8
:10084000BCF5E06F3FF6AFAEB5EB030C04BFB6EB03
:10085000020C5FEA500C50F1000041EB045170BDF6
:100860000EF0004E4EEA113114EB5C04C2BFD4EB23
:100870000C0541EA045170BD41F480114FF0000EA7
:10088000013C90E645EA060E8DE60CEA135594EA23
:100890000C0F08BF95EA0C0F3FF43BAF94EA0C0F26
:1008A0000AD150EA01347FF434AF95EA0C0F7FF49B
:1008B00025AF104619462CE795EA0C0F06D152EAEF
:1008C00003353FF4FDAE1046194622E750EA4106D3
:1008D00018BF52EA43067FF4C5AE50EA41047FF4E4
:1008E0000DAF52EA43057FF4EBAE12E74FF0FF3C49
:1008F00006E000BF4FF0010C02E000BF4FF0010C1A
:100900004DF804CD4FEA410C7FEA6C5C4FEA430C92
:1009100018BF7FEA6C5C1BD001B050EA410C0CBFE1
:1009200052EA430C91EA030F02BF90EA020F002043
:10093000704710F1000F91EA030F58BF994208BFAA
:1009400090422CBFD8176FEAE37040F00100704767
:100950004FEA410C7FEA6C5C02D150EA013C07D1BE
:100960004FEA430C7FEA6C5CD6D152EA033CD3D009
:100970005DF8040B704700BF8446104662468C4603
:100980001946634600E000BF01B5FFF7B7FF002836
:1009900048BF10F1000F01BD4DF808EDFFF7F4FF5F
:1009A0000CBF012000205DF808FB00BF4DF808EDEA
:1009B000FFF7EAFF34BF012000205DF808FB00BF0D
:1009C0004DF808EDFFF7E0FF94BF012000205DF82F
:1009D00008FB00BF4DF808EDFFF7CEFF94BF0120E4
:1009E00000205DF808FB00BF4DF808EDFFF7C4FFDD
:1009F00034BF012000205DF808FB00BF4FEA410230
:100A000012F5001215D211D56FF47873B3EB625260
:100A100012D94FEAC12343F0004343EA505311F087
:100A2000004F23FA02F018BF404270474FF0000019
:100A3000704750EA013005D111F0004008BF6FF057
:100A4000004070474FF00000704700BF4FEA41027E
:100A5000B2F1E04324BFB3F5001CDCF1FE5C0DD91C
:100A600001F0004C4FEAC0024CEA5070B2F1004F66
:100A700040EB830008BF20F00100704711F0804F69
:100A800021D113F13872BCBF01F00040704741F42E
:100A900080114FEA5252C2F11802C2F1200C10FA32
:100AA0000CF320FA02F018BF40F001004FEAC12316
:100AB0004FEAD32303FA0CFC40EA0C0023FA02F3BA
:100AC0004FEA4303CCE77FEA625307D150EA013390
:100AD0001EBF4FF0FE4040F44000704701F0004060
:100AE00040F0FE4040F40000704700BF80F000403E
:100AF00002E000BF81F0004142001FBF5FEA4103F6
:100B000092EA030F7FEA226C7FEA236C6AD04FEAF5
:100B10001262D2EB1363C1BFD2184140484041403A
:100B2000B8BF5B42192B88BF704710F0004F40F4EC
:100B3000000020F07F4018BF404211F0004F41F408
:100B4000000121F07F4118BF494292EA030F3FD0D4
:100B5000A2F1010241FA03FC10EB0C00C3F12003E7
:100B600001FA03F100F0004302D5494260EB400076
:100B7000B0F5000F13D3B0F1807F06D340084FEAE1
:100B8000310102F10102FE2A51D2B1F1004F40EBD6
:100B9000C25008BF20F0010040EA0300704749003E
:100BA00040EB0000013A28BFB0F5000FEDD2B0FADB
:100BB00080FCACF1080CB2EB0C0200FA0CF0AABFFE
:100BC00000EBC25052421843BCBFD040184370479C
:100BD00092F0000F81F4000106BF80F400000132A2
:100BE000013BB5E74FEA41037FEA226C18BF7FEA79
:100BF000236C21D092EA030F04D092F0000F08BFBB
:100C00000846704790EA010F1CBF0020704712F0A1
:100C10007F4F04D1400028BF40F00040704712F1E0
:100C200000723CBF00F50000704700F0004343F045
:100C3000FE4040F4000070477FEA226216BF08467B
:100C40007FEA23630146420206BF5FEA412390EA3E
:100C5000010F40F4800070474FF0000304E000BF34
:100C600010F0004348BF40425FEA000C08BF7047E5
:100C700043F0964301464FF000001CE050EA0102A9
:100C800008BF70474FF000030AE000BF50EA0102BE
:100C900008BF704711F0004302D5404261EB4101AB
:100CA0005FEA010C02BF84460146002043F0B643D0
:100CB00008BFA3F18053A3F50003BCFA8CF2083AF5
:100CC000A3EBC25310DB01FA02FC634400FA02FCFE
:100CD000C2F12002BCF1004F20FA02F243EB020005
:100CE00008BF20F00100704702F1200201FA02FC67
:100CF000C2F1200250EA4C0021FA02F243EB02005A
:100D000008BF20EADC7070474FF0FF0C1CEAD0529D
:100D10001EBF1CEAD15392EA0C0F93EA0C0F6FD05E
:100D20001A4480EA010C400218BF5FEA41211ED03C
:100D30004FF0006343EA501043EA5111A0FB013128
:100D40000CF00040B1F5000F3EBF490041EAD371FD
:100D50005B0040EA010062F17F02FD2A1DD8B3F179
:100D6000004F40EBC25008BF20F00100704790F0E8
:100D7000000F0CF0004C08BF49024CEA502040EA3A
:100D800051207F3AC2BFD2F1FF0340EAC250704700
:100D900040F400004FF00003013A5DDC12F1190F3E
:100DA000DCBF00F000407047C2F10002410021FAB0
:100DB00002F1C2F1200200FA02FC5FEA310040F1C8
:100DC000000053EA4C0308BF20EADC70704792F041
:100DD000000F00F0004C02BF400010F4000F013A79
:100DE000F9D040EA0C0093F0000F01F0004C02BF74
:100DF000490011F4000F013BF9D041EA0C018FE7E3
:100E00000CEAD15392EA0C0F18BF93EA0C0F0AD0E8
:100E100030F0004C18BF31F0004CD8D180EA01000E
:100E200000F00040704790F0000F17BF90F0004FA7
:100E3000084691F0000F91F0004F14D092EA0C0F89
:100E400001D142020FD193EA0C0F03D14B0218BF1C
:100E5000084608D180EA010000F0004040F0FE4062
:100E600040F40000704740F0FE4040F440007047FE
:100E70004FF0FF0C1CEAD0521EBF1CEAD15392EA7D
:100E80000C0F93EA0C0F69D0A2EB030280EA010C6D
:100E900049024FEA402037D04FF0805343EA111106
:100EA00043EA10130CF000408B4238BF5B0042F164
:100EB0007D024FF4000C8B4224BF5B1A40EA0C0009
:100EC000B3EB510F24BFA3EB510340EA5C00B3EB3B
:100ED000910F24BFA3EB910340EA9C00B3EBD10F29
:100EE00024BFA3EBD10340EADC001B0118BF5FEA7B
:100EF0001C1CE0D1FD2A3FF650AF8B4240EBC250A4
:100F000008BF20F0010070470CF0004C4CEA502064
:100F10007F32C2BFD2F1FF0340EAC250704740F4B3
:100F200000004FF00003013A37E792F0000F00F0A5
:100F3000004C02BF400010F4000F013AF9D040EA23
:100F40000C0093F0000F01F0004C02BF490011F4B7
:100F5000000F013BF9D041EA0C0195E70CEAD153AF
:100F600092EA0C0F08D142027FF47DAF93EA0C0F96
:100F70007FF470AF084676E793EA0C0F04D14B027A
:100F80003FF44CAF08466EE730F0004C18BF31F02C
:100F9000004CCAD130F000427FF45CAF31F0004326
:100FA0007FF43CAF5FE700BF4FF0FF3C06E000BFBF
:100FB0004FF0010C02E000BF4FF0010C4DF804CDE2
:100FC0004FEA40024FEA41037FEA226C18BF7FEAF2
:100FD000236C11D001B052EA530C18BF90EA010FF4
:100FE00058BFB2EB030088BFC81738BF6FEAE17083
:100FF00018BF40F0010070477FEA226C02D15FEA1F
:10100000402C05D17FEA236CE4D15FEA412CE1D08A
:101010005DF8040B704700BF844608466146FFE751
:101020000FB5FFF7C9FF002848BF10F1000F0FBD33
:101030004DF808EDFFF7F4FF0CBF012000205DF82C
:1010400008FB00BF4DF808EDFFF7EAFF34BF0120B1
:1010500000205DF808FB00BF4DF808EDFFF7E0FF4A
:1010600094BF012000205DF808FB00BF4DF808ED9B
:10107000FFF7D2FF94BF012000205DF808FB00BFFE
:101080004DF808EDFFF7C8FF34BF012000205DF8E0
:1010900008FB00BF4FEA4002B2F1FE4F0FD34FF002
:1010A0009E03B3EB12620DD94FEA002343F00043D5
:1010B00010F0004F23FA02F018BF404270474FF083
:1010C0000000704712F1610F01D1420205D110F00A
:1010D000004008BF6FF0004070474FF000007047BD
:1010E000844641EA000313F0030349D1403A23D375
:1010F0000B6803604B6843608B688360CB68C36098
:101100000B6903614B6943618B698361CB69C3617F
:101110000B6A03624B6A43628B6A8362CB6AC36267
:101120000B6B03634B6B43638B6B8363CB6BC3634F
:1011300040304031403ADBD230320BD30B68036091
:101140004B6843608B688360CB68C360103010319C
:10115000103AF3D20C3205D351F8043B40F8043B6B
:10116000043AF9D2043208D0D2071CBF11F8013B6F
:1011700000F8013B01D30B8803806046704700BF35
:10118000082A13D38B07B1D010F00303AED0C3F1FC
:101190000403D21ADB071CBF11F8013B00F8013B26
:1011A000A4D331F8023B20F8023B9FE7043AD9D39D
:1011B000013A11F8013B00F8013BF9D20B780370BA
:1011C0004B7843708B788370604670474FEA410CD0
:1011D0007FEA6C5C02D150EA013C0AD14FEA430C31
:1011E0007FEA6C5C02D152EA033C02D14FF000006E
:1011F00070474FF00100704753B94AB9002908BF42
:1012000000281CBF4FF0FF314FF0FF3000F076B9DF
:10121000ADF1080C6DE904CE00F006F8DDF804E04D
:10122000DDE9022304B070472DE9F047089E0D4622
:1012300004468846002B4DD18A42944668D9B2FABA
:1012400082F252B101FA02F3C2F1200120FA01F157
:101250000CFA02FC41EA030894404FEA1C41B8FB37
:10126000F1F71FFA8CFE01FB178807FB0EF0230C29
:1012700043EA084398420AD91CEB030307F1FF3500
:1012800080F01E81984240F21B81023F63441B1A8A
:10129000B3FBF1F001FB103300FB0EFEA4B244EAF5
:1012A0000344A6450AD91CEB040400F1FF3380F087
:1012B0000981A64540F20681644402380021A4EB6E
:1012C0000E0440EA07401EB10023D440C6E90043A3
:1012D000BDE8F0878B4208D9002E00F0EE80002197
:1012E000C6E900050846BDE8F087B3FA83F1002996
:1012F0004AD1AB4202D3824200F2FC80841A65EBF1
:10130000030301209846002EE2D0C6E90048DFE73B
:1013100002B9FFDEB2FA82F2002A40F09180A1EB1E
:101320000C0001214FEA1C471FFA8CFEB0FBF7F3BB
:1013300007FB1300250C45EA00450EFB03F0A8420D
:1013400008D91CEB050503F1FF3802D2A84200F2D0
:10135000CE8043462D1AB5FBF7F007FB10550EFB68
:1013600000FEA4B244EA0544A64508D91CEB0404D7
:1013700000F1FF3502D2A64500F2B6802846A4EB64
:101380000E0440EA03409EE7C1F120078B4022FA99
:1013900007FC4CEA030C25FA07FA4FEA1C49BAFB92
:1013A000F9F820FA07F309FB18AA8D401FFA8CFE02
:1013B0001D4300FA01F308FB0EF02C0C44EA0A442A
:1013C000A04202FA01F20BD91CEB040408F1FF3A27
:1013D00080F08880A04240F28580A8F10208644431
:1013E000241AB4FBF9F009FB104400FB0EFEADB269
:1013F00045EA0444A64508D91CEB040400F1FF3576
:101400006CD2A6456AD90238644440EA0840A0FB81
:101410000295A4EB0E04AC42C846AE4656D353D058
:10142000002E69D0B3EB080264EB0E0422FA01F33C
:1014300004FA07F71F43CC40C6E90074002147E7D0
:101440000CFA02FCC2F1200125FA01F34FEA1C4715
:1014500020FA01F195400D43B3FBF7F107FB11337F
:101460001FFA8CFE280C40EA034001FB0EF3834276
:1014700004FA02F408D91CEB000001F1FF382FD266
:1014800083422DD902396044C01AB0FBF7F307FB41
:101490001300ADB245EA004503FB0EF0A84208D99F
:1014A0001CEB050503F1FF3816D2A84214D9023B04
:1014B0006544281A43EA014138E73146304607E7D8
:1014C0002F46E4E61846F9E64B45A9D2B9EB0208E7
:1014D00065EB0C0E0138A3E74346EAE7284694E79C
:1014E0004146D1E7D0467BE76444023847E7023BF8
:1014F00065442FE7084606E73146E9E6704700BF36
:1015000070B588B000240494059406940794214B88
:101510009A6942F020029A619A6902F020020192CF
:10152000019A9A6942F004029A619A6902F00402EF
:101530000292029A9A6942F008029A619B6903F04A
:1015400008030393039B144E22464FF47041304628
:1015500000F034FE4FF47043049301250595069482
:101560000323079304A9304600F016FD4FF480537F
:1015700004930A4B0593069504A9094800F00CFD55
:1015800022462946282000F0ADFC282000F0E2FC8D
:1015900008B070BD00100240000C01400000211096
:1015A0000008014008B50B480B4B03600B4B436030
:1015B00000238360C3604FF4804202614361836112
:1015C000C361036201F02EF800B908BD00F00AF90A
:1015D000FBE700BF240B002000540040A086010060
:1015E00008B50B480B4B03600B4B43600023836033
:1015F000C3604FF48042026143618361C36103624F
:1016000001F010F800B908BD00F0ECF8FBE700BFEE
:10161000780B002000580040801A060010B588B0F2
:10162000002304930593069307930368264A934285
:1016300004D0264A934227D008B010BD244CA36999
:1016400043F00803A361A36903F008030093009B20
:101650004FF440730493122305930323079304A9C3
:101660001C4800F099FC1C4A536843F0E06343F0C7
:1016700002035360E36943F40013E361E36903F495
:1016800000130193019BD7E7114CA36943F00803B2
:10169000A361A36903F008030293029B4FF4406324
:1016A0000493122305930323079304A9094800F028
:1016B00073FCE36943F48003E361E36903F48003AB
:1016C0000393039BB8E700BF00540040005800405C
:1016D00000100240000C01400000014030B583B012
:1016E000044632213C2003F0DDF90A4D2046FEF786
:1016F00093FECDE90001084A0821284603F04AFC80
:1017000001220649284603F021FA03F069FA03B0E2
:1017100030BD00BF3C0C002098B5000848010020F7
:101720002DE9F04383B00546894690461F460A21BD
:101730003C2003F0B7F9284E284C2846FEF76CFEF3
:10174000CDE9000132460821204603F023FC244D58
:1017500001222946204603F0F9F914213C2003F028
:10176000A1F94846FEF758FECDE9000132460821AE
:10177000204603F00FFC01222946204603F0E6F93B
:101780001E213C2003F08EF94046FEF745FECDE9D0
:10179000000132460821204603F0FCFB01222946C5
:1017A000204603F0D3F928213C2003F07BF938468A
:1017B000FEF732FECDE9000132460821204603F053
:1017C000E9FB01222946204603F0C0F903F008FA9C
:1017D00003B0BDE8F08300BFA0B500083C0C0020BA
:1017E0004801002072B6FEE700B591B02822002122
:1017F00006A803F07DFB0023019302930393049357
:101800000593012206924FF4803307930A92022235
:101810000D920E934FF4E0130F9306A801F020FBF6
:1018200080B90F23019302210291002303934FF407
:1018300080620492059301A801F050FD20B911B017
:101840005DF804FBFFF7CEFFFFF7CCFF80B500F09B
:1018500013FBFFF7C9FFFFF753FEFFF7C1FE00F0D0
:1018600003FA00F00BF900F03DF9FFF79BFE00F0E2
:1018700089FA03F0D9F90A21084603F013F93D4C1F
:10188000012221463C4803F061F914210A2003F0AB
:1018900009F901222146394803F058F91E210A208E
:1018A00003F000F901222146354803F04FF92821C1
:1018B0000A2003F0F7F801222146324803F046F9E6
:1018C00032210A2003F0EEF8012221462E4803F0CF
:1018D0003DF90123002211462C4802F03BFF00286D
:1018E0003ED02A4C4F21204602F026FF204602F02F
:1018F0006DFF274C0021204602F08EF80C21204677
:1019000002F08AF83C21234802F0F4F83C212248F6
:1019100002F0F0F803F064F91C4BD3E91867D3E93F
:1019200010891E4B1868FFF79BF982461C4B1868FC
:10193000FFF796F9054640464946FFF787F8044603
:1019400030463946FFF782F853462A462146FFF7CC
:10195000E7FE144B1868FFF783F9FFF7BFFEDBE7DC
:1019600032211E2003F09EF8012221460E4803F08A
:10197000EDF8B6E748010020A4B50008ACB50008B2
:10198000B4B50008BCB50008C4B50008D00B0020F1
:10199000480C0020900C0020D80C00207C0D00206A
:1019A000780D0020880D0020C8B5000800B583B070
:1019B0000F4B9A6942F001029A619A6902F00102A2
:1019C0000092009ADA6942F08052DA61DB6903F032
:1019D00080530193019B052000F072FA054A536879
:1019E00023F0E06343F00073536003B05DF804FB41
:1019F0000010024000000140FEE7FEE7FEE7FEE7C0
:101A0000FEE770477047704708B500F047FA08BD19
:101A100008B54FF4805000F0D7FB08BD0120704797
:101A200008B503F03BFA162303604FF0FF3008BD02
:101A300008B54FF0FF31FFF7F3FFFEE708B50346A7
:101A40000B4A126842B10A4A106803446A4693423C
:101A500006D8074A136008BD054A06491160F2E737
:101A600003F01CFA0C2303604FF0FF30F3E700BFD4
:101A7000440C0020E81100207047000000B58DB034
:101A80002422002103A803F033FA002301930293D8
:101A900013484FF080420260436083604FF6FF724C
:101AA000C2600361836103230393012205920A2329
:101AB000079309920B9303A901F030FE50B900235C
:101AC0000193029301A9064802F090F828B90DB0DD
:101AD0005DF804FBFFF786FEF1E7FFF783FEF6E70C
:101AE000900C002000B58DB02422002103A803F043
:101AF000FFF90023019302931348144A02604360E4
:101B000083604FF6FF72C260036183610323039316
:101B1000012205920A23079309920B9303A901F06E
:101B2000FDFD50B900230193029301A9064802F07C
:101B30005DF828B90DB05DF804FBFFF753FEF1E73F
:101B4000FFF750FEF6E700BFD80C00200008004069
:101B50000268094B9A4200D0704782B003F5644393
:101B60009A6942F400629A619B6903F400630193ED
:101B7000019B02B0704700BF002C014000B589B046
:101B8000002304930593069307930368B3F1804FF2
:101B900005D01D4A93421DD009B05DF804FB03F542
:101BA0000433DA6942F00102DA61DA6902F0010213
:101BB0000092009A9A6942F004029A619B6903F0CC
:101BC00004030193019B0323049304A90F4800F02D
:101BD000E3F9E1E70E4BDA6942F00402DA61DA690F
:101BE00002F004020292029A9A6942F008029A6193
:101BF0009B6903F008030393039BC023049304A988
:101C0000044800F0C9F9C7E7000800400008014097
:101C100000100240000C014000B587B00023029381
:101C200003930493059302680D4B9A4202D007B0C8
:101C30005DF804FB03F564439A6942F004029A617B
:101C40009B6903F004030193019B4FF4106302931B
:101C500002230393059302A9024800F09DF9E6E7E9
:101C6000002C01400008014010B596B000241294E9
:101C70001394149415941094119409940A940B9449
:101C80000C940D940E940F942022214601A803F089
:101C90002FF93A483A4B036047234360846040F28F
:101CA000E733C360046144618023836101F0DEFC9B
:101CB000002848D14FF48053129312A92F4801F005
:101CC0002FFE002842D12D4801F0FCFC002840D115
:101CD00000231093119310A9284801F087FF0028D2
:101CE0003AD16023099300220A920B920C920D9232
:101CF0000E920F9209A9214801F09EFD78BB0C229B
:101D000009A91E4801F098FD60BB002301930293CE
:101D10000393049305934FF400520692089301A98C
:101D2000164801F099FF00BB0021144801F074FE31
:101D3000F0B90C21114801F06FFEE0B90F48FFF730
:101D40006BFF16B010BDFFF74DFDB3E7FFF74AFD7F
:101D5000B9E7FFF747FDBBE7FFF744FDC1E7FFF732
:101D600041FDCCE7FFF73EFDCFE7FFF73BFDDBE7AB
:101D7000FFF738FDDDE7FFF735FDDFE7480C002012
:101D8000002C014008B50A480A4B03604FF4165373
:101D9000436000238360C36003610C22426183615E
:101DA000C36102F003F800B908BDFFF71BFDFBE7B4
:101DB000200D00200044004010B586B0002302939F
:101DC0000393049305930268164B9A4201D006B020
:101DD00010BD03F5E633DA6942F40032DA61DA69FC
:101DE00002F400320092009A9A6942F004029A6169
:101DF0009B6903F004030193019B042302930223D4
:101E0000039303230593084C02A9204600F0C4F86D
:101E10000823029300230393049302A9204600F0B1
:101E2000BBF8D4E7004400400008014010B5044668
:101E30000E4B18784FF47A73B3FBF0F30C4A10682A
:101E4000B0FBF3F000F094F868B90F2C01D9012031
:101E50000AE0002221464FF0FF3000F043F8054B26
:101E60001C60002000E0012010BD00BF0400002025
:101E7000000000200800002008B5074A136843F05E
:101E800010031360032000F01BF80020FFF7CEFFC3
:101E9000FFF78CFD002008BD00200240034A1168B6
:101EA000034B1B780B441360704700BF640D002088
:101EB00004000020014B1868704700BF640D00202B
:101EC000074AD36823F4E0631B041B0C000200F4F0
:101ED000E060034343F0BF6343F40033D3607047D3
:101EE00000ED00E000B5194BDB68C3F30223C3F13A
:101EF000070CBCF1040F28BF4FF0040C03F1040ED3
:101F0000BEF1060F18D9033B4FF0FF3E0EFA0CFC52
:101F100021EA0C0199400EFA03F322EA0303194364
:101F200000280BDB0901C9B200F1604000F56140F7
:101F300080F800135DF804FB0023E5E700F00F00D4
:101F40000901C9B2024B1954F4E700BF00ED00E0EB
:101F500014ED00E0002807DB00F01F024009012318
:101F60009340024A42F82030704700BF00E100E091
:101F70000138B0F1807F0BD24FF0E0235861054A61
:101F8000F02182F823100020986107221A6170471F
:101F90000120704700ED00E070B582B00024A44637
:101FA000A6E0804DAA4210D007D97F4DAA420CD09E
:101FB00005F58035AA4208D013E0A5F58015AA42A0
:101FC00003D005F57025AA4207D18A68002A58D0A7
:101FD000012A51D04361082403E0A5F58015AA42E7
:101FE000F3D0BEF1FF0F4ED80646BEF1FF0F4CD81E
:101FF0004FEA8C0233680F25954023EA050304FA63
:1020000002F2134333604B6813F0805F6ED0674B6E
:102010009A6942F001029A619B6903F001030193FE
:10202000019B4FEA9C02951C614B53F825600CF014
:1020300003039D000F23AB4026EA03065D4B984245
:1020400029D003F58063984200F08E8003F5806309
:10205000984200F08B8003F58063984219D00423E6
:102060001AE0CC68BDE7CC680434BAE7CC68083421
:10207000B7E7CC680C34B4E703610824B1E7002467
:10208000AFE70424ADE7061DAFE7ACF1080292000C
:10209000B0E7032300E00023AB4033430232444D5A
:1020A00045F822304B6813F4803F61D0424A1368F0
:1020B00043EA0E0313604B6813F4003F5ED03E4AC0
:1020C000536843EA0E0353604B6813F4801F5BD0E0
:1020D000394A936843EA0E0393604B6813F4001F78
:1020E00058D0354AD36843EA0E03D3600CF1010C93
:1020F0000A6832FA0CF353D0012303FA0CF302EA14
:10210000030E33EA0202F1D14A68122A3FF649AFC0
:10211000122A3FF666AF01A555F822F0CB1F000842
:10212000632000086D2000087F200008E31F0008DE
:10213000E31F0008E31F0008E31F0008E31F000877
:10214000E31F0008E31F0008E31F0008E31F000867
:10215000E31F0008E31F0008E31F0008E31F000857
:102160006720000873200008012395E7022393E706
:10217000114A136823EA0E0313609CE70E4A536862
:1021800023EA0E0353609FE70B4A936823EA0E038A
:102190009360A2E7084AD36823EA0E03D360A5E759
:1021A00002B070BD0000221000003110001002408B
:1021B0000000014000080140000401400AB1016133
:1021C000704709040161704708B5054B5B6903421C
:1021D00000D108BD024B586102F0DCF9F9E700BFFD
:1021E0000004014003685A6912F4806F01D1002095
:1021F00070476FF480625A6100230363202280F8E5
:102200003D2080F83E30026C42F00402026480F807
:102210003C30012070472DE9F04107460D469046BD
:102220001E4624E0FFF746FE069BC01AB04200D8C7
:10223000EEB900233B63202287F83D2087F83E302B
:102240003A6C42F020023A6487F83C3001201EE0EC
:102250003B689C6925EA040C1FFA8CFCBCFA8CFCD8
:102260004FEA5C1CE04511D1B6F1FF3FDAD1C5F36E
:102270000743012BECD13B685B6925EA030C1FFA8D
:102280008CFCBCFA8CFC4FEA5C1CEBE70020BDE840
:10229000F0812DE9F04105460E46174698463DE08F
:1022A0001A6842F400721A602B686FF480625A61F7
:1022B00000232B63202285F83D2085F83E302A6CD0
:1022C00042F004022A6485F83C30012034E0FFF734
:1022D000F1FDA0EB0800B84200D8FFB900232B6342
:1022E000202285F83D2085F83E302A6C42F02002FD
:1022F0002A6485F83C3001201EE02B689C6926EAA0
:102300000404A4B2003C18BF0124A4B12B685A698C
:1023100012F4806FC4D1B7F1FF3FD8D1C6F30743A1
:10232000012BEAD12B685C6926EA0404A4B2003CC4
:1023300018BF0124E9E70020BDE8F081F0B583B0C3
:1023400004460D4616461F46C36A082B0DD0012BC6
:102350000BD013F5803F08D0036B122B0AD1026813
:10236000136843F48073136004E02268136843F435
:10237000807313600097334600224FF0011120460E
:10238000FFF749FF80B92369B3F5804F16D1236861
:1023900005F0FE051D613B46324613492046FFF716
:1023A00078FFF8B903B0F0BD23681B6813F4807F91
:1023B00002D04FF4007323640320F3E7EB1122688B
:1023C00003F0060343F0F00313613B46324607492E
:1023D0002046FFF75EFF18B92368EDB21D61DAE70A
:1023E0000120DFE70120DDE7020001000800010015
:1023F0002DE9F04184B004460D4616461F46C26AD8
:1024000001680B6843F480630B60082A0DD0012A31
:102410000BD012F5803F08D0036B112B0AD1026854
:10242000136843F48073136004E02268136843F474
:10243000807313600097334600224FF0011120464D
:10244000FFF7E9FE98B92369B3F5804F19D12368E6
:1024500045F00105EDB21D613B4632462A49204652
:10246000FFF717FF00284CD104B0BDE8F0812368C6
:102470001B6813F4807F02D04FF4007323640320A1
:10248000F2E74FEAE51808F00608236848F0F00282
:102490001A613B4632461D492046FFF7FAFE08B155
:1024A0000120E1E72368EDB21D613B463246164943
:1024B0002046FFF7EEFE08B10120D5E70022039287
:1024C000236859690391996903910399196841F443
:1024D00080711960009733464FF001112046FFF7D5
:1024E0009AFE20B9226848F0F1031361B4E723682B
:1024F0001B6813F4807F02D04FF400732364032021
:10250000B2E70120B0E700BF0200010008000100AF
:1025100070B504460D46164623685B6913F0800FBC
:102520001CD12046FFF75EFED0B9B5F1FF3FF3D0D6
:10253000FFF7C0FC801BA84201D8002DECD100237E
:102540002363202284F83D2084F83E30226C42F040
:102550002002226484F83C30012000E0002070BD9D
:102560000120FCE770B504460D46164623685B69FA
:1025700013F0040F1CD12046FFF734FED0B9B5F19B
:10258000FF3FF3D0FFF796FC801BA84201D8002D37
:10259000ECD100232363202284F83D2084F83E30D0
:1025A000226C42F02002226484F83C30012000E0DA
:1025B000002070BD0120FCE770B505460C461646AC
:1025C0002B68596911F0400F29D1596911F0100F8A
:1025D00015D1FFF76FFC801BA04201D8002CEFD172
:1025E00000232B63202285F83D2085F83E302A6C9D
:1025F00042F020022A6485F83C30012070BD6FF063
:1026000010025A6100232B63202285F83D2085F8B3
:102610003E302A6C2A6485F83C300120EEE7002029
:10262000ECE70000002800F0CC8070B5044690F87C
:102630003D30002B77D0242384F83D302268136886
:1026400023F0010313602268136843F4004313600E
:102650002268136823F40043136000F0FBFE6268F5
:102660005A4B9A4264D85A4B98428CBF002301239C
:10267000002B40F0A8805749A1FB00318B0C256846
:102680006A6822F03F0242EA91426A6021680A6A5F
:1026900022F03F0266684D4DAE424FD801331343DE
:1026A0000B622168CA6922F44F4222F0FF02666879
:1026B000464B9E424CD8431E7600B3FBF6F30133E3
:1026C00040F6FC70034278D0C3F30B031343CB6195
:1026D00021680B6823F0C003E269206A02431343B8
:1026E0000B6021688B6823F4034323F0FF03226906
:1026F000E068024313438B602168CB6823F0FF033B
:102700006269A06902431343CB602268136843F0F7
:102710000103136000202064202384F83D302063EF
:1027200084F83E0070BD80F83C30FEF777FF82E70A
:10273000294B98428CBF0023012399E74FF49675EB
:1027400005FB03F3254DA5FB03539B090133A6E7C6
:10275000A368BBB9451E06EB460CB5FBFCF501357D
:10276000C5F30B05B5FA85F56D0945BBC3B901384D
:1027700006EB4603B0FBF3F30133C3F30B0343F45F
:102780000043A3E7451E06EB860C0CEB8C0CB5FB57
:10279000FCF50135C5F30B05B5FA85F56D09E4E7E0
:1027A000013806EB860303EB8303B0FBF3F301333D
:1027B000C3F30B0343F4404388E7042386E7012374
:1027C00084E7012070470120ACE700BFA08601002C
:1027D0007F841E0083DE1B43FF083D00D34D621043
:1027E0002DE9F04385B004460F46914698460C9E6D
:1027F000FFF760FB054694F83D00C0B2202804D0E6
:102800000227384605B0BDE8F08300951923012260
:102810004F492046FFF7FFFC002840F0928094F8D3
:102820003C30012B00F08F80012384F83C3023687A
:102830001A6812F0010F03D11A6842F001021A60FF
:102840002268136823F400631360212384F83D3069
:10285000102384F83E3000232364C4F82490A4F8A5
:102860002A80638D23853B4BE3622B4632463946F3
:102870002046FFF763FD0746002866D10023039337
:1028800023685A6903929B690393039B11E0236CAD
:10289000042B01D00127B4E72268136843F40073C6
:1028A0001360F7E72A4631462046FFF75BFE002813
:1028B0002ED1238D002B36D02A4631462046FFF7F5
:1028C00027FE0028E3D1626A236812781A61606AE1
:1028D000431C6362618D89B2013989B26185238DA0
:1028E000013B9BB223852268516911F0040FD9D0B6
:1028F000002BD7D043781361636A01336362638D21
:102900009BB2013B9BB26385238D013B2385C9E7C5
:10291000236C042B01D0012773E72268136843F46A
:1029200000731360F7E72268136843F400731360C1
:10293000202384F83D30002384F83E3084F83C3076
:102940005FE702275DE702275BE7012759E700BF42
:10295000020010000000FFFF2DE9F04389B004469B
:102960000F4691469846109E00230793FFF7A2FA60
:10297000054694F83D00C0B2202804D0022738460E
:1029800009B0BDE8F0830095192301228049204653
:10299000FFF741FC002840F0708194F83C30012B97
:1029A00000F06D81012384F83C3023681A6812F02E
:1029B000010F03D11A6842F001021A6022681368FD
:1029C00023F400631360222384F83D30102384F83D
:1029D0003E3000232364C4F82490A4F82A80638D39
:1029E00023856C4BE3622B46324639462046FFF77F
:1029F000FFFC0746002840F04481238D5BB9039318
:102A000023685A6903929A690392039A1A6842F4F6
:102A100000721A60EEE0012B0FD0022B21D0226849
:102A2000136843F4806313600023069323685A6994
:102A300006929B690693069BDCE02268136823F4E8
:102A40008063136072B60023049323685A6904926A
:102A50009A690492049A1A6842F400721A6062B683
:102A6000C8E02268136843F40063136072B6002361
:102A7000059323685A6905929A690592059A1A681E
:102A800022F480621A6062B6B4E02A4631462046DB
:102A9000FFF792FD002840F0F68023681A69636A08
:102AA0001A70636A01336362238D013B2385638D52
:102AB0009BB2013B9BB263859CE0009533460022AC
:102AC00035492046FFF7A7FB002840F0E080226848
:102AD000136823F48063136072B623681A69636A0B
:102AE0001A70636A01336362238D013B2385638D12
:102AF0009BB2013B9BB26385284B1B68DB08284ACD
:102B0000A2FB03231B0A03EB8303C3EBC30307935B
:102B10000799013907910799002928D023685A6934
:102B200012F0040FF4D01A6842F400721A6023689D
:102B30001A69636A1A70636A01336362238D013B09
:102B40002385638D9BB2013B9BB2638562B623688C
:102B50001A69636A1A70636A01336362238D013BE9
:102B60002385638D9BB2013B9BB2638542E00023CA
:102B70002363202284F83D2084F83E30226C42F00A
:102B80002002226462B684F83C300127F7E600BFD9
:102B9000020010000000FFFF040001000000002000
:102BA00089B5F8142A4631462046FFF705FD00286E
:102BB0006FD123681A69636A1A70626A531C636270
:102BC000238D013B2385638D9BB2013B9BB26385C3
:102BD0002368596911F0040F0CD01B695370636AA4
:102BE00001336362238D013B2385638D9BB2013BDF
:102BF0009BB26385218D002936D00329D2D80129C3
:102C00003FF443AF02297FF458AF009533460022CA
:102C100021492046FFF7FFFA002836D172B6226814
:102C2000136843F40073136023681A69636A1A70A7
:102C3000636A01336362238D013B2385638D9BB2FD
:102C4000013B9BB2638562B623681A69636A1A7096
:102C5000636A01336362238D013B2385638D9BB2DD
:102C6000013B9BB26385C5E7202384F83D300023F8
:102C700084F83E3084F83C3081E602277FE6022764
:102C80007DE601277BE6012779E6012777E6012724
:102C900075E6012773E600BF040001002DE9F0434B
:102CA00085B00446884691461D46FFF703F994F81F
:102CB0003D30DBB2202B03D0022005B0BDE8F0830D
:102CC000064600901923012258492046FFF7A3FA2F
:102CD000002840F0A28094F83C30012B00F09F8047
:102CE000012384F83C3023681A6812F0010F03D1E5
:102CF0001A6842F001021A602268136823F4006324
:102D00001360242384F83D3000232364A3F580332B
:102D1000E362012740E023681B6813F4807F02D040
:102D20004FF4007323640320C7E7A02384F83D30E9
:102D300022685369C3F340035269C2F3802294F8B6
:102D40003DC05FFA8CFCBCF1A00F09D043B93AB981
:102D5000FFF7B0F8801BA842E7D8002DE8D1E4E7E0
:102D6000202384F83D3023685A6912F0020F31D1D4
:102D70001A6842F400721A6023686FF480625A6124
:102D800000961923012229492046FFF744FA00281A
:102D900049D101374F4538D22268136843F4807314
:102DA000136000962B4600224FF001112046FFF7DA
:102DB00032FA0028AFD1236808F0FE021A61FFF74B
:102DC00079F8064622685369C3F340035269C2F397
:102DD0008022B4E71A6842F400721A600023039359
:102DE00023685A6903929B690393039B00961923F6
:102DF00001220E492046FFF70EFA90B9202384F8ED
:102E00003D30002384F83C3057E7202384F83D30E0
:102E1000002384F83C3001204FE702204DE70220D8
:102E20004BE7012049E7012047E700BF02001000FF
:102E3000006C704782B0084B1B68084AA2FB032352
:102E40005B0A00FB03F3019300BF019B5A1E019232
:102E5000002BF9D102B0704700000020D34D621062
:102E6000002800F0F18170B582B00446036813F0C9
:102E7000010F2CD0994B5B6803F00C03042B1DD081
:102E8000964B5B6803F00C03082B12D06368B3F514
:102E9000803F41D0002B55D103F1804303F504332B
:102EA0001A6822F480321A601A6822F480221A60AA
:102EB00037E08A4B5B6813F4803FE7D0874B1B6891
:102EC00013F4003F03D06368002B00F0BF81236838
:102ED00013F0020F75D0814B5B6813F00C0F5FD0BD
:102EE0007E4B5B6803F00C03082B54D02369002B46
:102EF00000F08A807A4B01221A60FEF7DBFF05465C
:102F0000764B1B6813F0020F75D1FEF7D3FF401B01
:102F10000228F5D903209EE1704A136843F48033F8
:102F20001360636843B3FEF7C5FF05466B4B1B6830
:102F300013F4003FCBD1FEF7BDFF401B6428F5D949
:102F4000032088E1B3F5A02F09D0644B1A6822F45E
:102F500080321A601A6822F480221A60E1E703F1D5
:102F60008043A3F53C331A6842F480221A601A6841
:102F700042F480321A60D4E7FEF79CFF0546574BB7
:102F80001B6813F4003FA2D0FEF794FF401B642897
:102F9000F5D903205FE1514B5B6813F4803FA5D165
:102FA0004E4B1B6813F0020F03D02369012B40F036
:102FB0004F814A4A136823F0F803616943EAC10369
:102FC0001360236813F0080F33D0A369002B5CD083
:102FD000434B0122C3F88024FEF76CFF05463F4BAC
:102FE0005B6A13F0020F21D1FEF764FF401B022839
:102FF000F5D903202FE1394A136823F0F8036169FA
:1030000043EAC1031360DCE7354B00221A60FEF788
:1030100051FF0546314B1B6813F0020FD1D0FEF76C
:1030200049FF401B0228F5D9032014E10120FFF7D6
:1030300001FF236813F0040F00F09680274BDB6933
:1030400013F0805F34D1254BDA6942F08052DA61A7
:10305000DB6903F080530193019B0125214B1B6821
:1030600013F4807F26D0E368012B3DD0002B53D191
:1030700003F1804303F504331A6A22F001021A6255
:103080001A6A22F004021A6233E0154B0022C3F8D8
:103090008024FEF70FFF0546104B5B6A13F0020F0A
:1030A000C7D0FEF707FF401B0228F5D90320D2E066
:1030B0000025D3E70B4A136843F480731360FEF7CF
:1030C000F9FE0646074B1B6813F4807FCBD1FEF751
:1030D000F1FE801B6428F5D90320BCE000100240FB
:1030E00000004242007000405F4A136A43F001034F
:1030F0001362E36833B3FEF7DDFE06465A4B1B6AE4
:1031000013F0020F2FD1FEF7D5FE801B41F288335A
:103110009842F3D903209EE0052B09D0524B1A6A3E
:1031200022F001021A621A6A22F004021A62E0E72F
:103130004D4B1A6A42F004021A621A6A42F0010206
:103140001A62D6E7FEF7B6FE0646474B1B6A13F037
:10315000020F08D0FEF7AEFE801B41F28833984282
:10316000F3D9032077E0E5B9E369002B72D03E4A3A
:10317000526802F00C02082A56D0022B17D03B4BA3
:1031800000221A66FEF796FE0446374B1B6813F0C2
:10319000007F47D0FEF78EFE001B0228F5D90320E2
:1031A00059E0314AD36923F08053D361DCE72F4BD8
:1031B00000221A66FEF77EFE05462B4B1B6813F0B5
:1031C000007F06D0FEF776FE401B0228F5D90320CB
:1031D00041E0236AB3F5803F1AD023494B6823F4BA
:1031E0007413226A606A024313434B601F4B01222F
:1031F0001A66FEF75FFE04461B4B1B6813F0007F48
:103200000ED1FEF757FE001B0228F5D9032022E05D
:10321000154A536823F40033A1680B435360DCE77D
:10322000002018E0002016E0012B16D00E4B5B6842
:1032300003F48031226A914211D103F47013626A5F
:1032400093420ED1002006E001207047012002E0E9
:10325000012000E0002002B070BD0120FBE701204A
:10326000F9E70120F7E700BF0010024000004242EA
:1032700086B0164B0FCB0DF1180C0CE90F0040F285
:103280000123ADF80430124B5B6803F00C02082AEE
:1032900002D0104806B07047C3F38342624412F86C
:1032A000100C13F4803F0CD0094B5B68C3F3404310
:1032B000634413F8143C074A02FB00F0B0FBF3F040
:1032C000E8E7054B03FB00F0E4E700BFE4B50008C6
:1032D0000010024000127A0000093D00002800F0B2
:1032E000A08070B50D460446524B1B6803F00703DF
:1032F0008B420BD24F4A136823F007030B43136032
:10330000136803F007038B4240F08D80236813F0AD
:10331000020F17D013F0040F04D0474A536843F448
:10332000E0635360236813F0080F04D0424A5368E7
:1033300043F460535360404A536823F0F003A1689C
:103340000B435360236813F0010F31D06368012BE6
:1033500020D0022B25D0384A126812F0020F64D018
:1033600035494A6822F0030213434B60FEF7A2FD81
:103370000646314B5B6803F00C036268B3EB820FC7
:1033800016D0FEF797FD801B41F288339842F0D9A2
:10339000032045E0284A126812F4003FE0D10120E2
:1033A0003EE0254A126812F0007FD9D1012037E0B3
:1033B000204B1B6803F00703AB420AD91D4A136870
:1033C00023F007032B431360136803F00703AB429A
:1033D0002DD1236813F0040F06D0174A536823F445
:1033E000E063E1680B435360236813F0080F07D0D4
:1033F000114A536823F46053216943EAC1035360BF
:10340000FFF736FF0C4B5B68C3F303130B4AD35C27
:10341000D8400B4B18600B4B1868FEF707FD0020D7
:1034200070BD012070470120FAE70120F8E7012074
:10343000F6E700BF0020024000100240CCB50008B3
:103440000000002008000020014B1868704700BFF2
:103450000000002008B5FFF7F7FF044B5B68C3F3DB
:103460000223034AD35CD84008BD00BF00100240CD
:10347000DCB5000808B5FFF7E7FF044B5B68C3F352
:10348000C223034AD35CD84008BD00BF00100240ED
:10349000DCB5000870B4036A23F001030362036A19
:1034A0004668826922F073020C6844EA020523F040
:1034B00002028B6813430D4CA04209D00B4CA04272
:1034C0000DD0466085614A684263036270BC7047F4
:1034D00023F00803CA68134323F00403EEE726F43D
:1034E00040764A6932438E691643EAE7002C014070
:1034F00030B4036A23F480730362036A4568C269C7
:1035000022F073020C68224323F400738C6843EAB0
:1035100004230F4CA04209D00D4CA0420ED04560B0
:10352000C2614A68C263036230BC704723F400631F
:10353000CC6843EA042323F48063EDE725F4405587
:103540004C6945EA04158C6945EA0415E7E700BFB4
:10355000002C014030B4036A23F480530362036AF1
:103560004468C26922F4E6420D6842EA052223F467
:1035700000538D6843EA0533074DA84206D04460E6
:10358000C2614A680264036230BC704724F480441C
:103590004D6944EA8514F2E7002C014010B4036A37
:1035A000046A24F001040462846924F0F00C4CEAFB
:1035B000021223F00A030B438261036210BC7047BE
:1035C00010B4046A24F0100404628469036A24F4C9
:1035D000704C4CEA023223F0A00343EA01138261EB
:1035E000036210BC7047836823F070030B4343F001
:1035F000070383607047704703681B4A90420AD0F4
:10360000B0F1804F07D0A2F59432904203D002F57A
:103610008062904203D123F070034A681343124A38
:1036200090420AD0B0F1804F07D0A2F59432904278
:1036300003D002F58062904203D123F44073CA683C
:10364000134323F080034A69134303608B68C3620A
:103650000B688362044B984202D001234361704798
:103660000B690363F9E700BF002C014040B310B5BC
:10367000044690F83D30F3B1022384F83D302146F2
:1036800051F8040BFFF7B8FF012384F8463084F8A3
:103690003E3084F83F3084F8403084F8413084F87C
:1036A000423084F8433084F8443084F8453084F85C
:1036B0003D30002010BD80F83C30FEF749FADBE7D2
:1036C0000120704740B310B5044690F83D30F3B187
:1036D000022384F83D30214651F8040BFFF78CFF9C
:1036E000012384F8463084F83E3084F83F3084F873
:1036F000403084F8413084F8423084F8433084F814
:10370000443084F8453084F83D30002010BD80F806
:103710003C30FFF770FFDBE701207047002857D0EF
:1037200070B50D46044690F83D30002B4BD0022377
:1037300084F83D302268936823F4804323F0070324
:103740009360214651F8040BFFF756FF21688A6801
:103750008B690E6A2868104323F4407C2CF0030C1C
:10376000AA68AB6942EA032343EA0C0323F47C43CF
:1037700023F0FC03EA69D5F80CC04CEA022C4CEAB1
:10378000030C2A6A13032A6943EA021343EA0C036F
:1037900026F022066A686D6942EA051232438860A3
:1037A00021688B6123681A62012384F8463084F80B
:1037B0003E3084F83F3084F8423084F8433084F857
:1037C0003D30002070BD80F83C30FEF7D7F9AEE701
:1037D0000120704730B4036A23F010030362036AC8
:1037E0004468826922F4E6420D6842EA052223F029
:1037F00020038D6843EA05130E4DA84209D00D4DF4
:10380000A8420ED0446082614A688263036230BC81
:10381000704723F08003CD6843EA051323F040038B
:10382000EDE724F440644D6944EA85048D6944EA77
:103830008504E7E7002C014038B590F83C30012BB7
:1038400060D004460D46012380F83C300C2A1AD87B
:10385000DFE802F0071919191D1919193119191979
:1038600044000068FFF716FE2268936943F00803DE
:1038700093612268936923F004039361226893693A
:1038800029690B439361002084F83C0038BD00682F
:10389000FFF7A0FF2268936943F4006393612268F5
:1038A000936923F48063936122689369296943EAE9
:1038B00001239361E7E70068FFF71AFE2268D369E6
:1038C00043F00803D3612268D36923F00403D36172
:1038D0002268D36929690B43D361D4E70068FFF7F5
:1038E00039FE2268D36943F40063D3612268D36947
:1038F00023F48063D3612268D369296943EA0123F1
:10390000D361C0E70220C1E710B4846824F47F4C7F
:1039100042EA03220A4342EA0C02826010BC70476A
:1039200090F83C30012B66D010B50446012380F896
:103930003C30022380F83D300268936823F47F43D3
:1039400023F0770393600B68602B40D022D8402B84
:1039500047D00BD9502B0ED1CA6849680068FFF7D1
:103960001DFE50212068FFF73EFE04E0202B0CD006
:1039700008D9302B09D0012384F83D30002084F889
:103980003C0010BD0BB1102BF5D119462068FFF794
:103990002AFEF0E7702B0ED0B3F5005FEBD1CB68B9
:1039A0004A6889680068FFF7AFFF2268936843F4AC
:1039B00080439360DFE7CB684A6889680068FFF757
:1039C000A3FF2268936843F077039360D3E7CA6844
:1039D00049680068FFF7F4FD60212068FFF703FEE7
:1039E000C9E7CA6849680068FFF7D8FD4021206828
:1039F000FFF7F9FDBFE70220704701F01F01012327
:103A000003FA01FC036A23EA0C030362036A02FA65
:103A100001F10B430362704710B50446084651BBE1
:103A200094F83E30DBB2013B18BF0123002B5BD181
:103A3000002839D1022384F83E3001220146206853
:103A4000FFF7DBFF23682A4A93423DD02368284AC8
:103A500093423ED0B3F1804F3BD0A2F594329342D3
:103A600037D002F58062934233D01A6842F00102E7
:103A70001A60002039E0042908D008290DD094F8F4
:103A80004130DBB2013B18BF0123CFE794F83F3050
:103A9000DBB2013B18BF0123C8E794F84030DBB22A
:103AA000013B18BF0123C1E7042805D0082807D02F
:103AB000022384F84130C0E7022384F83F30BCE79A
:103AC000022384F84030B8E75A6C42F400425A644A
:103AD000BCE79A6802F00702062A07D01A6842F08B
:103AE00001021A60002000E0012010BD0020FCE768
:103AF000002C014038B5044690F83E00C0B294F85E
:103B00003F3094F84220D2B294F843C00D4609BB2E
:103B100001285ED1012A5DD1022384F83E3084F869
:103B20004230002D39D0042D48D0012200212068D8
:103B3000FFF763FF012204212068FFF75EFF226880
:103B4000D36843F00203D3602268D36843F00403D0
:103B5000D3602CE0DBB25FFA8CFC042912D0012880
:103B60003DD1012B36D1012A3BD1BCF1010F3AD115
:103B7000022384F83E3084F83F3084F8423084F8E1
:103B80004330CEE7012B26D1BCF1010F25D1022312
:103B900084F83F3084F84330C3E7012200212068D5
:103BA000FFF72BFF2268D36843F00203D36022683B
:103BB000136843F00103136000200BE0012204218D
:103BC0002068FFF71AFF2268D36843F00403D3602C
:103BD000EDE7012038BD0120FCE71846FAE7012097
:103BE000F8E71846F6E71046F4E7000090F83C3096
:103BF000012B2CD010B4012380F83C30022380F834
:103C00003D3003685A689C6822F0700C0A6842EAEA
:103C10000C025A6003680F4A93420AD0B3F1804FF6
:103C200007D0A2F59432934203D002F5806293420A
:103C300004D124F080044A6814439C60012380F876
:103C40003D30002380F83C30184610BC70470220FD
:103C5000704700BF002C014090F83C30012B22D06F
:103C6000012380F83C30CB6823F440738A68134307
:103C700023F480634A68134323F400630A68134300
:103C800023F480530A69134323F400534A6913430E
:103C900023F48043CA69134302685364002380F805
:103CA0003C301846704702207047000010B50446AB
:103CB0000268136923F44053C1680B43136183689E
:103CC0000269134342691A430168CB6823F4B05375
:103CD00023F00C031343CB600268536923F4407351
:103CE00081690B4353610268134B9A4220D0FFF75E
:103CF000B1FB024602EB820202EB820263689B0088
:103D0000B2FBF3F20D48A0FB02314909642303FB27
:103D100011231B013233A0FB03235B0903F0F002E4
:103D200002EB011203F00F03216813448B6010BDF6
:103D3000FFF7A0FB0246DDE7003801401F85EB518D
:103D40002DE9F84305460F4616469946DDF82080D2
:103D50002C68246837EA04030CBF4FF0010C4FF0C5
:103D6000000CB4451FD1B8F1FF3FF1D0B8F1000FFE
:103D700005D0FEF79FF8A0EB09004045E8D92A6876
:103D8000D36823F4D073D3602A68536923F0010306
:103D90005361202385F83D3085F83E30002385F8B7
:103DA0003C30032000E00020BDE8F88358B310B594
:103DB000044690F83D300BB3242384F83D3022684C
:103DC000D36823F40053D3602046FFF76FFF2268C7
:103DD000136923F4904313612268536923F02A0383
:103DE00053612268D36843F40053D36000202064F9
:103DF000202384F83D3084F83E3010BD80F83C30FC
:103E0000FDF7DAFFD8E7012070472DE9F04182B0D5
:103E10001E4690F83D30DBB2202B54D104460D46AF
:103E20009046002953D0002A53D090F83C30012B03
:103E300051D0012380F83C3000230364212380F813
:103E40003D30FEF737F80746A4F82480A4F8268012
:103E5000A368B3F5805F05D04FF00008002384F815
:103E60003C3012E0236913B14FF00008F6E7A84692
:103E70000025F3E738F8023B2268C3F308035360D8
:103E8000E28C92B2013A92B2E284E38C9BB273B1BB
:103E900000963B46002280212046FFF751FFE0B903
:103EA000002DE7D015F8012B23685A60E8E700964B
:103EB0003B46002240212046FFF742FF78B92023ED
:103EC00084F83D3000E0022002B0BDE8F08101201E
:103ED000FAE70120F8E70220F6E70320F4E70320E1
:103EE000F2E72DE9F04182B01E4690F83E30DBB299
:103EF000202B5CD104460D46904600295BD0002A59
:103F00005BD090F83C30012B59D0012380F83C3035
:103F100000230364222280F83E200363FDF7CAFFDA
:103F20000746A4F82C80A4F82E80A368B3F5805F20
:103F300005D04FF00008002384F83C3017E02369D7
:103F400013B14FF00008F6E7A8460025F3E7236811
:103F50005B68C3F3080328F8023B03E023685B684F
:103F60002B700135E28D92B2013A92B2E285E38D77
:103F70009BB2BBB100963B46002220212046FFF7B2
:103F8000DFFEF0B9002DE2D0A368B3F5805FE5D085
:103F900013B92369002BE1D023685B6803F07F032A
:103FA0002B70DEE7202384F83E30002000E0022062
:103FB00002B0BDE8F0810120FAE70120F8E7022015
:103FC000F6E70320F4E70000036813F5617F01DAE8
:103FD0000B4B03600368B3F5617F02DD4FF461733F
:103FE00003600B6813F5617F01DA054B0B600B680A
:103FF000B3F5617F02DD4FF461730B60704700BF62
:104000007CFCFFFF0028B8BF4042704738B50C4623
:10401000051E1ADB154B0122C3F8B0210022C3F89C
:10402000B4212046FFF7EEFF114B1864002C14DB7F
:104030000E4B0122C3F8BC210022C3F8B821284648
:10404000FFF7E0FF0A4B586338BD084B0022C3F866
:10405000B0210122C3F8B421E3E7044B0022C3F8E6
:10406000BC210122C3F8B821E9E700BF008021424A
:10407000002C01402DE9F04792B08246CDE906239D
:10408000D0E90834CDE904341A462346DDE91A01A3
:10409000FCF762F8DDE91C23FCF716FADAE90623DF
:1040A000FCF75CF806460F46CDE90867CAE90667E3
:1040B000DAE91045DDE91C2320462946FCF704FA1D
:1040C00002460B46CDE90223DAE90C8942464B460B
:1040D000FCF742F8DAE90E6732463B46FCF73CF85B
:1040E000DAE90023FCF73AF8DDE91C23FCF7ECF9E8
:1040F000DAE90A23FCF732F80A460146CDE9001254
:10410000CAE90A12DDE9022340464946FCF724F8D1
:1041100080468946CDE90A89CAE90C89DDE902238E
:1041200030463946FCF718F88046894602460B4669
:10413000CAE90E23DDE91C23DAE90201FCF7C4F920
:1041400002460B4620462946FCF708F805460E466F
:10415000CDE90C56CAE91056DAE90423DDE9004539
:1041600020462946FBF7FAFF06460F4602460B4655
:1041700020462946FCF7D2FA04460D46CDE90E4505
:1041800032463B46CDE9028940464946FCF7C6FA2D
:1041900080468946CDE91089DDE9086732463B460D
:1041A000DDE90601FBF7D8FF02460B46CDE9062301
:1041B00020462946FCF788F902460B463046394628
:1041C000FBF7CCFF06460F46CAE90667DDE9062382
:1041D00040464946FCF778F902460B46DDE9040102
:1041E000FBF7BCFFCAE9080122462B46DDE90001C6
:1041F000FCF76AF902460B46DDE90001FBF7ACFF6C
:10420000CAE90A0122462B46DDE90A45204629462D
:10421000FCF75AF902460B4620462946FBF79CFF5D
:10422000CAE90C0142464B46DDE90001FCF74CF9B6
:1042300002460B46DDE90201FBF78EFFCAE90E01DB
:1042400042464B4620462946FCF73EF902460B46BD
:10425000DDE90C01FBF780FFCAE910013046394661
:1042600012B0BDE8F08700002DE9F04F85B004469C
:10427000B0F90C00FCF7BEF80022734BFCF724F9F0
:10428000C4E90601B4F90E00FCF7B4F800226E4B45
:10429000FCF71AF9C4E90801B4F91000FCF7AAF810
:1042A00063A3D3E90023FCF739FAC4E90A01B4F99E
:1042B0003000FCF79FF860A3D3E90023FCF72EFA47
:1042C000C4E90E01B4F93200FCF794F85AA3D3E91B
:1042D0000023FCF723FAC4E91001B4F93400FCF719
:1042E00089F855A3D3E90023FCF718FAC4E91201B1
:1042F000FDF7E0FD554D2B68C01AFCF76BF8002266
:10430000534BFCF70BFA80468946FDF7D3FD286036
:10431000B4F90C00B4F9103003FB03F300FB0030D8
:10432000FCF768F806F06CFF06460F4600220023F3
:10433000FCF732FB002866D1B4F90E00FCF75AF8FE
:1043400032463B46FCF7EAF906F0C6FD3CA3D3E94A
:104350000023FCF7B9F882468B46B4F90C506D4245
:10436000B4F91000FCF746F806460F462846FCF75D
:1043700041F832463B4606F041FF31A3D3E9002322
:10438000FCF7A2F806460F460022324BFCF70EFB64
:1043900030B10022304BD4E91801FCF725FB70B98D
:1043A00000222D4B30463946FCF71EFB00282FD04B
:1043B0000022284BD4E91801FCF7F8FA40B3274B48
:1043C000C3E90667C4E91867666E0022224B206EB7
:1043D00026F00041FCF708FB28B1E16BA26B01F16C
:1043E0000043C4E90E23CDE90289D4E91023CDE9C5
:1043F000002352465B461A48FFF73CFEC4E916010B
:1044000005B0BDE8F08F4FF0000A4FF0000BA4E7B5
:10441000CDE90289D4E91023CDE9002332463B4699
:104420000E48FFF727FEC4E91801CDE7AFF300807F
:10443000000000000029CC40000000000060604047
:10444000F8C1631ADCA54C400000103F900D00201D
:1044500000408F40008056C0008056405800002029
:10446000100000200000000038B50D46FBF7D4FF17
:104470000BA3D3E90023FBF771FEFCF7E7FA0A4927
:10448000FCF742FC044609492846FCF73DFC01467E
:104490002046FCF731FBFCF7FDFD38BDAFF3008093
:1044A000666666666666064000001AC2E17A34C136
:1044B0002DE97043FCF7D4FB05462F4B18602F4EB7
:1044C0002F493068FCF720FC044630602846FBF793
:1044D000A3FF23A3D3E90023FBF7F6FF8046894619
:1044E0002046FBF799FF42464B46FBF737FEFCF7A9
:1044F000ADFA04463060234D2968FCF7FDFA2860C8
:104500002149FCF7BDFD08B11F4A2A601F491D4B18
:104510001868FCF797FD10B11A4B1C4A1A60204628
:10452000FBF77AFF10A3D3E90023FBF7CDFF044686
:104530000D46144B1868FBF76FFF0DA3D3E900235A
:10454000FBF7C2FF02460B4620462946FBF706FE54
:10455000FCF754FA0E4B1860BDE87083AFF300808F
:104560009A9999999999C93F6666666666663C40CC
:10457000931804560E2DC23F740D00206C0D0020C0
:10458000CDCC4C3F700D00200000C8420000C8C2D6
:10459000800D0020254BD3F8303103B170472DE951
:1045A000F041234B19684B6A1BB2224D2B60224B02
:1045B0001A68536A1BB2DFF88480C8F80030002301
:1045C0004B6253621E4C1F49204600F021F92046E1
:1045D00000F034F92046FFF747FED4E91867D4E924
:1045E0001001FCF733FA044630463946FCF72EFA40
:1045F0002146FFF739FF144C2060D8F800102868D6
:10460000FFF756FF114B186023685B42181A104CD5
:104610002060104D286029462046FFF7D5FC296808
:104620002068FFF7F3FCBDE8F08100BF00002142E5
:10463000D80C0020780D0020900C00207C0D00206C
:10464000D00B0020380C0020680D0020840D0020C5
:10465000880D00208C0D002070B582B005460C46F8
:10466000154E0DF107031B220178304600F063F967
:104670009DF8073023F018035BB243EAC403DBB2B2
:104680008DF807301B222978304600F0A9F9032C59
:1046900005D8DFE804F002070A0D084B6B60002024
:1046A00002B070BD064B6B60F9E7064B6B60F6E736
:1046B000054B6B60F3E700BF005400402D23FA3B2D
:1046C0002D237A3C90C1F93C90C1793D70B582B000
:1046D00005460C46174E0DF107031C2201783046A3
:1046E00000F029F99DF8073023F018035BB243EA84
:1046F000C403DBB28DF807301C222978304600F065
:104700006FF9032C06D8DFE804F002080C104FF014
:104710006253AB60002002B070BD4FF06453AB60D9
:10472000F8E74FF06653AB60F4E74FF06853AB60C7
:10473000F0E700BF0054004008B50B46192201788D
:10474000034800F04DF900B908BD0120FCE700BFA7
:1047500000540040F0B583B0044616461F4661F091
:104760002F010170174D184A0021284600F0D4F897
:104770002178284600F050F900BB05460DF10703EB
:10478000752221780F4800F0D6F89DF80730682B85
:1047900001D0032513E000236B222178094800F0A3
:1047A0001FF907212046FFF7C7FF31462046FFF7D4
:1047B0008DFF39462046FFF74FFF00E002252846CF
:1047C00003B0F0BD00540040801A060030B583B03D
:1047D00004460E4D212338220178284600F000F9C6
:1047E0000DF1070337222178284600F0A4F89DF840
:1047F000073043F010038DF8073037222178284620
:1048000000F0EEF8002003B030BD00BF00540040BF
:1048100010B582B00C4600230B700DF107033A224D
:104820000178054800F087F820B99DF8073023701B
:1048300002B010BD0120FBE70054004010B586B067
:1048400004460E23009302AB3B2201781F4800F080
:104850009CF89DF808209DF8093043EA0223A381C3
:104860009DF80A209DF80B3043EA0223E3819DF86E
:104870000C209DF80D3043EA022323829DF80E3070
:104880001B021BB29DF80F001843FCF7E9F9104911
:10489000FCF7EEFA0F49FCF72FF920659DF8102080
:1048A0009DF8113043EA022323869DF812209DF8DB
:1048B000133043EA022363869DF814209DF81530D7
:1048C00043EA0223A386002006B010BD0054004036
:1048D0000000AA43B81E124200238361C3604FF454
:1048E000804202614361C36103624160836070473B
:1048F000064B984205D003F58063984203D0002010
:104900007047034870470348704700BF0054004099
:10491000A0000020F400002070B506461546FFF701
:10492000E7FF044606602946FFF7D6FF2046FDF75D
:1049300079FE002070BD70B584B00C461E468DF81F
:104940000F20FFF7D5FF0546A4B24FF47A7100910E
:1049500001230DF10F022146FDF742FF58B94FF434
:104960007A7300930123324621462846FDF7F4FF6F
:1049700030B904B070BD2846FEF75AFA0120F8E7B6
:104980002846FEF755FA0120F3E770B584B00C46CF
:104990001E468DF80F20FFF7ABFF0546A4B24FF47B
:1049A0007A71009101230DF10F022146FDF718FFE6
:1049B00060B94FF47A730093BDF820303246214637
:1049C0002846FDF7C9FF30B904B070BD2846FEF790
:1049D0002FFA0120F8E72846FEF72AFA0120F3E72C
:1049E000F0B585B00C4616461D46FFF781FF074619
:1049F0008DF80C608DF80D504FF47A7300930223FC
:104A000003AA2146FDF7ECFE08B905B0F0BD384613
:104A1000FEF70EFA0120F8E710B50C46FFF768FF25
:104A2000052302222146FEF739F900B910BD012005
:104A3000FCE7000008B530B900214FF4806203485C
:104A400000F056FA08BDFF21F7E700BF9C0D0020DB
:104A50007F2815D83F2913D8104B1B7913B1B2FA10
:104A600082F25209012A0CD0CB0800EBC31001F0EE
:104A7000070101238B400A4A115C21EA030111540A
:104A80007047CB0800EBC31001F0070101238B40F6
:104A9000034A115C19431154704700BF940D002064
:104AA0009C0D0020014B188059807047940D002008
:104AB0002DE9F8439046244B1B880A7813447F2B3A
:104AC0003EDC81460D46204B5B884A7813443F2BE1
:104AD00038DC002620E01C4B1888598831442044DB
:104AE000B8FA88F2520989B280B2FFF7B1FF0134F7
:104AF0002B78A3420FD907FA04F313F4004FEAD03E
:104B0000114B1888598831442044424689B280B2FA
:104B1000FFF79EFFEBE701366A78B24208D9696871
:104B2000A9F1200302FB036331F813700024DFE7CF
:104B30002B78054A11880B4413804846BDE8F8835A
:104B40000020FBE70020F9E7940D002070B5044633
:104B50000E46154600E00134207838B12A46314629
:104B6000FFF7A6FF034620788342F4D070BD000013
:104B700000B5C3B08DF808104FF0000C09E00CF13F
:104B8000010E12F80C100DF1080C0CF80E105FFA63
:104B90008EFC1FFA8CFE9E45F1D301330A2200924F
:104BA0009BB202AA01460348FDF71AFE43B05DF826
:104BB00004FB00BF780B002000B585B08DF80C1009
:104BC0008DF80D200A230093022303AA014603480F
:104BD000FDF706FE05B05DF804FB00BF780B002072
:104BE00010B500241AE0A4F15002D2B200217820BE
:104BF000FFF7E2FF002211467820FFF7DDFF1022C9
:104C000000217820FFF7D8FF8023064A02EBC41268
:104C100040217820FFF7ACFF0134E4B2072CE2D941
:104C200010BD00BF9C0D002008B544F62063012292
:104C300078215548FEF732F8002840F0A38040F66E
:104C4000C41300E0013B002BFCD1AE2200217820F0
:104C5000FFF7B2FF202200217820FFF7ADFF1022DE
:104C600000217820FFF7A8FFB02200217820FFF76D
:104C7000A3FFC82200217820FFF79EFF00221146E3
:104C80007820FFF799FF102200217820FFF794FF8A
:104C9000402200217820FFF78FFF81220021782019
:104CA000FFF78AFFFF2200217820FFF785FFA1226E
:104CB00000217820FFF780FFA62200217820FFF74F
:104CC0007BFFA82200217820FFF776FF3F220021FA
:104CD0007820FFF771FFA42200217820FFF76CFFF6
:104CE000D32200217820FFF767FF002211467820A9
:104CF000FFF762FFD52200217820FFF75DFFF02249
:104D000000217820FFF758FFD92200217820FFF7F3
:104D100053FF222200217820FFF74EFFDA220021E4
:104D20007820FFF749FF122200217820FFF744FF87
:104D3000DB2200217820FFF73FFF2022002178208E
:104D4000FFF73AFF8D2200217820FFF735FF14226C
:104D500000217820FFF730FFAF2200217820FFF7F5
:104D60002BFF2E2200217820FFF726FF0020FFF7DF
:104D700061FEFFF735FF054B00221A805A800120A3
:104D8000587108BD0020FCE7780B0020940D00202E
:104D9000022801D80120704708B500F07FF80923E8
:104DA0000360002008BD000010B5013801280AD8B2
:104DB00014464FF0FF3392B207480068FFF725F81A
:104DC00040B9204610BD00F069F8092303604FF098
:104DD000FF30F7E70520F5E79C110020022801D8F5
:104DE0000020704708B500F059F8092303604FF020
:104DF000FF3008BD08B500F051F8092303604FF0FB
:104E0000FF3008BD08B548B94FF0FF33012208480C
:104E10000068FFF766F840B9012008BD00F03EF8D1
:104E2000092303604FF0FF30F7E70520F5E700BFE7
:104E30009C11002008B5022804D84FF400534B60A1
:104E4000002008BD00F02AF809230360F8E70000FD
:104E50000C480D490D4A002302E0D458C4500433D5
:104E6000C4188C42F9D30A4A0A4C002301E01360AB
:104E70000432A242FBD3FCF7FFFD00F015F8FCF76B
:104E8000E5FC704700000020040B0020E4C100088E
:104E9000080B0020E8110020FEE70000014B186815
:104EA000704700BF5001002070B50D4E0D4D761BB0
:104EB000B61006D0002455F8043B01349847A642AA
:104EC000F9D1094E094D06F05BFB761BB61006D0F2
:104ED000002455F8043B01349847A642F9D170BD2F
:104EE000D8C10008D8C10008E0C10008D8C1000836
:104EF000830730B548D0541E002A3FD00346CAB2BB
:104F000001E0013C3AD303F8012B9D07F9D1032CB2
:104F10002DD9CDB245EA05250F2C45EA054536D9F0
:104F2000A4F1100222F00F0C03F1200EE6444FEA28
:104F3000121C03F1100242E9045542E902551032F5
:104F40007245F8D10CF1010214F00C0F03EB0212C0
:104F500004F00F0C13D0ACF1040323F0030304336B
:104F6000134442F8045B9342FBD10CF003042CB1D0
:104F7000CAB21C4403F8012B9C42FBD130BD6446ED
:104F80001346002CF4D1F9E703461446BFE71A464E
:104F9000A446E0E70CB410B51E4B00291C689CB079
:104FA00033DB4FF402734FF6FF7CADF81430029000
:104FB00006901FAB16D001391E9A04910791204626
:104FC00002A90193ADF816C000F054F8421C01DAB2
:104FD0008B2323600022029B1A701CB0BDE8104096
:104FE00002B070470491079120461E9A02A90193CE
:104FF000ADF816C000F03EF8431C01DA8B232360A5
:105000001CB0BDE8104002B070478B234FF0FF305A
:105010002360F5E75001002020F0030110F00300A9
:10502000C0F1000051F8043B00F1040C4FEACC0C35
:105030006FF000021CBF22FA0CF213434FF0010C78
:105040004CEA0C2C4CEA0C4CA3EB0C0222EA0302B7
:1050500012EACC1204BF51F8043B0430F4D0C2F180
:10506000000102EA0102B2FA82F2C2F11F0200EB71
:10507000D20070472DE9F04FD5B00C460C91914607
:105080000E930A9003F038F8036818461793FFF759
:10509000C3FFA3891690190603D52369002B00F0DE
:1050A0008F8700242BAB224698464D46CDE92944F4
:1050B0002893129400230024CDE914342B78CDE9F1
:1050C0001922CDE91B2218920892002B00F0CE8104
:1050D000AA4604E01AF8013F002B00F00981252BB5
:1050E000F8D1BAEB050640F007819AF80030002BA2
:1050F00000F0BC8100234FF0FF324FF02B09202439
:105100001F469AF8016007920AF1010A8DF8833070
:1051100009930AF1010AA6F120035A2B00F220811B
:10512000DFE813F0CA021E011E01C5021E011E01A6
:105130001E01A3021E011E016A00F3021E014702A6
:10514000D9021E01D4025B005B005B005B005B00C8
:105150005B005B005B005B001E011E011E011E0167
:105160001E011E011E01B0011E010B027A00B001DA
:10517000B001B0011E011E011E011E019E021E0192
:105180001E01B6001E011E011E0119021E014C0265
:105190001E011E013F071E011E011E011E011E01F0
:1051A0001E011E011E01B0011E010B027C00B00198
:1051B000B001B00191027C0075001E0184021E0145
:1051C0007002B8005E0275001E01190272001C0711
:1051D0001E011E011F071E0172000022A6F13003EE
:1051E0001AF8016B02EB820203EB4202A6F13003D4
:1051F000092BF5D909928EE70E9B53F8042B002A50
:1052000009920E93C0F2D2819AF8006081E79AF871
:10521000006047F020077CE747F01007BA060E9BB6
:1052200040F17D81073323F007031A465B6852F88B
:10523000084B99460E92002BC0F27F85079B0133E5
:1052400001F0398054EA090327F0800B00F005854E
:105250000A2C79F1000380F0938701235F463034F4
:105260008DF84F410B930DF24F15079A0B990023C0
:105270008A42B8BF0A4606929DF883200D930F9389
:1052800013931093002A7CD0069B0133069378E099
:1052900047F0100717F0200900F032810E9B07330A
:1052A00023F00703D3F8049053F8084B0E93002320
:1052B00027F4806B00228DF88320079A511C00F0A0
:1052C0002A8254EA09012BF0800740F02382002A49
:1052D00041F02B80002B40F0C5841BF001030B93A1
:1052E00000F0548530230DF24F158DF84F31BCE797
:1052F000BAEB050600F0BA802A9BC8E90056334491
:105300002A93299B0133072B299305DC08F1080810
:10531000089B33440893E8E60C990A9828AA03F0FE
:10532000CFFE80B90DF1AC08F2E70C990A9828AAD3
:1053300003F0C6FE002800F08A800D9B1BB10D997A
:105340000A9802F0B5FD0C9B9B8913F0400F089B57
:1053500018BF4FF0FF330893089855B0BDE8F08FA1
:10536000002E00F08380012300228DF8EC6006936C
:105370003BAD8DF883200B930D9207920F92139201
:10538000109217F0020302D006990231069117F02D
:10539000840B07D109990698A1EB0009B9F1000F18
:1053A00000F336832A9C82B10122C8F80420299A8E
:1053B000013401320DF18301072A2A942992C8F899
:1053C000001000F3698308F108087BB10223C8F8D4
:1053D0000430299B0234013321AA072B2A942993F4
:1053E000C8F8002000F36C8308F10808BBF1800FB7
:1053F00000F02E82079B0B9AA3EB020BBBF1000F70
:1054000000F37182FB0500F1C5810B9BC8F80050C9
:105410001C44C8F80430299B2A940133072B299394
:1054200000F3EA8208F108087B0705D5099B069A74
:105430009D1A002D00F35083DDE9083206998A4257
:10544000ACBF9B185B180893002C7FF46EAF002351
:1054500029930D9B1BB10D990A9802F029FD554621
:105460000DF1AC082B78002B7FF432AE2A9B002B79
:105470003FF469AF0C9C0A98214628AA03F020FE4D
:10548000A38962E70E9B073323F00702F2E8023498
:10549000CDE91434DDE9143424F00044994618466B
:1054A0000E9221464FF0FF32B64BFBF78FFE0028DD
:1054B00040F09684484621464FF0FF32B14BFBF74F
:1054C0007FFA002840F08C84DDE9140100220023DB
:1054D000FBF76CFA002840F0A6879DF88320002196
:1054E0000320A94DA94B27F080070D910690472E68
:1054F000C8BF1D4607910B900F9113911091C1E603
:1055000017F0100340F0628417F0400200F07B8730
:105510000E9A994652F8044B0E92A4B2C7E653F87D
:10552000044B0E93FB0600F141847D0640F13B8461
:1055300044F3C0394B4624B27DE6012000220E9B85
:10554000069053F8041B3BAD8DF883208DF8EC10CA
:105550000E930B9010E74FF000090E9C079B54F838
:10556000045B8DF88390002D00F0EE865A1C00F04D
:1055700060851A464946284603F0E6F80D90002853
:1055800001F09E800D9B9DF883205B1B0B9323EA0B
:10559000E373CDF81C900E940693CDF83490CDF8BB
:1055A0003C90CDF84C90CDF840906BE6099B5B4267
:1055B00009939AF8006047F00407AAE547F0100B3A
:1055C0001BF0200900F0AA830E9B073323F007038A
:1055D0001A4652F8084BD3F804900E92012369E65C
:1055E000302278260E9B8DF8842053F8044B684AAD
:1055F0000E934FF00009022347F0020B8DF88560EF
:10560000189257E6BD0600F1D683FC0600F193869A
:10561000780600F15D87B90540F18D860E9B0899EB
:1056200053F8042B554611700E931BE79AF800604F
:105630006C2E03BF9AF8016047F020070AF1010AB7
:1056400047F0100765E59AF80060682E03BF9AF8E6
:10565000016047F400770AF1010A47F0400758E576
:105660009AF8006047F0080753E50A9E304602F0BA
:1056700043FD436818461B93FFF7CEFC03463046B4
:105680001C931E4602F038FD83681993002E3FF4E8
:10569000BBAD199B002B3FF4B7AD199B1B78002BBA
:1056A0003FF4B2AD9AF8006047F4806731E59AF8AC
:1056B000006047F001072CE59DF88330002B7FF454
:1056C000A3AD9AF800608DF8834022E59AF8006057
:1056D00047F080071DE5524612F8016B2A2E01F0B3
:1056E000EB81A6F13003092B924698BF002201F20C
:1056F00003801AF8016B02EB820203EB4202A6F16F
:105700003003092BF5D9079205E59AF800608DF86A
:105710008390FEE4BB46012B3FF49AAD022B54ADBF
:1057200012D1189A04F00F03D35C240944EA0974D7
:105730004FEA191905F8013D54EA0903F2D154ABB7
:105740005B1B5F460B9390E504F00703E40844EA13
:1057500049744FEAD909303354EA09012A4605F859
:10576000013DF1D11BF0010FE9D0302BE7D0302300
:10577000023A05F8013C54AB9B1A5F4615460B9361
:1057800073E500BFFFFFEF7F68BD00086CBD000838
:1057900078BD0008652E40F3E980DDE914010022A0
:1057A0000023FBF7F9F8002800F0D2810123C8F8A4
:1057B0000430299BBF4A01330134072B2A942993D3
:1057C000C8F8002000F37A8508F10808229B129A95
:1057D000934280F2D782169B179A1C44C8E9002393
:1057E000299B2A940133072B299300F3DD8308F1C9
:1057F0000808129B5D1E002D7FF716AE102D41F399
:105800004181DFF8B492224649461026B946299BC9
:105810000F46DDF828B00C9C05E008F10808103DA3
:10582000102D40F3588501331032072BC8E900765C
:10583000CDE92932F1DD2146584628AA03F040FC83
:1058400000287FF47AADDDE929320DF1AC08E6E7F6
:10585000099B069AA3EB020BBBF1000F7FF7CAADC1
:10586000BBF1100F41F30580DFF84C924146204612
:10587000A8464C461023299A0C9DDDF8289006E096
:10588000ABF1100BBBF1100F01F1080119DD013272
:105890001030072AC1E90043CDE92920F0DD29466F
:1058A000484628AA03F00CFC00287FF446ADDDE949
:1058B0002920ABF1100BBBF1100F4FF010032BA9F7
:1058C000E5DC4546A1468846044601325C44072A89
:1058D000CDE92924C8F80090C8F804B000F3188571
:1058E00008F1080886E5BBF1100F40F39785DFF853
:1058F000C89141462046A8464C461023299A0C9D43
:10590000DDF8289006E0ABF1100BBBF1100F01F1B0
:10591000080119DD01321030072AC1E90043CDE941
:105920002920F0DD2946484628AA03F0C9FB0028B3
:105930007FF403ADDDE92920ABF1100BBBF1100FB3
:105940004FF010032BA9E5DC4546A14688460446E6
:1059500001325C44072ACDE92924C8F80090C8F830
:1059600004B000F3CE8108F108084BE5129B012B2F
:1059700040F37E810123299E01341E44072EC8F87E
:1059800000502A94C8F80430299600F3E18108F108
:105990000808169B0136179A1C44072EC8E90023F5
:1059A000CDE9296400F3E18108F108080022DDE96E
:1059B00014010023FAF7F0FF002840F07681129BD3
:1059C0000136013B01351C44072EC8F800502996CA
:1059D000C8F804302A9400F35B8108F108081A9B88
:1059E00001361C44C8F80430072E24ABCDE92964E5
:1059F000C8F800307FF716AD0C990A9828AA03F072
:105A00005FFB00287FF499AC2A9C0DF1AC080BE5F4
:105A1000B9F1100F40F35086DDE929214046CDE968
:105A20001D36B84610244F460C9EA9460A9D04E038
:105A3000103F102F00F1080016DD01321F4B10310E
:105A4000072AC0E90034CDE92921F1DD3146284695
:105A500028AA03F035FB00287FF46FACDDE929218B
:105A6000103F102F2BA8E8DC4D46DDE91D36B94666
:105A70004746804609EB010401321049072ACDE967
:105A80002924C8F80490C8F8001000F3C3839DF8D7
:105A9000832008F1080886E40C990A9828AA1D9327
:105AA00003F00EFB00287FF448AC2A9C1D9B0DF1EF
:105AB000AC088AE4A8BD0008BCBD0008ACBD000865
:105AC0000C990A9828AA03F0FBFA00287FF435AC59
:105AD0002A9C0DF1AC0889E4102D40F3C4861026F1
:105AE000299B0A9FDDF8309004E0103D102D08F14D
:105AF000080817DD0133B84A1034072BC8E900261F
:105B0000CDE92934F1DD4946384628AA03F0D8FA10
:105B100000287FF412ACDDE92934103D102D0DF181
:105B2000AC08E7DC0133AC4A2C44072BCDE929341F
:105B3000C8F80450C8F800207FF77EAC0C990A988A
:105B400028AA03F0BDFA00287FF4F7AB2A9C73E47F
:105B50002299002940F36F83DDF84090129B99450C
:105B6000A8BF9946B9F1000F0BDD299B4C440133C6
:105B7000072BC8E900592A94299300F31D8508F1E1
:105B80000808109EB9F1000FA8BFA6EB0906002E69
:105B900000F32582DDF840B07805AB4400F15F8268
:105BA000229B129A934202DBF90740F17684169AFF
:105BB00017991444C8E90012299A2A940132072A35
:105BC000299200F3138508F10808129AAE18A6EB83
:105BD0000B06D51AAE42A8BF2E46002E0DDD299B1E
:105BE00034440133072BC8F800B0C8F804602A9485
:105BF000299300F3718508F10808002EA8BFAD1B9A
:105C0000002D7FF711AC102D40F33C87DFF8CC91CD
:105C1000224649461026B946299B0F46DDF828B092
:105C20000C9C05E008F10808103D102D40F353834B
:105C300001331032072BC8E90076CDE92932F1DDB6
:105C40002146584628AA03F03BFA00287FF475AB9A
:105C5000DDE929320DF1AC08E6E7079B002B7FF464
:105C6000FCAA5F46002354AD07930B93FFF7FDBAE0
:105C7000FA073FF57FAE0123299E01341E44072E0B
:105C8000C8F800502A94C8F8043029967FF7A5AECA
:105C90000C990A9828AA03F013FA00287FF44DAB58
:105CA000DDE929640DF1AC0899E6129B5D1E002D1B
:105CB0007FF795AE102D40F3DF86224607974FF011
:105CC000100BDFF818910A9C0C9F05E008F10808FA
:105CD000103D102D40F37F8301361032072EC8E9A6
:105CE000009BCDE92962F1DD3946204628AA03F060
:105CF000E7F900287FF421ABDDE929620DF1AC085A
:105D0000E6E70C990A9828AA03F0DAF900287FF44C
:105D100014AB2A9C0DF1AC08FFF774BB1BF0100309
:105D20000E9A3AD11BF0400133D052F8044B9946F9
:105D30000E920123A4B2FFF7BDBA2D2364428DF861
:105D40008330BB464FF0010369EB4909FFF7B5BA51
:105D50000C990A9828AA03F0B3F900287FF4EDAA59
:105D6000DDE929640DF1AC0813E60C990A9828AA1C
:105D700003F0A6F900287FF4E0AADDE929640DF11B
:105D8000AC0813E6FD077FF54FAB24E554ADFFF7F4
:105D90006CBA1BF4007940F08A8352F8044B01235B
:105DA0000E92FFF787BAB80500F19B834FEAE479BA
:105DB0004B46FFF740BA0E9B089853F8041BC217D6
:105DC0005546C1E900020E93FFF74CBB0E9B53F8FA
:105DD000044B0E93FFF76BBAACBD0008BCBD0008C6
:105DE000DDE9140102460B46FBF7F0F9002840F00C
:105DF000E985612E00F07D85412E00F08B84079BA4
:105E0000013300F08F8326F02003472B069300F028
:105E10008F85DDE9141247F480730F931346002B2E
:105E2000C0F2B0850B9300238B461D930D93069B08
:105E3000462B00F0E983452B00F0468507990B9B24
:105E400001910221009126A9049123A9039122A97D
:105E50005A460A98029100F007FF069B0546472B19
:105E600040F03A8617F0010FB9460F9F40F0FE84CC
:105E7000269B5B1B1293069B472B00F06E83069BB1
:105E8000462B00F0F083229B1093109B069A013B57
:105E9000412A229300F0BB850021F2B2002B8DF83D
:105EA0009020B6BF2D222B22109B8DF89120B8BFD9
:105EB000C3F10103092B40F39B850DF19F0C624652
:105EC000B64F1C46104687FB0312D917C1EBA2013F
:105ED00001EB8102A3EB42023032632C00F8012C6B
:105EE0000B4600F1FF32ECDC3033811EDBB28C4517
:105EF00002F8013C40F2F9850DF1920101E012F83F
:105F0000013B944501F8013BF9D10DF1A1030DF1DD
:105F100092021B1A134424AA9B1A1A93129B1A9AD0
:105F2000012B1A440B9240F381850B9B169A134464
:105F30000B9300230B9A29F4806722EAE27247F45C
:105F400080770F930692139310931D9B002B40F0C4
:105F50002C839DF883200793FFF794B9BB46FFF786
:105F60002FBB8F4B189317F0200900F0F5800E9B84
:105F7000073323F00703D3F8049053F8084B0E932C
:105F8000F80709D554EA090306D030238DF8856057
:105F900047F002078DF88430022327F4806BFFF767
:105FA00089B9804B1893DEE70C990A9828AA03F068
:105FB00087F800287FF4C1A92A9C0DF1AC0818E4E9
:105FC00040210A9802F014F90C9B1860186100280F
:105FD00000F0978540230C9A5361FFF762B8102EAA
:105FE00040F37685DFF8C091424648462146A846F0
:105FF000B9464FF0100B0746299B0A9C0C9D04E004
:106000000832103E102E40F3138201331031072B5B
:10601000C2E9007BCDE92931F2DD2946204628AAD4
:1060200003F04EF800287FF488A9DDE929312BAA76
:10603000E7E72846CDF81C900E94FEF7EDFF20EA26
:10604000E0739DF883200B90CDF83490CDF83C9010
:10605000CDF84C90CDF840900693FFF713B9129B02
:106060004246DDF84C80EB185E460793CDF82CA035
:1060700010972146199FDDF87090DDF828A0DDF813
:1060800030B00F9B1395B8F1000F2ED083BB013FAA
:1060900008F1FF381B9B4944C2E90039299B2A912A
:1060A0000133072B299360DC0832079B38789B1B50
:1060B0008342A8BF0346002B1C460BDD29981944D8
:1060C00001300728C2E900632A91299000F3148166
:1060D00038780832002CB4BF0546051B002D0BDCB8
:1060E00006440F9BB8F1000FD0D1002B00F02682A0
:1060F0000F9B013B0F93CDE7102D40F39D8410249F
:10610000299804E0103D102D02F1080216DD01303F
:10611000254B10310728C2E90034CDE92901F1DD12
:106120005946504628AA02F0CBFF00287FF405A963
:10613000DDE92901103D102D2BAAE8DC01301A4BB6
:1061400029440728CDE929015560136000F34182F5
:10615000387808320644C4E717F0100300F0A08036
:106160000E9B53F8044B0E930AE75946504628AA53
:1061700002F0A6FF00287FF4E0A82A992BAA94E752
:1061800000230BF480620696CDF82CA0CDF8348065
:106190001E469246DDF8648054AF14E0676666667A
:1061A00078BD00088CBD0008BCBD00080023204657
:1061B00049460A22FBF720F80A2C79F100031BD389
:1061C000044689462F4620460A2200234946FBF70B
:1061D00013F830327D1E013607F8012CBAF1000F9A
:1061E000E4D098F800309E42E0D1FF2EDED00A2C99
:1061F00079F1000380F0308154AB5B1BDDF82CA0FB
:10620000CDF8648012965F46069EDDF834800B93CD
:10621000FFF72BB80C990A9828AA1D9302F050FF9B
:1062200000287FF48AA89DF883202A9C1D9B0DF1ED
:10623000AC08FFF7B8B80123C8F80430299BBC4A62
:1062400001330134072B2A942993C8F8002000F366
:10625000178108F10808002940F08680129A07F09B
:10626000010313433FF4E0A8169B17991A19C8E9D4
:106270000013299B2A920133072B299300F33781BE
:1062800008F10808129901338C18072BCDE929343D
:10629000C8F80050C8F804107FF7C4A8FFF7ACBBDB
:1062A00017F0400200F0A5800E9A994652F8044B70
:1062B0000E92A4B264E6BB46FEF7CABF0C990A98D8
:1062C00028AA02F0FDFE00287FF437A82A9C0DF1D1
:1062D000AC08FFF77BBA14463A464F469146013365
:1062E0002C44072BC8F80090C8F80450CDE9293495
:1062F0007FF798A8FFF780BB5946504628AA02F0BE
:10630000DFFE00287FF419A838782A992BAAE1E645
:106310000C990A9828AA02F0D3FE00287FF40DA851
:106320002A9C0DF1AC08FFF765B8012BBB467FF442
:10633000F5A9FEF792BF0E9B089953F8042B55461A
:1063400011600E93FFF78EB8062B294628BF06234F
:106350002A4607950D950693764D0E940B930F9153
:1063600013911091FEF78EBF169B17981A19C8E962
:106370000003299B2A920133072B299300F3B7804E
:1063800008F108080029BFF67DAF4E42103180F2B7
:10639000A98341461024A846DFF89C91DDF828B077
:1063A0000C9D04E00831103E102E40F3A78201330B
:1063B0001032072BC1E90094CDE92932F2DD2946DC
:1063C000584628AA02F07CFE00287EF4B6AFDDE92C
:1063D00029322BA9E7E71446079F01362C44072EE4
:1063E000CDE92964C8F80090C8F804507FF7F5AAF1
:1063F0004EE417F400790E9B66D053F8044B914697
:106400000E93E4B2BCE517F400790E9B57D053F815
:10641000044B91460E93E4B2FEF749BF299ADFF888
:106420001891FFF795BA2D228DF88320FFF757B802
:10643000454690463A460C464F4691460133344411
:10644000072BCDE92934C8F80090C8F804605CDC5B
:1064500008F10808FFF79EBB1C9B1B99ED1A1A4612
:10646000284602F0F9FD98F801300BB108F1010857
:10647000204649460A2200230026FAF7BDFE9FE681
:106480000C990A9828AA02F01BFE00287EF455AF4A
:1064900022992A9C0DF1AC08DDE6129AAE18A6EB03
:1064A0000B06D51AAE42A8BF2E46FFF7A6BB52F880
:1064B000044B894601230E92E4B2FEF7FBBE53F86B
:1064C000044B0E93FEF7F3BE53F8044B0E9357E5BF
:1064D0000E9B089953F8042B554611800E93FEF736
:1064E000C1BF44F3C0194B4664B2FEF7A4BE0C9979
:1064F0000A9828AA02F0E4FD00287EF41EAFDDE928
:10650000293222990DF1AC083CE70C990A9828AA87
:1065100002F0D6FD00287EF410AF2A9C0DF1AC08E5
:10652000FFF738BB0623079326F02003069370E499
:10653000A8BD0008A0BD0008BCBD0008DDE91235FB
:10654000EB189E42B346199790460C4628BF9B46CF
:10655000DDF82CA0109FFFF723BB229BDA1C1093C1
:1065600002DB079A934204DD023E26F020030693E5
:106570008BE4109B129A9342C0F2C28019F0010F73
:1065800000F01D82169A13440B9319F4806F00F0EB
:106590001482109B6726002B76DC0B9B23EAE373A7
:1065A000069300230F931393CFE42D2200238DF83D
:1065B00083200793FEF768BE0C990A9828AA02F078
:1065C0007FFD00287EF4B9AE2A9C0DF1AC08FFF7E0
:1065D000D8BA5946504628AA02F072FD00287EF427
:1065E000ACAE38782A992BAA06447AE50C990A9819
:1065F00028AA02F065FD00287EF49FAE229B2A9C0B
:106600000DF1AC08FFF7E1BA07990B9B019103214B
:10661000009126A9049123A9039122A95A460A9818
:10662000029100F021FB03780546302B00F0168222
:10663000229B079AB94613440F9FEC185846002234
:1066400000230B99FAF7A8F908B1234611E4269B19
:10665000A342BFF40EAC30215A1C26921970269B1F
:106660009C42F9D805E4229A002A109240F30E8247
:10667000079909F001030B4340F07E816626109BC9
:106680000B9319F4806F88D019990B78FF2B00F0C9
:1066900025820024109A204604E001300131FF2BAE
:1066A00000F05981934280F25681D21A4B78002B28
:1066B000F3D10B780134F2E7DDE92921FFF7DAB9EC
:1066C000079B9DF883200E9406930B9307900F90E1
:1066D00013901090FEF7D6BD0C990A9828AA02F0E4
:1066E000EFFC00287EF429AE229D129B2A9C0DF11E
:1066F000AC085D1BFFF781BA00230793FEF70BBDC3
:10670000129B169A9A18109B0B92002B40F38581CE
:106710006726B6E730238DF8843058238DF885300E
:10672000079B47F00204632B00F3C48000233BADBA
:106730000D9347F481730F93DDE914121346002B78
:106740002746C0F284800B9300238B461D9326F0CE
:1067500020030693612E00F01881412E7FF467AB71
:1067600022AA58460B9902F0E7FB00224FF07F5314
:10677000F9F7AAFE02460B46CDE9102300220023BA
:10678000FAF70AF908B101232293AD4B0B93079B4B
:10679000CDE912A6CDE91E78DDE91067AB46DDF83C
:1067A0002CA003F1FF39109506E00022002309F127
:1067B000FF39FAF7F1F8E8B90022A24B3046394622
:1067C000F9F782FE0F460646FAF718F90446F9F77C
:1067D00011FE0B46024639463046F9F7BDFC1AF861
:1067E0000430B9F1FF3FD8464D4606460F460BF838
:1067F000013BDAD1304639460022934BA946DDF8F9
:1068000048A0109DCDF84880CDE91001DDF87C80CE
:10681000139E1E9FFAF7E8F880BBDDE91001002205
:10682000894BFAF7B9F808B1E10727D44B46002B9A
:1068300006DB302201335B440BF8012B5B45FBD1B7
:10684000ABEB0503B94612930F9FFFF714BB26F07D
:10685000200306932D22DDE914349B4604F1004306
:106860001D920B9376E7299BFFF75CB9079BEC1809
:10687000E4E6299ADFF8D491FFF727B8129B269314
:106880000B9B1BF8012CD97B5B468A4209D1302037
:1068900003F8010C269B5A1E269213F8012C9142F4
:1068A000F6D0392A0BBF0B9A0132927AD2B203F892
:1068B000012CC5E70A98591C01F09AFC05460028EE
:1068C00000F017810D9034E70221009107995A4694
:1068D0004C1C26A9049123A9039122A90B9B0A9879
:1068E0000194029100F0C0F90546B9462C440F9F6F
:1068F000A4E630238DF8843078230FE74546884698
:1069000001333244072BCDE92932C8F80090C8F88A
:1069100004607FF7B5AC0C990A9828AA02F0D0FB66
:1069200000287EF40AADDDE929320DF1AC08A9E4B6
:10693000079B002B08BF0123079347F480730F9335
:10694000159B002BC0F2B680DDF850B00D900B9374
:106950001D90FFF773BA1991109213900F940F9A2C
:10696000139B1C9913440B9A01FB03230B9323EAFB
:10697000E3730693FFF7E9BA169B6626D31819440A
:106980000B917EE600230D9364E722AA58460B99EB
:1069900002F0D2FA00224FF07F53F9F795FD02463C
:1069A0000B46CDE9102300220023F9F7F5FF08B1CB
:1069B00001232293264B0B93E9E66726EDE5109B16
:1069C0000B93E2E5159B0320002BB8BF2D224FF05F
:1069D0000003A8BF9DF8832019460D931D4D1E4B43
:1069E000B8BF8DF8832027F080070690FEF77FBDA3
:1069F000002944D130228DF892200DF193023033DA
:106A000002F8013B24ABD31A1A93FFF787BA06F1B9
:106A10000F020121D2B2FFF741BAC3F101031A44B8
:106A200022EAE27367260B920693BAE519F0010F8A
:106A30003FF47FAAFFF779BA2998FFF77FBB00BF21
:106A40008CBD0008000030400000E03FBCBD0008E5
:106A500078BD000870BD000874BD000858460022CB
:106A600000230B99F9F798FF00287FF4E1AD079B0D
:106A7000C3F101032293DCE5DFF89890ADE40DF15A
:106A80009202BCE7299BDFF88C9028E4079A09F072
:106A9000010959EA020304D10123662606930B93E8
:106AA0007FE5169B662601331A4422EAE2730B92B5
:106AB000069376E50D90CDE60E9B9AF8016092461E
:106AC00053F8042B0E9342EAE2730793FEF721BBBF
:106AD000299BDFF84090B1E4079C06E700230F9361
:106AE00013933CE7DFF82C900AE702231A93FFF791
:106AF00015BA0C998B8943F0400213468A81FEF740
:106B000024BC4FF0FF320C2308920A9A1360FEF760
:106B100023BC00BFBCBD0008024B13B1024800F00B
:106B200005B8704700000000E57D0008002301461D
:106B30001A46184602F058BB2DE9F04F03690C695C
:106B400085B0A342C0F28980013C01F11405A30085
:106B500000F11408019355F8243058F8242001332B
:106B60008A469A4208EB84018146B2FBF3F605EBB4
:106B7000840702913AD30021AE4640460A46A34616
:106B800003955EF8045B0468ABB206FB03132D0C9F
:106B9000190C06FB05119BB2D21A1FFA84FC94440F
:106BA0008AB2C2EB144202EB2C421FFA8CFC4CEA74
:106BB0000243774540F8043B4FEA11414FEA224235
:106BC000DFD2019B5C4658F80330039D73B9029BEA
:106BD000043B984504D307E0984504F1FF3403D201
:106BE00053F80429002AF7D0C9F810405146484606
:106BF00002F07AF800282CDB40460023013655F8D5
:106C0000041BD0F800C08AB29A1A1FFA8CFE0B0C33
:106C10007244C3EB1C4303EB224392B242EA0342A9
:106C2000AF4240F8042B4FEA2343E8D258F824201F
:106C300008EB84036AB9043B984504D307E0984500
:106C400004F1FF3403D253F80429002AF7D0C9F81D
:106C50001040304605B0BDE8F08F002005B0BDE81B
:106C6000F08F00BF000000002DE9F04F90469946DC
:106C7000016C99B00446CDE90489259D41B10123F9
:106C8000426C93408B604A6001F0D8FD002323647E
:106C9000B9F1000AB4BF012300232B60764BBCBFBF
:106CA0002AF0004ACDF814A033EA0A0300F0AA80C3
:106CB000DDE904231046194600220023CDE90A012C
:106CC000F9F76AFE074670B10123249A1360269BE8
:106CD000002B00F0E68269481860431E0393039876
:106CE00019B0BDE8F08F16AB019317AB00932046A7
:106CF000DDE90A2302F0BEF85FEA1A56054640F0C5
:106D00009780DDE916763E4406F23240202840F3B3
:106D1000B783C0F140000AFA00FA06F2124028FADE
:106D200000F04AEA0000F9F755FB0123013E0F93FA
:106D3000A1F1F8710022524BF9F70EFA48A3D3E9FA
:106D40000023F9F7C1FB48A3D3E90023F9F706FABA
:106D5000804630468946F9F74DFB45A3D3E9002329
:106D6000F9F7B2FB02460B4640464946F9F7F6F9F9
:106D700080468946F9F742FE0022834600234046BA
:106D80004946F9F713FE002840F07E82BBF1160F4A
:106D900000F26D82DDE90A013A4B03EBCB03D3E944
:106DA0000023F9F703FE002872D00023BE1B0E93C8
:106DB000731E0BF1FF3B069300F1608200230993E1
:106DC000BBF1000F6BDA099BCDF81CB0A3EB0B03F2
:106DD0000993CBF100030D93229B4FF0000B092B7D
:106DE00066D8052B40F34A830026043B2293229B5E
:106DF000023B032B00F26C86DFE813F061045E04B3
:106E00005504380442F20F73249ACAF3130A13602C
:106E10005AEA08031AD1269B002B00F068861A4B09
:106E200003930833269A0398136019B0BDE8F08FD6
:106E3000DDE90A12C2F31303084643F07F510F97AE
:106E4000A6F2FF36169F41F4401173E7269B002BF4
:106E500040F0EF830D4B039341E700BFAFF3008099
:106E600061436F63A787D23FB3C8608B288AC63F50
:106E7000FB799F501344D33F0000F07FA9BD000869
:106E80000000F83F18BF0008D0BD0008CCBD0008C6
:106E9000BE1B731E069300F18A840E900990069B18
:106EA0005B44CDE9063B00230D93229B092B98D927
:106EB000002322934FF0FF330126089300230C9602
:106EC00023930021089B61641293204601F090FCFB
:106ED0000390002800F00486039B2364089B0E2B7C
:106EE00000F21481002E00F011810799002940F36F
:106EF0006084AF4B01F00F0203EBC2030A46D3E9F3
:106F000000674FEA2118D10540F11784DDE90A0135
:106F1000A84B4FF0030AD3E90823F9F7FFFBCDE9AB
:106F2000100108F00F08B8F1000F13D0DFF88492B9
:106F300018F0010F09D0D9E9002330463946F9F796
:106F4000C3FA06460F460AF1010A5FEA680809F12A
:106F50000809EDD1DDE9100132463B46F9F7DEFBC9
:106F6000804689460E9B43B1002240464946924BDB
:106F7000F9F71CFD002840F035855046F9F73AFA3C
:106F800042464B46F9F7A0FA8C4B0022F9F7E6F897
:106F9000A1F15073CDE910011193089B002B00F073
:106FA0009780079B1493089B13930C9B002B00F076
:106FB000A984139A7E4B002003EBC20353E90223FA
:106FC0007F49F9F7ABFBDDE91023F9F7C5F8CDE907
:106FD000100149464046F9F711FD0746F9F70AFA4C
:106FE00002460B4640464946F9F7B6F8DDE910235C
:106FF000039E303706F8017B80468946F9F7D6FCB8
:10700000002840F02E85CDF854B00027DDE910AB04
:107010001095139D13942AE00137AF4280F22E851C
:10702000504659460022674BF9F74EFA0022654B4D
:1070300082468B4640464946F9F746FA89468046DD
:10704000F9F7DCFC0446F9F7D5F902460B46404651
:107050004946F9F781F8303452465B4606F8014B51
:1070600080468946F9F7A2FC002840F0F8844246A1
:107070004B4600205049F9F76FF852465B46F9F746
:1070800095FC0028C8D0DDE91343109D039A0793AF
:1070900002E0964200F0CD84B24616F8013D392B4D
:1070A000F7D00133DBB23370079B01330793C8E19C
:1070B0005046F9F79FF942464B46F9F705FA3F4B20
:1070C0000022F9F74BF8A1F15073CDE910011193AB
:1070D0004046494600223C4BF9F73EF8DDE910896D
:1070E0004B46424606460F46F9F77EFC814600288D
:1070F00040F0AF84DDE91001024601F10043304663
:107100003946F9F753FC002840F04883179B002BC1
:10711000C0F28C80079A0E2A00F38880244B03EB80
:10712000C203D3E900AB239B002B1BDA089B002B87
:1071300018DC40F031830022234B50465946F9F7C2
:10714000C3F902460B46DDE90A01F9F739FCDDF81F
:1071500020904E46002800F0CA82239BDDF80C8068
:10716000DF43CCE25246DDE90A785B4638464146C9
:10717000F9F7D4FAF9F742FC81460990F9F73AF9A0
:1071800052465B46F9F7A0F9039E0B46024641467C
:107190003846F8F7E1FF09F1300306F8013B089B98
:1071A000012B00F05F83069401271C4604952AE01A
:1071B00018BF0008F0BE00080000F03F00001C40AF
:1071C0000000E03F000024400000144052465B46AF
:1071D00040464946F9F7A2FAF9F710FC0546F9F7D7
:1071E00009F952465B46F9F76FF901370B4602463B
:1071F00049464046F8F7B0FF05F13003A74206F8CC
:10720000013B00F02C830022AB4BF9F75DF9002223
:10721000002380468946F9F7BFFB0028D6D0049D9D
:10722000069C079BB246013307930AE10C9A002A99
:107230003DD0229A012A40F39F82089B03F1FF3838
:107240000D9B4345C0F27082A3EB0808089B002BFE
:10725000C0F24083069A1A440692099A17461A44C5
:1072600009920121204601F091FB064623E001230B
:10727000BE1B0E93731E06937FF5A0ADC6F10103EE
:107280000993002306939BE55846F9F7B3F8424665
:107290004B46F9F781FB00287FF478AD0BF1FF3BFB
:1072A00074E5864B0393039819B0BDE8F08FDDF8C1
:1072B0003480099F0C9E002F0CDD069900290B4697
:1072C00008DDB942A8BF3B46099AFF1AD21ACB1A69
:1072D000099206930D9BE3B10C9B002B00F060829A
:1072E000B8F1000F10DD31464246204601F02AFC7D
:1072F00006462A463146204601F076FB03462946DB
:1073000020461D4601F09AFA0D9BB3EB080240F0AF
:10731000DB820121204601F039FBBBF1000F8146E1
:1073200000F3B380229B012B40F388814FF0000AC9
:107330000120BBF1000F40F0B480069A104410F019
:107340001F0000F09280C0F12003042B40F3D38390
:10735000099BC0F11C0003440244099307440692B0
:10736000099B002B05DD29461A46204601F046FC04
:107370000546069B002B05DD49461A46204601F0CE
:107380003DFC81460E9B002B40F03881089B002B72
:1073900040F31E810C9B002B40F09F80079B013324
:1073A00007930127DDF80C80DDF820A007E02946CF
:1073B00000230A22204601F04BFA054601374946D0
:1073C0002846FFF7B9FB574500F1300308F8013BA9
:1073D000EDDB089A0027002ACCBF93464FF0010B43
:1073E000039A9344294601222046049301F006FCA7
:1073F0004946054601F078FC002840F3AB811BF8B4
:10740000013C039A0BF1FF3B04E05A4500F0AD81CB
:107410001BF8013D392B0BF1010AF6D001338BF833
:1074200000304946204601F009FA56B12FB1B74263
:1074300003D03946204601F001FA3146204601F0DA
:10744000FDF92946204601F0F9F90023079A8AF848
:107450000030249B1A60269B002B3FF440AC03981D
:10746000C3F800A019B0BDE8F08F1C20099B0744A9
:1074700003440993069B0344069371E70126B6E48F
:10748000C0F1200008FA00F04DE401465A462046BB
:1074900001F058FB229B8146012B40F3B6814FF04F
:1074A000000AD9F8103009EB8303186901F022FAB9
:1074B000C0F1200041E700BF00002440A8BD000843
:1074C000314600230A22204601F0C2F9129B0646EB
:1074D000002B40F3E982CDE90783002F00F31D81E3
:1074E000BAF1000F40F0D981B046049B089903F02F
:1074F0000102039B0A921F46013B1944229B0891FB
:107500001343099349462846FFF716FB3146834645
:10751000284601F0E9FB424649468246204601F0F2
:1075200003FCC26801460BF13003002A43D10490EA
:107530002846069301F0D8FB02460499204604929F
:1075400001F07CF9049A069B1AB90999002900F008
:107550009B82BAF1000FC0F2648122994AEA010AC3
:107560000A9951EA0A0100F05C81002A00F3B68111
:10757000089A07F1010A9742D3463B7000F0B481A4
:10758000294600230A22204601F062F946450546B5
:1075900031464FF000034FF00A02204612D001F0AE
:1075A00057F94146064600230A22204601F050F9C9
:1075B00057468046A6E72046049301F03FF9012292
:1075C000049BC6E701F044F957460646804699E712
:1075D000229B022B7ADC0C9B002B7FF47EAF079B57
:1075E0004946013328460793FFF7A6FADDF80CB0A9
:1075F00000F1300300270BF8013BF3E6494628462B
:1076000001F072FB0028BFF6C1AE294600230A2212
:10761000204601F01DF9079B054603F1FF380C9B3E
:10762000002B7FF44DAF129B002B40F33482089364
:10763000B7E6B04B03930333FFF7F4BBDDE9041265
:1076400000297FF473AEC2F31303002B7FF46EAEF8
:10765000A94B1340002B00F00082099B4FF0010A58
:1076600001330993069B0133069361E601230C93D2
:10767000239B079A134412930133012B1F46B8BF73
:10768000012708930021172F61647FF71EAC0122A8
:1076900004235B0003F11400B842114602F1010219
:1076A000F7D9616411E401230C93239B002B4CDD7B
:1076B0001F4612930893E5E700230C93D8E70023B5
:1076C0000C93F2E7129BCDF81C800893089B002BCB
:1076D0007FF443AD49460522204601F0B9F88146C2
:1076E0002846494601F000FB00287FF736AD3123DC
:1076F0000398079F804600F8013B013703904946F5
:10770000204601F09BF87B1CDDF80CA00793CDF818
:107710000C80002E7FF491AE93E631463A46204627
:1077200001F06CFA0646DBE60D9BCDF83480A8EB41
:1077300003039B444FF0000888E5DDE90A234FF07E
:10774000020ACDE91023FFF7EEBB01232393089330
:10775000FFF7B7BB03D1049BD8073FF550AEDA461D
:107760001BF8013D302BFAD05BE6079B039A0133EF
:1077700007933123137054E60F9A002A00F02881F2
:1077800003F23343069ADDF834801A440692099ACC
:1077900017461A44099264E54FF000094E46DCE4AE
:1077A000294620460D9A01F0CDF90546B1E50E9027
:1077B00064E500F01181DDE90A01079A4F4B56425A
:1077C00006F00F0203EBC203D3E90023F8F77CFEB7
:1077D00036118046894600F0708100234FF0020A7E
:1077E000474FF20706D5D7E90023F8F76DFE0123CE
:1077F0000AF1010A761007F10807F2D1002B3FF4D5
:10780000B1AB80468946FFF7ADBB049B002B7FF4EC
:1078100046AEDDE90412C2F31303002B3FF418AFA8
:107820003DE6002A12DD294601222046049301F09C
:10783000E5F94946054601F057FA0028049B40F354
:107840001781392B00F0FB800BF13103BA46079A00
:1078500037460132464607920AF8013BE1E50995B1
:10786000069C049D02460B46F8F778FC52465B46A0
:1078700080468946F9F7B8F860B952465B464046FB
:107880004946F9F789F800283FF4CBAC099BD907A2
:107890007FF5C7AC039AFFF7FFBB2046716800F085
:1078A000A7FF0746002800F00C81336906F10C01A0
:1078B00002339A000C30F9F713FC394601222046B6
:1078C00001F09CF9804610E62946204601F03AF97D
:1078D00005461EE5DDE908239F1AC2E4392B00F0B6
:1078E000AE80BA460133B2E7079A374601324646C0
:1078F000079277E5CCBD00080000F07F18BF0008B4
:10790000F0BE0008DDF84CA08349DDE9102301EB4F
:10791000CA0151E90201F8F7D7FDCDE91001494646
:107920004046F9F76BF80646F8F764FD0B46024649
:1079300049464046F8F710FC5346039F3036012B6A
:107940008046894607F8016B00F0AC80139E039BCC
:107950001E440022714B40464946F8F7B5FD894662
:107960008046F9F74BF88246F8F744FD02460B468D
:1079700040464946F8F7F0FB0AF1300A07F801AB38
:10798000B74280468946E4D1DDE910010022644B0C
:10799000F8F7E4FB42464B46F9F708F8002862D1B5
:1079A000DDE9102300205E49F8F7D6FB42464B463E
:1079B000F9F71AF800283FF4A9AB16F8013CB246D3
:1079C000302B06F1FF36F8D0149B0133079338E5CE
:1079D000169BC3F13603D5E64FF0020ADDE90A89AA
:1079E000FFF7C0BA089B002B3FF462AB129B002B41
:1079F0007FF78CAB1393079B0022013B404649461F
:107A00001493464BF8F760FD804689460AF1010061
:107A1000F8F7F0FC42464B46F8F756FD414B002282
:107A2000F8F79CFBA1F15073CDE910011193FFF71A
:107A3000BCBA079B013307933123FFF734BB079B85
:107A4000BB4601330793392337460BF8013B4646C3
:107A5000D7E44FF000094E4649E69A4668E4109D87
:107A6000139CB246B0E7149B039A0793FFF714BB2D
:107A70007FF4ECAEDA077FF5E9AEE2E6DDF854B06C
:107A8000109D139CFFF742BB392BD8D0BAF1000FE1
:107A90003FF7DAAEDAE6229B022B3FF713AECDF8C2
:107AA0001C809CE53E466FE7229B022B3FF70AAE07
:107AB000129BCDF81C8008930FE54FF0020AFFF7E8
:107AC00051BA024640F2EA21174B184801F0D2FBA6
:107AD000002620463146666400F08AFE039078B99D
:107AE00000224FF4D571104B104801F0C3FB104B2E
:107AF0000393FFF7F4B83FF433ACC0F13C00B5E4B6
:107B0000039B012223644FF0FF33239612930C92C0
:107B10000893FFF7FBBA00BF18BF0008000024401D
:107B20000000E03F00001C40DCBD0008F0BD000884
:107B3000D0BD0008B1F90C20F8B50C461107074676
:107B400043D4636842F40062002BA2815BDDA56A26
:107B5000002D56D000233E683B6093B212F4805251
:107B600055D101233846E169A847421C65D0A38955
:107B7000A56A5B0705D56368C01A236B0BB1E36B7D
:107B8000C01A0246E16900233846A847411C40D18B
:107B90003B68002B3DD01D2B01D0162B54D1002269
:107BA000A38923F40063A3812369C4E90032216B14
:107BB0003E6031B304F14003994202D0384600F0F0
:107BC00077F9002318462363F8BD2669CEB193B236
:107BD0009A0718BF0023256808BF63692660AD1B9C
:107BE000A3600CE02B463246D4F824C03846E16945
:107BF000E047B0F1000CA5EB0C05664416DD002D46
:107C0000F0DC0020F8BDE36B002BA0DCF9E7206D71
:107C1000AFE70022B4F90C30626023F400632269FC
:107C2000A381DB042260C2D52065C0E7A3894FF0A1
:107C3000FF3043F04003A381F8BD3B68002B96D092
:107C40001D2B06D0162B04D0A38943F04003A3813B
:107C5000F8BD00203E60F8BD38B505460C4608B1B9
:107C6000836BA3B1B4F90C00B8B1636EDB0701D428
:107C7000810515D528462146FFF75CFF636E054652
:107C8000DA0702D4A3899B050ED5284638BD00F03B
:107C900017F8B4F90C000028E7D10546284638BD8E
:107CA000A06D00F031FAE5E7A06D00F02FFA28464C
:107CB00038BD00BF014900F0FBB900BF399300088F
:107CC0002DE9F0478246394800F01EFADAF83840CC
:107CD000002C66D1042303223549DAF80450CAF88F
:107CE0003C10DFF8D090DFF8D080344F344E0AF5E6
:107CF0003B71CAE9B921CAF8E0422146EB6008228B
:107D0000C5E90044C5E904446C66AC60AC6105F1AA
:107D10005C00FDF7EDF8C5E90759C5E90987EE6292
:107D200005F1580000F0ECF9DAF80850254B21462F
:107D3000EB600822C5E90044C5E904446C66AC6008
:107D4000AC6105F15C00FDF7D3F8C5E90759C5E959
:107D50000987EE6205F1580000F0D2F9DAF80C500C
:107D6000194B2146EB600822C5E90044C5E90444EB
:107D70006C66AC60AC6105F15C00FDF7B9F805F12B
:107D80005800C5E90759C5E90A76C5F8248000F00E
:107D9000B7F901230548CAF83830BDE8F04700F0CC
:107DA000B5B90248BDE8F04700F0B0B9AC11002009
:107DB000B57C0008CD8F0008F18F000831900008D5
:107DC000519000080900010012000200014800F073
:107DD0009BB900BFA8110020014800F097B900BF6F
:107DE000A811002038B5084B084D5B1B9C1007D02C
:107DF000043B1D44013C55F804399847002CF9D147
:107E0000BDE8384003F0C2BBE4C10008E0C100088F
:107E1000F8B50C46234F064600F0DEFCBB685D68F3
:107E2000C4F57E6325F003050F332B4423F47F63F1
:107E300023F00F03A3F58054B4F5805F07DB002126
:107E4000304601F0B1F8BB682B44984204D030466C
:107E500000F0C8FC0020F8BD3046614201F0A4F8F3
:107E600001300DD0104ABB682D1B45F001055D6047
:107E7000136830461B1B136000F0B4FC0120F8BDF2
:107E80000021304601F090F8BA68831A0F2BDEDD2E
:107E900043F001035360054B03491B68C01A086097
:107EA000D5E700BF84050020B01100208C09002018
:107EB00000295ED0F8B50C46064600F08DFC54F85B
:107EC000042C784FA4F1080522F001016818D7F8B6
:107ED00008C04368844523F0030300F08780D2077D
:107EE000436034D454F8082C07F10804AD1A114447
:107EF000AA68A24268D000EB030CDCF804E0D5F8D5
:107F00000CC01EF0010FC2F80CC0CCF8082000F025
:107F1000918041F001036B600160B1F5007F31D2C7
:107F20004A09CB08012191407A68013311437960F5
:107F300007EBC30257F83310083AC5E9021247F8B5
:107F40003350CD603046BDE8F84000F04BBCC2185D
:107F50005268D2070ED4194407F108048368A3427B
:107F600070D0C268DA60936041F001036B606950C1
:107F7000D3E7704741F00103B1F5007F44F8043CBA
:107F80000160CDD3B1F5206F4FEA512347D28B0961
:107F900003F1390003F13802C300F818FB58083820
:107FA000984258D05A6822F003028A4202D99B684C
:107FB0009842F7D1D868C5E9023085603046DD6067
:107FC000BDE8F84000F00EBCC2185268D20763D476
:107FD0000B44D0E90212CA60916043F001026A606A
:107FE0003046EB50BDE8F84000F0FCBB0B44D10735
:107FF00007D454F8082CAD1A1344D5E90212CA600C
:10800000916043F001026A60274ABD6012689A429B
:1080100098D8264B30461968FFF7FAFE92E7142BE2
:108020000AD9542B1FD80B0B03F16F0003F16E021A
:10803000C300B2E7194491E703F15C0003F15B026E
:10804000C300AAE741F00103C7E90455C5E90244AA
:108050006B60695076E70121921001FA02F27968AB
:108060000A437A60A7E7B3F5AA7F06D8CB0B03F1E2
:10807000780003F17702C3008FE740F25452934235
:1080800006D88B0C03F17D0003F17C02C30084E76A
:108090004FF47E737E2280E741F001036B60016044
:1080A00050E700BF8405002090090020E011002067
:1080B0002DE9F8434FF000090746884600F5387669
:1080C000D6E90154013D10D4A389013D012B08D903
:1080D000B4F90E30013304D021463846C04749EA8E
:1080E00000096B1C04F16804EED13668002EE7D15C
:1080F0004846BDE8F88300BF00487047840A002066
:10810000704700BF704700BF704700BF704700BF97
:108110002DE9F0418B890C46990796B008D50122CC
:1081200004F14303C4E90432236016B0BDE8F081D2
:10813000B4F90E100646002927DB6A4601F076F9ED
:10814000002821DB019D4FF4806805F47045A5F5FA
:108150000055B5FA85F54FF400676D094146304684
:1081600000F046F8B4F90C30F0B1204A43F0800337
:10817000F263C4F81480A3812060206135BB3B43C7
:10818000A38116B0BDE8F081A38913F0800519D052
:108190004FF0400830464146002500F029F82F46B0
:1081A000B4F90C300028E0D19A05BED4012123F0A7
:1081B000030304F1430243F00203C4E90421A38151
:1081C0002260B2E74FF480682F46C7E73046B4F923
:1081D0000E1001F03FF910B9B4F90C30CFE7A389C4
:1081E00023F0030343F001031BB2C8E7B57C00088A
:1081F0002DE9F04F01F10B05162D064683B025D869
:10820000102900F2B88000F0E7FA102518224FF08C
:10821000020CB54F3A445368A2F108018B4200F0BA
:10822000B7805A68D96822F003021A449C68304625
:10823000E1608C60516803F1080441F00101516074
:1082400000F0D0FA204603B0BDE8F08F35F0070506
:1082500000F19180A94200F28E8000F0BDFAB5F5E0
:10826000FC7FC0F094816B0A00F08C80042B00F23C
:108270006A81AB0903F1390C03F138044FEACC00F1
:10828000994F384443680838984206D10CE00029D9
:1082900080F22681DB68984206D05A6822F00302F9
:1082A000511B0F29F3DDA4463C69DFF840E2744519
:1082B0007AD0626822F00302531B0F2B00F3768101
:1082C000002BC7E904EE80F26781B2F5007F80F0F1
:1082D00019810121D30852090B4491407A6857F85B
:1082E00033000A4307EBC3010839A060E1607A60FC
:1082F00047F83340C46001214FEAAC0399409142F2
:1083000059D8114206D12CF0030C490011420CF14E
:10831000040CFAD007EBCC0948466446D0F80C8030
:10832000404508D11CE1002B80F22181D8F80C8057
:10833000404500F01581D8F8042022F00302531BB9
:108340000F2BF0DD08EB050145F00105C8F80450DE
:108350003046D8E90264F460A66043F00104C7E93E
:1083600004114C60C1E902EE48F8023000F03AFA1C
:1083700008F1080402E00C2300243360204603B017
:10838000BDE8F08F4FF400704FF0400C3F2477E7CA
:10839000D3689A4208BF0CF1020C7FF442AF3C69EB
:1083A000DFF848E1744584D101217A684FEAAC03D3
:1083B00099409142A5D9BC68636823F003094D45F3
:1083C00003D8A9EB05030F2B7ADCDFF824B1494B66
:1083D000DBF800201B6801322B4404EB090A00F093
:1083E0002F8103F580530F3323F47F6828F00F08A3
:1083F0004146304600F0D8FD411C024600F0EF80B7
:10840000824500F2EA803C4B1968414408461960F5
:1084100000F04981DBF80010019301311BBFA2EB92
:108420000A0A5044CBF80020186012F0070B00F045
:108430001181CBF108010A44CBF5805190440831F9
:10844000A1EB0801C1F30B0A51463046009200F03F
:10845000ABFD421CDDE9002300F04B81801A00EBEC
:108460000A08196848F001005144BC42BA6019601A
:10847000506000F02481B9F10F0F40F222814FF0DB
:10848000050E6068A9F10C0C2CF0070C00F001003F
:1084900040EA0C006060BCF10F0F04EB0C00C0E977
:1084A00001EE00F22E8114465068144B1A688A427D
:1084B00038BF1960124B1A688A4238BF196090E0C1
:1084C000621943F0010345F0010565603046BA606A
:1084D0000834536000F086F9204603B0BDE8F08F01
:1084E000D9681A44A2E600BF840500208C0500204C
:1084F0008C090020E0110020B0110020D8110020CC
:10850000DC110020B2F5206F4FEA52235FD3142B09
:1085100000F2B18003F15C01C9005B33781879582F
:108520000838884200F08F804B6823F003039342A1
:1085300002D989688842F7D1C8687A68C4E902100C
:108540008460CC60D7E6142B59D9542B00F29B8061
:108550002B0B03F16F0C03F16E044FEACC008FE696
:108560000134A30700F108007FF4D8AE53E044467D
:1085700042445368D8F80C1043F00103536054F898
:10858000083F3046D9608B6000F02CF9F6E64FEAE0
:10859000D50C05F108023CE622445368304643F00E
:1085A0000103536000F01EF90834E7E6611945F055
:1085B0000105656043F00105C7E904113046C1E9D2
:1085C00002EE4D60A35000F00DF90834D6E6930991
:1085D00003F13901C9003833A0E7BC425ED0BC6862
:1085E000606820F003084545A8EB050302D80F2B6F
:1085F0003FF766AF304600F0F5F80024BEE603F121
:108600005C0C03F15B044FEACC0039E659F80839F9
:108610004B4540F095801CF0030F0CF1FF3CF5D169
:108620007B6823EA01037B60490099423FF6C3AEB1
:1086300011B9C0E6490004341942FBD0A44669E6EA
:1086400003F11008D4E601229B109A407B681A437C
:108650007A6073E702EB08014942C1F30B0A514605
:108660003046009200F0A0FC431CDDE900237FF4BB
:10867000F5AEDA46F5E6542B26D8130B03F16F015D
:10868000C9006E334AE7B3F5AA7F26D8EB0B03F196
:10869000780C03F177044FEACC00F1E5294B186818
:1086A00040441860B6E6CAF30B0CBCF1000F7FF42F
:1086B000B1AEBC68C84448F001006060F5E61446FD
:1086C000F3E60123536095E7B3F5AA7F24D8D30BD3
:1086D00003F17801C900773320E740F25452934206
:1086E00024D8AB0C03F17D0C03F17C044FEACC00E1
:1086F000C6E5ABF1080BD8444FF0000AA8EB02081E
:10870000AFE604F1080130460093FFF7D1FBBC68E7
:10871000009B60681968C8E640F254518B420BD840
:10872000930C03F17D01C9007C33F7E64FF47E70B2
:108730004FF07F0C7E24A3E54FF47E717E23EDE69F
:108740007B6871E7B01100205FFA81FC810710D0CF
:108750000346511E2AB90AE09A0718460AD0013981
:1087600005D3184613F8012B6245F5D17047002058
:108770007047114603290CD80029F8D0034601445C
:1087800001E08B42F3D0184613F8012B6245F8D173
:10879000ECE7024610B54CEA0C2444EA04441046C7
:1087A000036804326340A3F1013E2EEA030313F091
:1087B000803F04D1043903291046F0D851B1034653
:1087C000014401E08B4205D0184613F8012B6245A5
:1087D000F8D110BD002010BD0148FFF795BC00BFC7
:1087E000A41100200148FFF791BC00BFA411002094
:1087F00038B5C36C05460C464BB153F8240080B124
:10880000026843F824200023C0E9033338BD212245
:10881000042100F04FFD0346E8640028EDD100205C
:1088200038BD0121284601FA04F56A1D920000F0C6
:1088300041FD0028F3D0C0E90145E4E731B1C36C44
:108840004A6853F82200086043F82210704700BFBE
:108850002DE9F0414FF0000E0E461C460D6907460B
:1088600001F1140001680EF1010E8BB202FB03430B
:10887000090C4FEA134C02FB01CC9BB203EB0C43F7
:10888000754540F8043B4FEA1C44EBDC3CB1B3684F
:10889000AB4207DD06EB850301355C61356130468F
:1088A000BDE8F081716838460131FFF7A1FF8046CD
:1088B000A8B1326906F10C01023292000C30F8F7CF
:1088C0000FFCFB6C726853F82210316043F8226091
:1088D000464606EB850301355C613561DFE70246FC
:1088E000B521024B024800F0C5FC00BFDCBD00080A
:1088F00070BE0008020C12040346CAB9102083405F
:1089000013F07F4F04BF1B02083013F0704F04BFF9
:108910001B01043013F0404F04BF9B000230002BBA
:1089200005DB13F0804F00F1010008BF20207047E5
:108930000020E5E70368024613F0070009D0D907D5
:108940001FD498074BBF5B089B08012002201360CF
:10895000704799B209B91020C340D9B209B908309B
:108960001B0A190704BF1B090430990704BF9B08A1
:108970000230D90703D45B0800F1010003D0136073
:108980007047002070472020704700BF38B5C36C87
:1089900004460D464BB15868B0B102685A600022D7
:1089A00001234561C0E9032338BD2122042100F0E1
:1089B00081FC0346E0640028EDD100224FF4A07151
:1089C000074B084800F056FC1C220121204600F00D
:1089D00071FC0028F1D001220223C0E90123DEE767
:1089E000DCBD000870BE00082DE9F04F0E69156966
:1089F0008846AE42144685B005DB2A4623463546F6
:108A00000C4616469846A3686168AF19BB42B8BFCA
:108A10000131FFF7EDFE0190002800F08780019BF7
:108A200003F1140909EB870AD14505D24B46002210
:108A300043F8042B9A45FBD808F1140808EB860B81
:108A400004F11403D8451A4603EB85055FD22B1BAE
:108A5000153B23F0030304331534A54238BF042328
:108A6000CDE902A7AC461F46924605E0000C29D18D
:108A7000C34509F1040948D958F8040B85B2002D03
:108A8000F4D056464C46002356F8040B216882B2B7
:108A90001FFA81FE05FB02EE000C0A0C05FB00220A
:108AA000734402EB13429BB243EA0243B44544F8D9
:108AB000043B4FEA1243E7D849F8073058F8040C52
:108AC000000CD5D0D9F80030544619464D46002246
:108AD0002688090C00FB06119BB20A4443EA0243B4
:108AE00045F8043B54F8046B2968360C8BB200FB44
:108AF0000633A44503EB12434FEA1342E8D8C345BB
:108B000049F8073009F10409B6D8DDE902A7002FBA
:108B100002DC05E0013F03D05AF8043D002BF9D0F8
:108B2000019B18461F6105B0BDE8F08F024640F278
:108B30005D11024B024800F09DFB00BFDCBD000848
:108B400070BE000812F003032DE9F04114460746F9
:108B50002ED10E46A4101CD0BD6C95B3E3074FF088
:108B6000000806D4641014D02868A8B10546E307AD
:108B7000F8D52A4631463846FFF736FFB6B1716858
:108B8000FB6C641053F82120326043F821600646E4
:108B9000EAD13046BDE8F0812A4629463846FFF73B
:108BA00023FF28600546C0F80080E0E70646D9E7C5
:108BB0000F4A013B52F823200023FFF749FE0646E7
:108BC000C8E701213846FFF713FE054640B140F2E1
:108BD00071230122C0E904230023B8640360BDE7C8
:108BE00002464FF4A071034B034800F043FB00BF63
:108BF000E0BF0008DCBD000870BE00082DE9F047AA
:108C00000C462669A36806EB6216751C9D429046C9
:108C1000074649684FEA621904DD5B009D4201F195
:108C20000101FADC3846FFF7E3FD002851D0B9F125
:108C3000000F00F114010FDD0B464FF0000C09F19D
:108C400005024FEA820E00EB820243F804CB934206
:108C5000FBD1AEF114031944226904F1140318F096
:108C60001F0803EB820C2CD08E464FF0000AC8F18F
:108C700020091A6802FA08F242EA0A024EF8042BA6
:108C800053F8042B9C4522FA09FAF2D8ACEB040302
:108C9000153B23F00303043304F11502944538BF58
:108CA0000423BAF1000F18BF2E4641F803A0FB6C55
:108CB0006268066153F82210216043F82240BDE843
:108CC000F087043953F8042B9C4541F8042FF9D858
:108CD000EDE7024640F2D911014B024800F0CAFA12
:108CE000DCBD000870BE000884460B690069C01A2C
:108CF00015D10CF1140C14310CEB830210B401EB00
:108D0000830301E0944508D252F8044D53F8041D42
:108D10008C42F7D004D24FF0FF3010BC7047704740
:108D2000012010BC704700BF2DE9F84F0C69136992
:108D30008946E41A002C17467DD101F1140614323D
:108D400002EB830206EB830301E09E4276D253F8E6
:108D5000045D52F8041D8D42F7D067D3D9F8041092
:108D6000FFF746FD002873D0D9F81050C46000F119
:108D7000140426464FF0000A3B6909F1140807F174
:108D8000140E09F1100C08EB85020EEB83095CF858
:108D900004BF5EF8041B1FFA8BF353441FFA81FAD9
:108DA000090CA3EB0A03C1EB1B4101EB23419BB26E
:108DB00043EA0143F14546F8043B4FEA214AE6D82D
:108DC000A9EB070115391537B94521F0030606F15E
:108DD000040638BF042621F0030138BF0021B04447
:108DE000424526440C4418D93746444654F8041BDF
:108DF0008BB253444FEA234A0AEB11419BB243EA38
:108E00000143A24247F8043B4FEA214AEED8541EE0
:108E1000A4EB080424F00304344423B954F8043DBB
:108E2000013D002BFAD00561BDE8F88F4B460124C7
:108E3000B9461F4692E7F9DB00248FE70021FFF7D0
:108E4000D7FC60B101220023C0E90423BDE8F88FFC
:108E500002464FF41071054B054800F00BFA02462C
:108E600040F23221014B024800F004FADCBD000858
:108E700070BE000870B5012182B016461D46FFF78E
:108E8000B7FC044600284CD02B46C5F30A55C3F363
:108E900013030DB143F48013002E019322D06846D2
:108EA0000096FFF747FD002837D0019B0099C0F1DD
:108EB000200203FA02F20A43C34001936261002BCD
:108EC00014BF02210121A3612161B5B1069BA5F266
:108ED000334505441D60079BC0F1350018602046EE
:108EE00002B070BD01A8FFF725FD0123019A1946C4
:108EF000626120302361002DE8D104EB8102A0F2F1
:108F000032431069069A1360FFF7F4FCC0EB41117D
:108F10002046079B196002B070BDDDE90023626145
:108F2000CDE7024640F20A31014B024800F0A2F9B7
:108F3000DCBD000870BE0008F8B50027DFF85CC093
:108F400021F00043634504460D46176023DC844648
:108F500053EA0C0C1FD0DFF848C0164601EA0C0C8F
:108F60000A46BCF1000F09D100220E4BF7F7ACFA0C
:108F70006FF0350704460A4621F0004322F0FF4215
:108F80001B1522F4E002A3F2FE333B4442F07F556E
:108F9000336045F4001520462946F8BDFFFFEF7FFA
:108FA0000000F07F00005043002238B5064D044613
:108FB00008462A60F8F742FD431C00D038BD2B68F4
:108FC000002BFBD0236038BDE411002010B50C4607
:108FD000B1F90E1000F0FEFA002803DB236D034404
:108FE000236510BDA38923F48053A38110BD00BF66
:108FF0002DE9F0410C46B1F90C101F46CB05054692
:1090000016460BD421F48051A1813B4632462846B6
:10901000B4F90E10BDE8F04100F0D0B8B4F90E106C
:109020000223002200F02EFAB4F90C10EAE700BF88
:1090300010B50C46B1F90E1000F024FAA389421CB9
:109040000EBF23F4805343F480532065A38110BDE9
:10905000B1F90E1000F05EB930B540EA0104A30783
:1090600022D1032A20D90B468446194653F8045BC3
:10907000A5F1013424EA050414F0803F15D1043A27
:10908000032A19464CF8045BEFD801F1FF3E52B1B8
:1090900063461EF8011F541E03F8011B41B122460E
:1090A0009C46002AF4D130BD844601F1FF3EEEE734
:1090B0006244002CF7D003F8011B9342FBD130BD72
:1090C0002DE9F04F9368914683B0002B6ED017685E
:1090D00080460C4608688D68083744E0B4F80CC038
:1090E0001CF4906F2ED0D4E90413451A03EB43030C
:1090F00003EBD373AA194FEA630A531C5345524634
:1091000084BF9A4652461CF4806F36D011464046C2
:10911000FFF76EF800283AD02A4621690190F7F748
:10912000DFFFA289019B22F4906242F08002A281BB
:109130005819AAEB0505A560C4F814A03546B24637
:10914000236120605946524600F0C8F9D9F808302A
:10915000A16820684D1B50449E1BA5602060C9F883
:1091600008601EB3083757E902B6002EFAD0B542A0
:10917000AA46B3D93546B246E4E7404600F040FA85
:1091800003460028D4D140462169FEF791FE0C2306
:1091900000224FF0FF30C8F80030A38943F04003AD
:1091A000A381C9E9012203B0BDE8F08F002318466E
:1091B000C9F8043003B0BDE8F08F00BF38B50C46E5
:1091C000114600228446074D20462A601A4664460E
:1091D000FBF7EAFD431C00D038BD2B68002BFBD009
:1091E000236038BDE41100202DE9F047DFF87CA0B2
:1091F0000646DAF8000098460F469146FEF784FFCF
:109200001B4B1B68D3F8484124B365681F2D26DC2F
:109210005EB96B1C0235DAF80000636044F8257013
:10922000FEF774FF0020BDE8F087012304EB850101
:10923000C1F88890D4F88821AB401A43022EC4F8B4
:109240008821C1F80881E4D1D4F88C211343C4F8F3
:109250008C31DEE703F5A674C3F84841D5E7DAF8A8
:109260000000FEF753FF4FF0FF30DCE780050020E1
:1092700064BD0008144600B51A460A4B0D461B682B
:1092800085B0DE6803464CB1074901913046074975
:109290000294009500F0B6F801F060FB04490C461A
:1092A000F3E700BF50010020ECBF0008FCBF00083E
:1092B000F4B5000810B502FB01F1FEF799FF044672
:1092C00068B150F8042C22F00302043A242A18D87A
:1092D000132A06D802460023C2E9003393602046D1
:1092E00010BD00231B2AC0E900330FD9242AC0E98E
:1092F000023311BF00F11002036100F11802436153
:10930000E9E70021FBF7F4FD204610BD00F108025B
:10931000E1E700BF002238B5064D044608462A6042
:10932000FBF75CFD431C00D038BD2B68002BFBD045
:10933000236038BDE411002070B500294BD00646EB
:109340000C4610B1836B002B48D0636ED80734D520
:10935000B4F90C30002B3ED021463046FEF7EAFB34
:10936000E36A054633B13046E16998470028B8BF43
:109370004FF0FF35A3891A063BD4216B41B104F1AC
:109380004003994202D03046FEF792FD002323634A
:10939000616C21B13046FEF78BFD00236364FEF75C
:1093A00015FD0022636EA281DB0727D5A06DFEF7B5
:1093B000A9FEFEF711FD284670BDA3899905CBD4FF
:1093C000A06DFEF7A1FEB4F90C30002BC4D1656E80
:1093D00015F0010508D00025284670BDFEF770FC89
:1093E000636ED807B4D4E8E7A06DFEF78FFE284679
:1093F00070BD30462169FEF75BFDBEE7A06DFEF74C
:1094000085FED3E70EB400B5074A82B003AB014630
:10941000106853F8042B019300F01CFB02B05DF8B8
:1094200004EB03B0704700BF5001002070B5002668
:10943000074D0446084611462E60FBF7FBFC431C13
:1094400000D070BD2B68002BFBD0236070BD00BF27
:10945000E4110020002238B5064D044608462A6073
:10946000FBF796FC431C00D038BD2B68002BFBD0CB
:10947000236038BDE4110020014B93F828017047A8
:109480009409002038B50C46114600228446074D49
:1094900020462A601A466446FBF7ACFC431C00D009
:1094A00038BD2B68002BFBD0236038BDE4110020B1
:1094B00082B049B15AB16BB113780B601278101EAB
:1094C00018BF012002B0704701A9002AF3D110464D
:1094D00002B070476FF00100F4E700BF88420DD979
:1094E0008B1883420AD900EB020CBAB1624613F81A
:1094F00001CD994202F801CDF9D170470F2A0ED85B
:10950000034602F1FF3C4AB10CF1010C013B8C44D3
:1095100011F8012B614503F8012FF9D1704740EA9A
:1095200001039B074FD1A2F1100370B501F1200C8C
:1095300023F00F0501F1100E00F11004AC441B09DB
:109540005EF8105C0EF1100E44F8105C5EF81C5CC6
:10955000103444F81C5C5EF8185C44F8185C5EF843
:10956000145CE64544F8145CEAD1013312F00C0FA8
:1095700001EB031102F00F0400EB031327D08E461A
:10958000043C24F003064FEA940C1E441C1F5EF8B2
:10959000045B44F8045FB442F9D10CF1010402F019
:1095A000030203EB840301EB840102F1FF3C4AB1A7
:1095B0000CF1010C013B8C4411F8012B614503F8BF
:1095C000012FF9D170BD034602F1FF3C9CE7224612
:1095D000EBE700BF38B50C46114600228446074D24
:1095E00020462A601A466446FBF70CFC431C00D058
:1095F00038BD2B68002BFBD0236038BDE411002060
:109600002DE9F84F1646002900F0988006F10B0569
:1096100080460C46FFF7E0F8162D5DD810252A4647
:10962000AE425ED854F8041CA4F1080921F00307E7
:10963000974262DABC4B09EB0700D3F808C08445B7
:1096400000F09780D0F804C02CF0010303445B685D
:10965000DB0768D42CF0030C07EB0C03934247DACA
:10966000CB0710D454F8083CA9EB030ADAF804300D
:1096700023F003018C44BC44944580F211817B1893
:10968000934280F2E88031464046FEF7B1FD06463F
:10969000E0B154F8043CA0F1080223F001034B446C
:1096A000934200F0D2803A1F242A00F2F580132A58
:1096B00000F2AC8003462246116819605168596077
:1096C00092689A6021464046FEF7F2FB4046FFF75B
:1096D00089F83046BDE8F88F25F00705002D2A46A9
:1096E0009EDA0C230026C8F800303046BDE8F88F1B
:1096F0001F46D0E90223D3609A607B1B0F2B22D830
:10970000D9F8043003F001033B43C9F804304F4457
:109710007B6843F001037B6026464046FFF762F812
:109720003046BDE8F88FC907ADD454F8083CA9EB22
:10973000030ADAF8041021F00301A0E71146BDE89E
:10974000F84FFEF755BDD9F8041043F0010301F0BE
:1097500001012943C9F8041009EB05014B604F448E
:109760007B68404643F0010308317B60FEF7A0FBB5
:10977000D2E7DCF8040020F0030B07EB0B0C05F13B
:10978000100084454DDAC9073FF57DAF54F8081C39
:10979000A9EB010ADAF8041021F003018B44BB4461
:1097A00058453FF76CAF5646DAF80C1056F8080FDC
:1097B0003A1F242AC160886000F2DB80132A40F23D
:1097C000D68021681B2ACAF808106168CAF80C10F4
:1097D00000F2E08008340AF110022168116061682B
:1097E0005160A1689160ABEB05020AEB050142F004
:1097F000010299604A60DAF80430404603F0010340
:109800001D43CAF80450FEF7EDFF6EE723681B2ADC
:1098100003606368436068D804F1080200F108033C
:109820004AE709EB0502ACEB050C9A604CF001032A
:10983000536054F8043C404603F001031D4344F8D0
:10984000045CFEF7CFFF26464FE750F8043C23F0B8
:1098500003031F4451E75646DAF80C1056F8080F78
:109860003A1F242AC16088604CD8132A48D921683D
:109870001B2ACAF808106168CAF80C1056D80834B8
:109880000AF110021F462368D146136063685360D3
:10989000A3683446936030E72146FFF71FFE11E7C7
:1098A0005646D0E90213CB60996056F8081FDAF8E3
:1098B0000C303A1F242ACB6099602DD8132A29D95D
:1098C00023681B2ACAF808306368CAF80C3042D8EB
:1098D00008340AF11003226867461A606268D146AC
:1098E0005A60A26834469A6007E7A368242A836016
:1098F000E368C36026D004F1100200F11003DBE638
:109900003246BFE7214630461F46D146FFF7E6FD07
:109910003446F2E63346DEE7214630466746D14616
:10992000FFF7DCFD3446E8E684050020A168242A20
:10993000CAF81010E168CAF8141020D010340AF1E7
:1099400018029FE7236904F1180203616369436108
:1099500000F11803B0E6A368242ACAF81030E368BF
:10996000CAF8143022D010340AF11803B3E7324693
:1099700033E721463046FFF7B1FD174B33E7226945
:109980001834CAF8182054F8042CCAF81C200AF11C
:10999000200277E7A168242ACAF81010E168CAF803
:1099A00014100ED010340AF1180216E72369183487
:1099B000CAF8183054F8043CCAF81C300AF12003E5
:1099C00089E722691834CAF8182054F8042CCAF818
:1099D0001C200AF1200200E7840500202DE9F84F41
:1099E0004B6E90469C042DD59368126843B38B460A
:1099F000064602F1080959E9025A5FEA9A0715D0AA
:109A00000024043D01E0A7420ED05A46304655F8E6
:109A1000041F00F0FBFF431C04F10104F3D10023F9
:109A2000C8E90133BDE8F88FD8F808302AF0030AF6
:109A3000A3EB0A03C8F8083009F10809002BDAD1B2
:109A40000020ECE701F016F80023C8E90133BDE877
:109A5000F88F00BF2DE9F04FBDB01C461746CDE989
:109A60000530029118B1836B002B00F07782029AC7
:109A7000536EDE0740F18481B2F90C108AB2900473
:109A800008D441F4005202994B6E8A8123F40053AA
:109A900092B24B66110740F1EC80029B1B69002BD0
:109AA00000F0E78002F01A030A2B00F0F08013ABFD
:109AB00010930023CDE91133CDE90933CDE90B3300
:109AC0000DF14C0904933B78002B00F046813C4695
:109AD00004E014F8013F002B00F02181252BF8D180
:109AE000E51B40F01E812378002B00F036814FF0FB
:109AF000000300254FF0FF3B4FF02B088DF83B3063
:109B000063780395671C0137A3F120025A2A00F2FB
:109B10004681DFE812F0A102440144019D024401A4
:109B2000440144017C02440144016A00530244019F
:109B30002902AF024401AB025B005B005B005B00EB
:109B40005B005B005B005B005B004401440144017F
:109B500044014401440144014401440113027800DA
:109B600044014401440144014401440144014401CD
:109B700044014401D100440144014401F70144017E
:109B800041024401440121054401440144014401CE
:109B900044014401440144014401440113027A0098
:109BA00044014401440137027A00740044012D024B
:109BB00044016902D300570274004401F7017200A6
:109BC0004105440144014305440172000021A3F111
:109BD000300217F8013B01EB810102EB4101A3F1D7
:109BE0003002092AF5D903918EE7059B53F8042B1F
:109BF000002A03920593C0F2B4813B7883E73B7857
:109C000045F020057FE745F01005AC06059E40F1C4
:109C10006B81073626F007063246736852F8086BE8
:109C200098460592002BC0F24984BBF1FF3F00F03B
:109C30002F8556EA080325F0800A00F025840A2EB5
:109C400078F1000380F0E1840123554630368DF829
:109C5000EF6001930DF1EF04DDF804809DF83B30D7
:109C6000D845B8BFD846002B00F0A88008F10108FD
:109C7000A4E0029D0698294600F006FE002840F068
:109C80009285AA8902F01A030A2B7FF410AF029979
:109C9000B1F90E30002BFFF60AAF4B6EDE0702D48F
:109CA000950540F1608523463A46029906983DB0F5
:109CB000BDE8F04F00F098BD45F0100515F0200804
:109CC00000F00381059E073626F007063346D6F8D6
:109CD000048053F8086B0593002325F4806A4FF045
:109CE00000028DF83B20BBF1FF3F00F0DD8156EA1A
:109CF00008022AF0800540F0D681BBF1000F40F049
:109D0000CA84002B40F0C5831AF00103019300F0D0
:109D1000EC8330230DF1EF048DF8EF309CE7E51B69
:109D20001BD0119B129A01332A44072BC9E90075F5
:109D30001292119305DC09F10809049B2B4404934A
:109D4000D1E6002A00F09C830299069810AAFFF73A
:109D500045FE40B90DF14C09EFE7129B002B40F096
:109D6000138500231193029A536ED90740F1A28004
:109D700093895B0600F1238504983DB0BDE8F08F20
:109D8000029BB3F90C108D058AB23FF578AE1D46E3
:109D9000986DFEF7B9F9B5F90C108AB26FE6002B91
:109DA000DBD04FF001088DF88C304FF0000323AC6E
:109DB0008DF83B30CDF804804FF0000B15F0020316
:109DC000079318BF08F1020815F08403089305D122
:109DD000039BA3EB0806002E00F38A82DDE9111233
:109DE000481C9DF83B6076B1012101320DF13B0624
:109DF0000728CDE91102C9E9006100F35882014644
:109E000009F108090130079BD3B102230232C9F8D6
:109E1000043007280FABCDE91102C9F8003040F338
:109E20006282002A00F027830299069810AAFFF7A1
:109E3000D5FD002897D1DDE911120DF14C09481C20
:109E4000089B802B00F07181019BABEB0306002E79
:109E500000F3CF81019B07281A44CDE91102C9F80C
:109E60000040C9F8043040F35D81002A00F093827D
:109E70000299069810AAFFF7B1FD00287FF473AF8E
:109E8000129A0DF14C09680705D5039BA3EB080452
:109E9000002C00F38A82DDE903134145ACBF5B1857
:109EA00043440493002A40F0F38100230DF14C0950
:109EB000119308E6029B9B899A053FF55AAF029CD5
:109EC000A06DFEF723F9A38953E715F0100340F0C6
:109ED000188315F0400200F01083059E984656F84E
:109EE000043B05969EB2F7E656F8043BE806059655
:109EF00000F11083690640F10A8343F3C0381EB2B3
:109F000043468FE64FF00003059E8DF83B3056F830
:109F1000044B002C00F0CD83BBF1FF3F00F04183E8
:109F20005A4600212046FEF70FFC002800F020844E
:109F3000031B4FF0000B059601938DE64FF00003D5
:109F40004FF00108059E8DF83B3056F8043B23ACDA
:109F50008DF88C300596CDF804802DE7FDF7B0FE26
:109F600085E5039B5B4203933B7845F00405CAE516
:109F70003B786C2B03BF7B7845F02005013745F01B
:109F80001005C0E53B78682B03BF7B7845F400756E
:109F9000013745F04005B6E545F0100A1AF02008F3
:109FA00000F07E82059E0123073626F00706324622
:109FB000D6F8048052F8086B059290E63B788DF84D
:109FC0003B80A0E530228DF83C207822059B8DF85F
:109FD0003D2053F8046BBE4A05934FF0000802235E
:109FE00045F0020A09927AE6AE0600F1A482EC0678
:109FF00000F15783680600F1AE83A90540F1518353
:10A00000059E049A56F8043B1A7005965BE5069C7B
:10A010002046FEF771F8436818460B93FAF7FCFFE9
:10A02000034620460C931C46FEF766F883680A93A5
:10A03000002C3FF4E2AD0A9B002B3FF4DEAD0A9BFF
:10A040001B78002B3FF4D9AD3B7845F480655AE589
:10A050003B7845F0010556E59DF83B30002B7FF439
:10A06000CCAD20238DF83B303B784CE53B7845F078
:10A07000800548E5394611F8013B2A2B00F0A483FE
:10A08000A3F13002092A0F464FF0000B3FF63CAD1A
:10A0900017F8013B0BEB8B0B02EB4B0BA3F13002E0
:10A0A000092AF5D930E5AA46012B3FF4C8AD022BA9
:10A0B0003CAC12D1099A06F00F03D35C360946EA8C
:10A0C00008764FEA181804F8013D56EA0803F2D161
:10A0D0003CAB1B1B55460193BEE506F00703F60893
:10A0E00046EA48764FEAD808303356EA0801224655
:10A0F00004F8013DF1D11AF0010FE9D0302BE7D07F
:10A100003023023A04F8013C3CAB9B1A55461446F6
:10A110000193A1E50123019A1394119314921292D1
:10A120000DF14C0909F10809ADE6039BA3EB080604
:10A13000002E7FF789AE102EDFF898A138DD534648
:10A14000CC46BA46C1460794A8461F46069C029DC7
:10A1500007E001F1020E01460CF1080C103E102E32
:10A160001EDD1023481C10320728CDE91102CCF85F
:10A170000070CCF80430ECDD002A00F09280294613
:10A18000204610AAFFF72AFC00287FF4ECADDDE999
:10A190001112103E102E0DF14C0C01F1010EE0DCFD
:10A1A0003B4645465746C8467046E1469A46079C98
:10A1B00032440728CDE91102C9F800A0C9F80460AB
:10A1C00040F39681002A00F098820299069810AA1E
:10A1D000FFF704FC00287FF4C6ADDDE91112019BF6
:10A1E0000DF14C09ABEB0306002E01F101007FF7E6
:10A1F00031AE102E40F36982DFF8D8A0CC4653462A
:10A20000C146BA46A84607944FF0100B1F46069C5D
:10A21000029D07E001F1020E01460CF1080C103E10
:10A22000102E19DD481C10320728CCE9007BCDE93F
:10A230001102EFDD32B32946204610AAFFF7CEFB0C
:10A2400000287FF490ADDDE91112103E102E0DF1C3
:10A250004C0C01F1010EE5DC3B4645465746C8462D
:10A260007046E1469A46079C32440728CDE9110220
:10A27000C9F800A0C9F8046000F3E98009F10809F1
:10A280000130E7E54FF0010E11460DF14C0CC6E729
:10A290000299069810AAFFF7A1FB00283FF405AE2B
:10A2A00061E54FF0010E11460DF14C0C56E7002A06
:10A2B00000F0DE800299069810AAFFF78FFB0028B5
:10A2C0007FF451ADDDE911120DF14C09481C9AE5FE
:10A2D00078BD00084CC00008022201200FAB139388
:10A2E0000DF14C091492014609F10809481CA7E533
:10A2F000102E40F34382DDE91132DFF8F0A2194657
:10A300005346CC46BA46C1460D94A8461F46069C05
:10A31000029D07E001F1020E01460CF1080C103E0F
:10A32000102E1CDD1023481C10320728CDE9110225
:10A33000CCF80070CCF80430ECDD32B3294620466E
:10A3400010AAFFF74BFB00287FF40DADDDE91112D9
:10A35000103E102E0DF14C0C01F1010EE2DC3B46DB
:10A3600045465746C8467146E1469A460D9C3244DA
:10A370000729CDE91112C9F800A0C9F8046000F35B
:10A38000A78009F10809481C2BE511464FF0010E82
:10A390000DF14C0CC3E76C07119250D5039BA3EB56
:10A3A0000804002C4BDD0DF14C09102C40F3F68114
:10A3B000DFF838A2102553461199BA46069E1F466B
:10A3C000DDF808B006E0881C194609F10809103CC0
:10A3D000102C19DD4B1C1032072BC9E90075CDE993
:10A3E0001132F0DD32B35946304610AAFFF7F6FAC3
:10A3F00000287FF4B8ACDDE91112103C102C0DF1EF
:10A400004C0901F10100E5DC3B4657469A462244DF
:10A410000728C9E900A4CDE911027FF73CAD72B16C
:10A420000299069810AAFFF7D9FA00287FF49BAC8E
:10A43000129A30E5012011460DF14C09C7E7DDE91C
:10A4400003234245ACBF9B18434404932DE5002AE7
:10A450003FF460AE0299069810AAFFF7BFFA0028F1
:10A460007FF481AC1198129A0DF14C090130F1E49E
:10A47000079B002B69D1012011460DF14C09DFE447
:10A4800011920DF14C0958E4BBF1000F7FF4DCABE5
:10A4900055464FF0000B3CACCDF804B0FFF7DCBBE9
:10A4A0001AF0100340D11AF0400239D0059E9846A8
:10A4B00056F8042B0123059696B210E42D2376421C
:10A4C0008DF83B30AA464FF0010368EB48080AE4D8
:10A4D000002A6FD00299069810AAFFF77FFA002889
:10A4E0007FF441AC0DF14C0978E43CACFFF7B4BB10
:10A4F000014609F108090130A6E415F4007840F09E
:10A500001B81059B53F8046B0593FFF7E5BBAA0578
:10A5100000F10C814FEAE3781E464346FFF782BB09
:10A520001AF4007840F0F980059A012352F8046B80
:10A530000592FFF7D4BBDDE9041656F8042BCB17C0
:10A54000C2E900130596FFF7BEBA02220FAB1393C0
:10A550000DF14C091492C7E6254A099215F020081E
:10A5600036D0059E073626F007063246D6F8048018
:10A5700052F8086B0592EA0709D556EA080206D098
:10A580008DF83D30302345F002058DF83C30022334
:10A5900025F4806AFFF7A3BBAA46FFE4154A099297
:10A5A000DCE720460596FAF737FD4FF0000B0190E7
:10A5B000FFF752BB9DF83B10002900F0A48001205A
:10A5C0000DF13B0213920DF14C090246149016E472
:10A5D00015F0100214D115F040010DD0059E9046E3
:10A5E00056F8042B059696B2C5E700BF3CC000089C
:10A5F0008CBD000878BD000815F4007840F0A480F8
:10A60000059A52F8046B0592B5E700230AF48062BC
:10A61000CDE907B9CDF804A0BB469A461746DDF848
:10A6200028903CAD0CE00023304641460A22F6F764
:10A63000E3FD0A2E78F100031BD306468846254623
:10A64000304641460A220023F6F7D6FD30326C1E12
:10A650000AF1010A05F8012C002FE4D099F8003026
:10A660005345E0D1BAF1FF0FDDD00A2E78F1000397
:10A670002ED2DDF804A03CAB1B1B5F46CDF8289022
:10A680005546DDF82090DDF81CB00193FFF7E4BAE1
:10A69000AA46FFF7D4BA012BAA467FF408ADFFF70C
:10A6A000D3BA059E049A56F8043B1A600596FFF744
:10A6B0000ABABBF1060FD84628BF4FF00608474C30
:10A6C000CDF804800596FFF777BBDFF814A1CBE542
:10A6D0000C9B0B99E41A1A462046FEF7BDFC99F82C
:10A6E00001300BB109F10109304641460A2200232D
:10A6F0004FF0000AF6F780FD9FE7012011460DF1AB
:10A700004C09FFF7A1BB079B002B7FF4E5AD114679
:10A7100001200DF14C09FFF797BB059E904656F8B6
:10A72000042B01230596D6B2FFF7D9BA43F3C0181C
:10A730005EB24346FFF776BA059E904656F8043B54
:10A740000596DEB2FFF7C8BA059E884656F8042B78
:10A750000596D6B20FE7059E049A56F8043B1A8078
:10A760000596FFF7B0B9886DFDF7D0FCFFF79BBAEF
:10A77000CDF804B005968346FFF76EBA1199129A88
:10A78000DFF860A00131F2E50299069810AAFFF700
:10A7900025F900283FF4E5AAFFF7E5BA1198DFF89C
:10A7A00044A0013033E6029B5B6EDB0707D4029BBB
:10A7B0009B899F0503D4029B986DFDF7A7FC4FF082
:10A7C000FF330493FFF7D8BA059A7B780F4652F807
:10A7D000041B059241EAE17BFFF795B9A0BD000893
:10A7E0004CC000083CC00008F0B54FF4806C154622
:10A7F000002406461F46ADF26C4D1AAB009304933D
:10A800008B8916A823F00203ADF80C304B6E06942A
:10A810001993CB890C46ADF80E30CB69CDF808C042
:10A8200007934B6ACDF814C00993FDF769FC2A46DB
:10A830003B4669463046FFF70DF9051E07DB6946C2
:10A840003046FDF709FA002818BF4FF0FF35BDF874
:10A850000C305B0603D5A38943F04003A38116980F
:10A86000FDF750FC28460DF26C4DF0BD034649B192
:10A87000FF2A02D801200A7070478A224FF0FF3069
:10A880001A6070470846704738B5334B05461B6859
:10A890000C460BB19A6B12B3B4F90C3018079AB28C
:10A8A00025D5216900292DD012F0010007D00025FF
:10A8B0006069A5604042A06139B1002038BD9507AC
:10A8C00058BF6069A0600029F7D1120658BF08463A
:10A8D000F4D543F040034FF0FF30A38138BD184654
:10A8E000FDF7EEF9B4F90C3018079AB2D9D4D106B5
:10A8F0002AD5520714D4216943F00803A3819AB2E0
:10A900000029D1D102F42070B0F5007FCCD02146CF
:10A910002846FDF7FDFBB4F90C3021699AB2C3E774
:10A92000216B51B104F14002914204D02846FDF759
:10A93000BFFAB4F90C30002222630022216923F00F
:10A940002403C4E90012D7E7092243F040032A6038
:10A950004FF0FF30A38138BD50010020062008B51C
:10A9600000F000FA0120F7F763F800BF2DE9F0438B
:10A9700083B0074688461446FEF77EFD012803D1C2
:10A9800008F1FF33FE2B33D94246384604F15C030D
:10A9900001A900F083FA421C06462FD018B39DF897
:10A9A000041000250DF1050908E023685A1C2260F7
:10A9B00019700135B54216D219F8011BA368013B85
:10A9C000002BA360F1DAA269934201DB0A29ECD1E2
:10A9D0002246384600F00AFA431CEAD106463046C1
:10A9E00003B0BDE8F0834646304603B0BDE8F083CF
:10A9F0005FFA88F106468DF80410D2E73046A38945
:10AA000043F04003A38103B0BDE8F08330B5536E3B
:10AA1000144613F0010FB2F90C30054683B09AB218
:10AA200001D198051CD5900406D4626E43F40053FE
:10AA300042F40052A381626622462846FFF796FF41
:10AA4000636E0546DA0702D4A3899B0502D5284622
:10AA500003B030BDA06DFDF759FB284603B030BDF3
:10AA6000A06D0191FDF750FBB4F90C3001999AB239
:10AA7000D9E700BF9368002B00F0B7802DE9F04FB5
:10AA8000B1F90C300C4619078046174683B098B2CE
:10AA900025D523691BB310F002033D682DD04FF07C
:10AAA000000B5E46DFF8B8A2002E00F08B80564502
:10AAB00033465A4628BF53464046E169D4F824C07D
:10AAC000E047002840F38780BB6883441B1A361A8E
:10AAD000BB60002BE8D1002003B0BDE8F08F214619
:10AAE0004046FFF7D1FE002840F03681B4F90C3023
:10AAF0003D6898B210F00203D1D110F0010976D16F
:10AB00004E46002E5AD08205D4F808B040F1B580E8
:10AB1000B3455A4600F2CD8010F4906F00F0CB8020
:10AB200023682169A3EB010B636903EB430A0AEB7A
:10AB3000DA7A0BF101034FEA6A0A3344534552466D
:10AB400084BF9A465246430540F1EA80114640468A
:10AB5000FDF74EFB002800F0F9805A46216901906C
:10AB6000F6F7BEFAA289019B22F4906242F08002BD
:10AB7000A28103EB0B0023613246AAEB0B03B34621
:10AB8000C4F814A0A3602060B24600264946019292
:10AB9000FEF7A4FCA3682168019AA3EB0B030A4407
:10ABA000A3602260B868D144A0EB0A00B860002816
:10ABB00091D0B4F90C0080B2002EA4D1D5E9009652
:10ABC00008359EE7D5E900B608356DE721464046D1
:10ABD000FDF742F880B3B4F90C304FF0FF3043F08A
:10ABE0004003A38103B0BDE8F08F002070471E46EC
:10ABF000AA46994618461D4656B3002832D04A4602
:10AC000020682169B24228BF32468842636904D96C
:10AC1000A16803EB010B5A4574DC934265DC2A46BC
:10AC20004046E169D4F824C0E047B0F1000BD2DD22
:10AC3000B9EB0B09CAD00120BB685D44A3EB0B0341
:10AC4000A6EB0B06BB60002B3FF445AF002ED4D122
:10AC50000AF1080353F8046C9A4653F8085C083369
:10AC6000002EF7D032460A212846FDF76DFD002858
:10AC700069D00130A0EB0509C1E72068236998423B
:10AC80001BD86369B34218D86FF0004CB44528BF95
:10AC9000B4469CFBF3FC4A4603FB0CF34046E169D7
:10ACA000D4F824C0E047B0F1000A94DDA6EB0A0610
:10ACB00078E7B3463246206866E7B345DA4628BFF0
:10ACC000B24649465246FEF709FCA3682268A3EB48
:10ACD0000A035244A3602260002BE7D1214640467C
:10ACE000FCF7BAFF0028E1D075E7294693460192A8
:10ACF000FEF7F4FBA368019A9B1AA36023681A4429
:10AD0000226095E729465A46FEF7E8FB236821466C
:10AD10005B4440462360FCF79FFF002888D05AE739
:10AD20004046FEF76DFC034600287FF422AF404604
:10AD30002169FDF7BDF80C22B4F90C30C8F80020E9
:10AD400023F0800349E7721C914659E70C22B4F9BD
:10AD50000C30C8F8002040E74FF0FF30BCE600BFE1
:10AD600000FCFF7F38B5154B1F281D6820D8D5F88B
:10AD7000DC22044662B152F820304BB1012B15D0D1
:10AD8000591C0FD0002542F820509847284638BD5E
:10AD9000284600F029F8224601462846BDE83840FA
:10ADA00000F00EB8162301202B6038BD002038BDFE
:10ADB00016234FF0FF302B6038BD00BF500100203C
:10ADC00070B50026074D0446084611462E60F6F77A
:10ADD00027FE431C00D070BD2B68002BFBD02360E6
:10ADE00070BD00BFE4110020F6F718BEF8B50646A6
:10ADF0000D46144610B1836B002B43D0B4F90C20E0
:10AE0000A3691007A36091B21BD52369CBB1EDB242
:10AE100089042F4622D522686169D31A994229DD17
:10AE20000133A1680139A160511C2160157062696C
:10AE30009A422AD0A389DB0701D50A2D25D03846AE
:10AE4000F8BD21463046FFF71FFD20BBB4F90C20AA
:10AE5000EDB291B289042F462369DCD442F400524A
:10AE6000A281626E616922F4005262662268D31A7E
:10AE70009942D5DC21463046FCF7EEFE58B9012355
:10AE80002268CEE7FCF71CFFB8E721463046FCF706
:10AE9000E3FE0028D3D04FF0FF37D0E770B505466A
:10AEA0001C4684B039B10B4ED6F8E060B047431C65
:10AEB00009D004B070BD0A460649D1F8E06001A986
:10AEC000B047431CF5D100228A2322602B6004B0D6
:10AED00070BD00BF940900202DE9F84FB84F21F054
:10AEE0000046BE4204460D468A461CDDB54B9E42D6
:10AEF0000DDC0AD0B44BB54AB54CBAF1000FD8BF3F
:10AF0000134620461946BDE8F88F0028F2D02246A5
:10AF10002B4620462946F5F721F904460B462046E4
:10AF20001946BDE8F88FAB4B9E4200F3B080A3F109
:10AF3000DE739E4240F39D804FF0FF3B22462B463E
:10AF400020462946F5F7C0FA02460B468046894658
:10AF5000F5F7BAFA82A3D3E9002306460F46F5F7C0
:10AF6000B3FA81A3D3E90023F5F7F8F832463B465C
:10AF7000F5F7AAFA7EA3D3E90023F5F7EFF83246F6
:10AF80003B46F5F7A1FA7CA3D3E90023F5F7E6F8F1
:10AF900032463B46F5F798FA79A3D3E90023F5F753
:10AFA000DDF832463B46F5F78FFA77A3D3E9002365
:10AFB000F5F7D4F842464B46F5F786FA74A3D3E981
:10AFC00000238046894630463946F5F77DFA72A35C
:10AFD000D3E90023F5F7C0F832463B46F5F774FA9B
:10AFE0006FA3D3E90023F5F7B7F832463B46F5F7F0
:10AFF0006BFA6DA3D3E90023F5F7AEF832463B4672
:10B00000F5F762FA6AA3D3E90023F5F7A5F832460B
:10B010003B46F5F759FABBF1FF3F02460B46404667
:10B02000494653D0F5F79AF86B4E22462B46F5F772
:10B030004BFA6A4B06EBCB064FEACB0B9B44DBE9A2
:10B040000023F5F789F822462B46F5F785F80B46DD
:10B050000246D6E90001F5F77FF8BAF1000F044681
:10B060000B46BFF64EAF01F1004320461946BDE83E
:10B07000F88F51A3D3E90023F5F770F80022584B5D
:10B08000F5F7B2FC00283FF457AF2B4639E700F044
:10B09000B1F8544B04469E420D4629DCA3F55023DB
:10B0A0009E4250DC02460B46F5F758F800224C4B06
:10B0B000F5F752F802460B462046294614461D462F
:10B0C0004FF0000B00224FF0804326E0F5F746F8E2
:10B0D00022462B46F5F7F8F902460B46204629464C
:10B0E000F5F73AF804460B4620461946BDE8F88FB6
:10B0F0003D4B9E421CDA00223C4BF5F72DF80246F0
:10B100000B462046294614461D460022374B4FF079
:10B11000020BF5F7D9F90022314BF5F71FF802467B
:10B120000B4620462946F5F7F9FA04460D4605E791
:10B1300002460B4600202E49F5F7F0FA4FF0030BBC
:10B1400004460D46FAE60022254BF5F705F80246BF
:10B150000B46204629464FF0010B14461D46DAE700
:10B1600011DA22E33AAD903FEB0D76244B7BA93FF9
:10B17000513DD0A0660DB13F6E204CC5CD45B73FC7
:10B18000FF8300922449C23F0D5555555555D53F73
:10B190002F6C6A2C44B4A2BF9AFDDE522DDEAD3F67
:10B1A0006D9A74AFF2B0B33F711623FEC671BC3F07
:10B1B000C4EB98999999C93F9C7500883CE4377E07
:10B1C000FFFF0F440000F07FFB21F93FFB21F9BF97
:10B1D000182D4454FFFFDB3F60C1000880C1000808
:10B1E0000000F03FFFFFF23F008003400000F83F07
:10B1F0000000F0BF21F00041704700BF00F030B800
:10B20000F8B504460D4600F0F5F8134B064693F9E1
:10B2100000300F4601330DD022462B4620462946EA
:10B22000F5F7D4FF30B92046294600220023F5F770
:10B23000BDFB10B930463946F8BDF9F72FFE0022A4
:10B2400000232121016010461946F5F767FA0646EA
:10B250000F4630463946F8BD000B002000000000C4
:10B260009C462DE9F84F53425F4C13432CF00049A4
:10B2700049EAD373A342964607460E463DD8454257
:10B28000054321F0004A4AEAD575A54203468B469C
:10B2900033D80CF1404505F5801515433DD04FEAF4
:10B2A000AC7505F002055AEA030345EAD1752CD0C6
:10B2B00059EA020335D0A14546D0A24531D0AAEBC8
:10B2C0000909B9F1747F4FEA295339DABCF1000F4B
:10B2D00046DA3C3344DA00200021012D58D0022DFB
:10B2E00049D085B134A3D3E90023F4F735FF34A363
:10B2F000D3E90023F4F730FF05E03A467046614693
:10B300003346F4F72BFFBDE8F88F022D10D0032D44
:10B31000F9D12DA1D1E90001F5E7BDE8F84FFFF71C
:10B32000DBBDBBF1000F07DB29A1D1E90001EAE792
:10B3300023A1D1E90001E6E727A1D1E90001E2E775
:10B3400023A1D1E90001C8E7CA4505F1FF3523D0A3
:10B35000022D29D8254B03EBC505D5E90001D2E71D
:10B360007246634638463146F5F7D8F9FFF742FF93
:10B37000FFF7B2FDB1E710A3D3E90023F4F7ECFE29
:10B3800002460B460EA1D1E90001F4F7E5FEBAE74B
:10B3900001F100431946B6E7022D08D8144B03EB20
:10B3A000C505D5E90001AEE700200021ABE70CA1FF
:10B3B000D1E90001A7E700BF075C143326A6A13C32
:10B3C000182D4454FB210940182D4454FB2109C079
:10B3D000182D4454FB21F93F182D4454FB21F9BF8B
:10B3E000182D4454FB21E93F0000F07FB8C100084C
:10B3F000A0C100082DE9F843604E054636EA010277
:10B400000C4600F09E8000290B46844654DD091549
:10B4100062D0C3F31303C807A1F2FF3743F48013CC
:10B4200004D45B0003EBDC734FEA4C0C00264FEABC
:10B43000DC7202EB43034FF0160E4FF40012344659
:10B440007F104FEA4C0CA118994202DC5B1A8C1851
:10B4500016445B00BEF1010E03EBDC734FEA5202AF
:10B460004FEA4C0CEFD1754620204FF000420AE025
:10B4700043D04FEADC71013801EB43034FEA4C0C37
:10B480004FEA520242D0A34202EB0E01F0DD002946
:10B4900001EB020E0ADBA0461B1B614588BF03F1CE
:10B4A000FF334446ACEB010C1544E2E7BEF1000F5C
:10B4B000F1DB04F10108EFE721F00042024336D04E
:10B4C00000294CD14FEADC22134615394FEA4C5C77
:10B4D000002AF7D0D6024CD400205B00DD020446DF
:10B4E00000F10100F9D51A4663460CFA00FCC0F1E0
:10B4F0002000C340091B13438BE76145B9D80029DD
:10B5000001EB020ED2DB98460023CAE753EA0C0394
:10B5100011D16808731003F17F5303F50013F2078C
:10B5200048BF40F0004003EB075905464C4628460B
:10B530002146BDE8F883691C16BF681C0136400827
:10B54000E8E702460B46F4F7BFFF2A462346F4F726
:10B5500005FE05460C4628462146BDE8F88302460E
:10B56000F4F7FAFD02460B46F5F7D8F805460C4607
:10B57000DDE7634620204FF0FF34BAE70000F07F9C
:10B58000F8B500BFF8BC08BC9E467047F8B500BFD0
:08B59000F8BC08BC9E467047A0
:10B59800252E3366000000002533660042615F6B8C
:10B5A800703A000042615F6B693A000053705F6B4C
:10B5B800703A000053705F6B693A000047793A00AF
:10B5C8004F4B0000000000000000000001020304CF
:10B5D800060708090000000001020304020304052D
:10B5E800060708090A0B0C0D0E0F101000000000CA
:10B5F8000000000000000000000000000000000043
:10B6080000000000001000100010001000100010D2
:10B61800000000100000000000280028002800009A
:10B6280000000000000000000000000000240024CA
:10B63800007C00240048007C00480048000000000E
:10B6480000380054005000380014005400540038EA
:10B65800001000000020005400580030002800545A
:10B668000014000800000000001000280028001046
:10B6780000340048004800340000000000100010AA
:10B6880000100000000000000000000000000000A2
:10B6980000080010002000200020002000200020CA
:10B6A800001000080020001000080008000800082A
:10B6B80000080008001000200010003800100028C2
:10B6C8000000000000000000000000000000000072
:10B6D80000100010007C00100010000000000000A6
:10B6E8000000000000000000000000000000001042
:10B6F80000100010000000000000000000000038EA
:10B708000000000000000000000000000000000031
:10B718000000000000000010000000000008000801
:10B728000010001000100010002000200000000091
:10B7380000380044004400540044004400440038E9
:10B748000000000000100030005000100010001031
:10B7580000100010000000000038004400440004FD
:10B76800000800100020007C0000000000380044A1
:10B778000004001800040004004400380000000021
:10B7880000080018002800280048007C000800086D
:10B7980000000000007C0040004000780004000425
:10B7A80000440038000000000038004400400078E1
:10B7B800004400440044003800000000007C0004FD
:10B7C80000080010001000200020002000000000E9
:10B7D8000038004400440038004400440044003865
:10B7E800000000000038004400440044003C00040D
:10B7F80000440038000000000000000000100000B5
:10B808000000000000000010000000000000000020
:10B8180000000010000000000000001000100010E0
:10B8280000000000000C003000400030000C000058
:10B8380000000000000000000000007C0000007C08
:10B848000000000000000000000000000060001878
:10B8580000040018006000000000000000380044E8
:10B868000004000800100010000000100000000094
:10B8780000380044004C0054005C00400040003890
:10B888000000000000100028002800280028007C84
:10B8980000440044000000000078004400440078A0
:10B8A80000440044004400780000000000380044D0
:10B8B8000040004000400040004400380000000004
:10B8C80000700048004400440044004400480070F0
:10B8D80000000000007C00400040007C0040004068
:10B8E8000040007C00000000007C00400040007820
:10B8F80000400040004000400000000000380044C4
:10B9080000400040005C0044004400380000000093
:10B91800004400440044007C0044004400440044C7
:10B928000000000000380010001000100010001087
:10B9380000100038000000000004000400040004A7
:10B9480000040004004400380000000000440048DF
:10B95800005000600050004800480044000000000B
:10B968000040004000400040004000400040007C93
:10B97800000000000044006C006C005400440044C7
:10B9880000440044000000000044006400640054C7
:10B998000054004C004C00440000000000380044F3
:10B9A8000044004400440044004400380000000003
:10B9B8000078004400440044007800400040004003
:10B9C80000000000003800440044004400440044E3
:10B9D800005400380004000000780044004400448B
:10B9E8000078004800480044000000000038004487
:10B9F8000040003000080004004400380000000047
:10BA0800007C001000100010001000100010001042
:10BA18000000000000440044004400440044004486
:10BA2800004400380000000000440044004400289E
:10BA38000028002800100010000000000044004406
:10BA4800005400540054006C002800280000000036
:10BA58000044002800280010001000280028004496
:10BA680000000000004400440028002800100010D6
:10BA78000010001000000000007C00040008001006
:10BA8800001000200040007C00000000001800109A
:10BA98000010001000100010001000100010001816
:10BAA80000200020001000100010001000080008FE
:10BAB80000000000003000100010001000100010FE
:10BAC800001000100010003000100028002800446A
:10BAD800000000000000000000000000000000005E
:10BAE800000000000000000000000000000000FE50
:10BAF800002000100000000000000000000000000E
:10BB0800000000000000000000380044003C004431
:10BB1800004C003400000000004000400058006461
:10BB280000440044006400580000000000000000C9
:10BB38000038004400400040004400380000000085
:10BB4800000400040034004C00440044004C00345D
:10BB5800000000000000000000380044007C0040A5
:10BB68000044003800000000000C0010007C0010A9
:10BB7800001000100010001000000000000000007D
:10BB88000034004C00440044004C003400040078A9
:10BB98000040004000580064004400440044004451
:10BBA80000000000001000000070001000100010DD
:10BBB80000100010000000000010000000700010CD
:10BBC8000010001000100010001000E000400040BD
:10BBD8000048005000600050004800440000000089
:10BBE800007000100010001000100010001000106D
:10BBF80000000000000000000078005400540054C9
:10BC080000540054000000000000000000580064C8
:10BC1800004400440044004400000000000000000C
:10BC2800003800440044004400440038000000008C
:10BC380000000000005800640044004400640058FC
:10BC480000400040000000000034004C0044004464
:10BC5800004C003400040004000000000058006498
:10BC680000400040004000400000000000000000CC
:10BC7800003800440030000800440038000000008C
:10BC8800002000200078002000200020002000185C
:10BC9800000000000000000000440044004400448C
:10BCA800004C003400000000000000000044004484
:10BCB80000280028002800100000000000000000F4
:10BCC800005400540054006C0028002800000000B4
:10BCD8000000000000440028001000100028004464
:10BCE8000000000000000000004400440028002874
:10BCF800001000100010006000000000007C000828
:10BD0800001000200040007C000000000018001017
:10BD18000010001000200020001000100010001873
:10BD2800001000100010001000100010001000108B
:10BD3800001000100030001000100010000800086B
:10BD48000010001000100030000000000000007417
:10BD5800004C000000000000000000005801002016
:10BD6800494E4600696E66004E414E006E616E0097
:10BD78003031323334353637383961626364656659
:10BD8800000000003031323334353637383941421B
:10BD98004344454600000000286E756C6C2900007D
:10BDA80030000000202020202020202020202020DB
:10BDB80020202020303030303030303030303030BB
:10BDC800303030304E614E00496E66696E69747964
:10BDD8000000000042616C6C6F63207375636365DB
:10BDE80065646564000000002F6D6E742F776F72B4
:10BDF8006B73706163652F776F726B7370616365C6
:10BE08002F4743432D31302D706970656C696E651D
:10BE18002F6A656E6B696E732D4743432D31302D44
:10BE2800706970656C696E652D34385F32303230F8
:10BE3800313132345F313630363138303634312FA3
:10BE48007372632F6E65776C69622F6E65776C69A4
:10BE5800622F6C6962632F7374646C69622F6474F7
:10BE68006F612E63000000002F6D6E742F776F7264
:10BE78006B73706163652F776F726B737061636545
:10BE88002F4743432D31302D706970656C696E659D
:10BE98002F6A656E6B696E732D4743432D31302DC4
:10BEA800706970656C696E652D34385F3230323078
:10BEB800313132345F313630363138303634312F23
:10BEC8007372632F6E65776C69622F6E65776C6924
:10BED800622F6C6962632F7374646C69622F6D7072
:10BEE8007265632E630000000080E03779C3414328
:10BEF800176E05B5B5B89346F5F93FE9034F384DC8
:10BF0800321D30F94877825A3CBF737FDD4F157573
:10BF1800000000000000F03F000000000000244086
:10BF280000000000000059400000000000408F4061
:10BF3800000000000088C34000000000006AF840CC
:10BF48000000000080842E4100000000D0126341F0
:10BF58000000000084D797410000000065CDCD4166
:10BF6800000000205FA00242000000E87648374247
:10BF7800000000A2941A6D42000040E59C30A242E5
:10BF88000000901EC4BCD64200003426F56B0C435A
:10BF98000080E03779C3414300A0D8855734764301
:10BFA80000C84E676DC1AB43003D9160E458E14362
:10BFB800408CB5781DAF154450EFE2D6E41A4B44D7
:10BFC80092D54D06CFF08044F64AE1C7022DB5441C
:10BFD800B49DD9794378EA440500000019000000AF
:10BFE8007D0000002C2066756E6374696F6E3A20C0
:10BFF80000000000617373657274696F6E202225FA
:10C008007322206661696C65643A2066696C6520F4
:10C01800222573222C206C696E65202564257325E2
:10C02800730A000043000000504F534958000000B5
:10C038002E0000002020202020202020202020204A
:10C048002020202030303030303030303030303028
:10C0580030303030002020202020202020202828A8
:10C0680028282820202020202020202020202020B0
:10C0780020202020208810101010101010101010F0
:10C088001010101010040404040404040404041020
:10C0980010101010101041414141414101010101AE
:10C0A8000101010101010101010101010101010178
:10C0B8001010101010104242424242420202020284
:10C0C8000202020202020202020202020202020248
:10C0D80010101010200000000000000000000000F8
:10C0E8000000000000000000000000000000000048
:10C0F8000000000000000000000000000000000038
:10C108000000000000000000000000000000000027
:10C118000000000000000000000000000000000017
:10C128000000000000000000000000000000000007
:10C1380000000000000000000000000000000000F7
:10C1480000000000000000000000000000000000E7
:10C1580000000000000000004FBB610567ACDD3F38
:10C16800182D4454FB21E93F9BF681D20B73EF3F16
:10C17800182D4454FB21F93FE2652F227F2B7A3C8E
:10C18800075C143326A6813CBDCBF07A8807703C47
:10C19800075C143326A6913C182D4454FB21E9BFB3
:10C1A800D221337F7CD90240D221337F7CD902C08F
:10C1B8000000000000000080182D4454FB210940B5
:08C1C800182D4454FB2109C0AD
:08C1D0005850FF7F0100000040
:08C1D800196B00083501000895
:04C1E0001101000841
:10C1E4000024F40001000000100000000000000022
:10C1F400000000E04D62503F000000C07493683FAF
:10C20400000000E051B89E3F000000000000000064
:10C21400000000000000000000000000000000001A
:10C22400000000000000000000000000000000000A
:10C234000000000000000000000000E04D62503FDC
:10C24400000000C07493683F000000E051B89E3FB6
:10C2540000000000000000000000000000000000DA
:10C2640000000000000000000000000000000000CA
:10C2740000000000000000000000000000000000BA
:10C284000054004000000000000000000000000016
:10C29400000000000000000000000000000000009A
:10C2A400000000000000000000000000000000008A
:10C2B400000000000000000000000000000000007A
:10C2C400000000000000000000000000000000006A
:10C2D40000000000005800400000000000000000C2
:10C2E400000000000000000000000000000000004A
:10C2F400000000000000000000000000000000003A
:10C304000000000000000000000000000000000029
:10C314000000000000000000000000000000000019
:10C324000000000000000000070A0000F8B5000843
:10C334005801002000000000000000004404002018
:10C34400AC040020140500200000000000000000E0
:10C3540000000000000000000000000000000000D9
:10C3640000000000000000000000000000000000C9
:10C3740000000000000000000000000000000000B9
:10C3840000000000000000000000000000000000A9
:10C394000000000000000000000000000000000099
:10C3A4000000000000000000000000000000000089
:10C3B4000000000000000000000000000000000079
:10C3C4000000000000000000000000000000000069
:10C3D4000000000000000000000000000000000059
:10C3E40001000000000000000E33CDAB34126DE6F6
:10C3F400ECDE05000B00000000000000000000005F
:10C404000000000000000000000000000000000028
:10C414000000000000000000000000000000000018
:10C424000000000000000000000000000000000008
:10C4340000000000000000000000000000000000F8
:10C76400A01100200000000000000000840500204B
:10C77400840500208C0500208C05002094050020F1
:10C78400940500209C0500209C050020A4050020A1
:10C79400A4050020AC050020AC050020B405002051
:10C7A400B4050020BC050020BC050020C405002001
:10C7B400C4050020CC050020CC050020D4050020B1
:10C7C400D4050020DC050020DC050020E405002061
:10C7D400E4050020EC050020EC050020F405002011
:10C7E400F4050020FC050020FC05002004060020C0
:10C7F400040600200C0600200C060020140600206D
:10C80400140600201C0600201C060020240600201C
:10C81400240600202C0600202C06002034060020CC
:10C82400340600203C0600203C060020440600207C
:10C83400440600204C0600204C060020540600202C
:10C84400540600205C0600205C06002064060020DC
:10C85400640600206C0600206C060020740600208C
:10C86400740600207C0600207C060020840600203C
:10C87400840600208C0600208C06002094060020EC
:10C88400940600209C0600209C060020A40600209C
:10C89400A4060020AC060020AC060020B40600204C
:10C8A400B4060020BC060020BC060020C4060020FC
:10C8B400C4060020CC060020CC060020D4060020AC
:10C8C400D4060020DC060020DC060020E40600205C
:10C8D400E4060020EC060020EC060020F40600200C
:10C8E400F4060020FC060020FC06002004070020BB
:10C8F400040700200C0700200C0700201407002068
:10C90400140700201C0700201C0700202407002017
:10C91400240700202C0700202C07002034070020C7
:10C92400340700203C0700203C0700204407002077
:10C93400440700204C0700204C0700205407002027
:10C94400540700205C0700205C07002064070020D7
:10C95400640700206C0700206C0700207407002087
:10C96400740700207C0700207C0700208407002037
:10C97400840700208C0700208C07002094070020E7
:10C98400940700209C0700209C070020A407002097
:10C99400A4070020AC070020AC070020B407002047
:10C9A400B4070020BC070020BC070020C4070020F7
:10C9B400C4070020CC070020CC070020D4070020A7
:10C9C400D4070020DC070020DC070020E407002057
:10C9D400E4070020EC070020EC070020F407002007
:10C9E400F4070020FC070020FC07002004080020B6
:10C9F400040800200C0800200C0800201408002063
:10CA0400140800201C0800201C0800202408002012
:10CA1400240800202C0800202C08002034080020C2
:10CA2400340800203C0800203C0800204408002072
:10CA3400440800204C0800204C0800205408002022
:10CA4400540800205C0800205C08002064080020D2
:10CA5400640800206C0800206C0800207408002082
:10CA6400740800207C0800207C0800208408002032
:10CA7400840800208C0800208C08002094080020E2
:10CA8400940800209C0800209C080020A408002092
:10CA9400A4080020AC080020AC080020B408002042
:10CAA400B4080020BC080020BC080020C4080020F2
:10CAB400C4080020CC080020CC080020D4080020A2
:10CAC400D4080020DC080020DC080020E408002052
:10CAD400E4080020EC080020EC080020F408002002
:10CAE400F4080020FC080020FC08002004090020B1
:10CAF400040900200C0900200C090020140900205E
:10CB0400140900201C0900201C090020240900200D
:10CB1400240900202C0900202C09002034090020BD
:10CB2400340900203C0900203C090020440900206D
:10CB3400440900204C0900204C090020540900201D
:10CB4400540900205C0900205C09002064090020CD
:10CB5400640900206C0900206C090020740900207D
:10CB6400740900207C0900207C090020FFFFFFFFDE
:10CB7400000002004300000000000000000000006C
:10CB840000000000000000000000000000000000A1
:10CB9400000000004300000000000000000000004E
:10CBA4000000000000000000000000000000000081
:10CBB400000000004300000000000000000000002E
:10CBC4000000000000000000000000000000000061
:10CBD400000000004300000000000000000000000E
:10CBE4000000000000000000000000000000000041
:10CBF40000000000430000000000000000000000EE
:10CC04000000000000000000000000000000000020
:10CC140000000000430000000000000000000000CD
:10CC24000000000000000000000000000000000000
:10CC340000000000430000000000000000000000AD
:10CC440000000000000000000000000000000000E0
:10CC5400000000006DA80008B19400080000000066
:10CC64005CC0000838C00008F4B50008F4B500083A
:10CC7400F4B50008F4B50008F4B50008F4B50008EC
:10CC8400F4B50008F4B50008F4B50008FFFFFFFF91
:10CC9400FFFFFFFFFFFFFFFFFFFF00000100415305
:10CCA40043494900000000000000000000000000AB
:10CCB40000000000000000000000000000004153DC
:10CCC400434949000000000000000000000000008B
:10CCD4000000000000000000000000000000000050
:04CCE400FF0000004D
:0400000508004E5150
:00000001FF
